:020000040800F2
:1000000000100020C50D0008FDA00008FDA000089C
:10001000FDA00008FDA00008FDA00008FDA000084C
:10002000FDA00008FDA00008FDA00008FDA000083C
:10003000FDA00008FDA00008FDA00008FDA000082C
:10004000FDA00008FDA00008FDA00008FDA000081C
:10005000FDA00008FDA00008FDA00008FDA000080C
:10006000FDA00008FDA00008FDA00008FDA00008FC
:10007000FDA00008FDA00008FDA00008FDA00008EC
:10008000FDA00008FDA00008FDA00008FDA00008DC
:10009000FDA00008FDA00008FDA00008FDA00008CC
:1000A000FDA00008FDA00008FDA00008FDA00008BC
:1000B000FDA00008FDA00008FDA00008FDA00008AC
:1000C000FDA00008FDA00008FDA00008FDA000089C
:1000D000FDA00008FDA00008FDA00008FDA000088C
:1000E000FDA00008FDA00008FDA00008FDA000087C
:1000F000A9A40008FDA00008FDA00008FDA00008BC
:10010000FDA00008FDA00008FDA00008FDA000085B
:10011000FDA00008FDA00008FDA00008FDA000084B
:10012000FDA00008FDA00008FDA00008FDA000083B
:10013000FDA00008FDA00008FDA00008FDA000082B
:10014000FDA00008FDA00008FDA00008EDA9000822
:10015000FDA00008FDA00008FDA00008FDA000080B
:10016000FDA00008FDA00008FDA00008FDA00008FB
:10017000013800D0FCE770470348044B834202D0AB
:10018000034B03B118477047A8100020A8100020A7
:1001900000000000064B0749C91A891048BF013109
:1001A000491003D0044B0BB101481847704700BFFA
:1001B000A8100020A81000200000000010B5064C78
:1001C000237843B9FFF7D8FF044B13B10448AFF3CA
:1001D00000800123237010BD4613002000000000A2
:1001E00050B8000808B5054B1BB105490548AFF3E9
:1001F0000080BDE80840FFF7CDBF00BF0000000051
:10020000A810002050B80008A3F5803A704700BF3E
:10021000174B002B08BF134B9D46FFF7F5FF00213E
:100220008B460F461348144A121A0AF0BFFC0E4BB5
:10023000002B00D098470D4B002B00D09847002092
:10024000002104000D000D48002802D00C48AFF337
:10025000008009F063F92000290009F068FD08F02A
:10026000A3FF00BF00000800000000000000000025
:1002700000100020A81000206413002000000000DF
:100280000000000000B583B0034600918DF80730F0
:100290009DF80730002B14D09DF80730012B0ED0AD
:1002A0009DF80730022B07D09DF80730032B01D1B2
:1002B0003F2307E0002305E040F2FF3302E00F2375
:1002C00000E0FF23009AD34003F00103002B04D188
:1002D00040F2CF310A4809F036FF9DF80720134657
:1002E0005B0013441B0103F11402064B13440099F5
:1002F000184609F0FBFC0346184603B05DF804FB02
:1003000000B0000830C0035000B583B000230422C1
:100310000221032004F06CF902210320FFF7B2FF51
:100320000190012304220221032004F061F902213B
:100330000320FFF7A7FF00900A21054800F034F9D9
:10034000044800F04DF900BF03B05DF804FB00BFA6
:10035000C0100020E810002000B58DB00190009181
:10036000264B1B680B9307AB00221A605A609A60F9
:10037000DA604FF420230793009B9BB2013B9BB2B2
:10038000C3F30A0398B201991D4B1A460023136068
:1003900053609360D3601A4A138860F30E1313807E
:1003A000174A937843F010039370154AD37843F0BB
:1003B0000303D370124AD378022060F38303D3700F
:1003C0000F4B104A5A600E4B99600D4A137B43F055
:1003D000010313730A4A137B43F0020313730BAB3D
:1003E000184605F00FFD07AB054A1946002005F039
:1003F00075FD00BF0DB05DF804FB00BF38B000080C
:10040000181100208440005930B5A7B023AB00225A
:100410001A605A609A60584B19AC1D460FCD0FC434
:100420000FCD0FC495E8030084E8030000238DF886
:100430005C3000238DF85D3003238DF85E3000239F
:100440008DF85F3000238DF8603000238DF8613027
:1004500000238DF8623003AB5022002118460AF0C9
:10046000A5FB01238DF80C3001238DF811300123F9
:100470008DF8163001238DF81B3001238DF82030C4
:1004800001238DF8253001238DF82A3001238DF8C2
:100490002F3001238DF8343001238DF839300123BA
:1004A0008DF83E3001238DF8433001238DF848301C
:1004B00001238DF84D3001238DF8523001238DF842
:1004C000573001212A2001F0BFFA02214FF4B06019
:1004D00002F04EF800222949294805F041FB034665
:1004E0008DF8913000238DF88F3001238DF88C30FA
:1004F00000238DF8683040F2BA431C9300238DF836
:10050000653001238DF867309DF89130009300230A
:1005100000221C491A4805F069FB03461B9303237C
:100520008DF8603001238DF85E3001238DF85F3047
:1005300001238DF86230A3238DF8123001238DF84A
:10054000113001238DF8153019AA23AB19460C4838
:1005500004F036FD03AA17AB1946094805F0F2F975
:10056000094BD3F82833084A43F48033C2F82833C0
:1005700000BF27B030BD00BF3CB00008002D3101E6
:10058000004000598096980000C0035008B509F05B
:10059000C7FBFFF739FF0A210248FFF7DDFE00BF66
:1005A00008BD00BFF010002084B00190009100232E
:1005B00003930BE0039B9B00019A13440749039AA2
:1005C00051F822201A60039B01330393039B009A86
:1005D0009A42EFD800BF00BF04B07047F01000206F
:1005E00000B583B00190019B00221A60019B00229C
:1005F0005A60019B0433019A1146184600F0EAF84C
:10060000019B5B68094AA2FB03239A09019B5A607C
:10061000019B1B68054A82FB03129211DB17D21A59
:10062000019B1A6000BF03B05DF804FBD34D62105C
:1006300008B501F089FF09F0D3FD304B1B6F23F0A3
:1006400007032E4A43F00303136709F0D6FD2C4B32
:100650009B6A03F08073002B06D1294B03F50053EE
:100660001A464FF480339362244BD3F8203123F0A1
:100670000703224A43F00203C2F820311F4BD3F88C
:10068000283123F007031D4A43F00203C2F8283142
:100690001A4BD3F8403123F00303184A43F0020306
:1006A000C2F84031154BD3F8603123F00303134AED
:1006B00043F00203C2F86031104BD3F8403223F00C
:1006C00003030E4A43F00203C2F840320B4BD3F847
:1006D000003223F00703094A43F00203C2F8003254
:1006E000064BD3F8083223F00703044A43F0020311
:1006F000C2F808320023184608BD00BF0080005031
:100700000040005A08B501213A2001F09DF9024845
:1007100000F0FAFE00BF08BD0410002000B585B04F
:10072000012000F075F80390012000F077F9039B99
:10073000002B27D11D4B1B681D49184609F033FFBC
:100740001A4B1B681B49184609F02DFF09F0B2FB34
:1007500009F0B2FB154B1868174B00933823174A62
:10076000174909F020FF114B1B68164A1649184615
:1007700009F019FF0D4B1B681449184609F013FFC7
:1007800000BFFDE74021039809F0BBFB0290029BEC
:10079000002B03D10E4B01221A7002E00C4B0022F9
:1007A0001A70029B184605B05DF804FB2811002062
:1007B00064B0000868B0000810B1000870B000080C
:1007C000B8B00008C4B00008D8B00008F0B0000805
:1007D0004713002000B585B0019000910B4B1B78AA
:1007E000002B0BD0012000F013F80290009B019A1F
:1007F0004021029809F0B1FB039001E0112303931B
:10080000039B184605B05DF804FB00BF47130020AA
:1008100084B00190184B1B680393019B013B0F2B85
:1008200022D801A252F823F06F0800086F080008D0
:10083000690800086F0800086908000869080008CE
:10084000690800086F0800086908000869080008BE
:1008500069080008690800086908000869080008B4
:10086000690800086F0800080023039300E000BF38
:10087000039B184604B070470010002008B5094BD0
:1008800001221A70084B00221A70084B04221A70B9
:10089000074B1F221A7006F04DFC0346054A1360F1
:1008A00000BF08BD961000204813002097100020BC
:1008B000981000202811002000B583B00B4B1B6856
:1008C000002B0FD000F070F80190019B002B06D098
:1008D000019B1B6A019A526A114601989847019B35
:1008E000002BEFD100BF03B05DF804FB2C110020FA
:1008F00082B001238DF80730054B1B68002B02D016
:1009000004238DF807309DF80730184602B0704771
:100910002C11002082B001238DF80730054B1B6895
:10092000002B02D000238DF807309DF807301846C1
:1009300002B070472C11002000B587B0019009F07B
:10094000AFFC039000230593164B1B68049304E04F
:10095000049B0593049B9B6A0493049B002B03D088
:10096000049A019B9A42F3D1049A019B9A4204D0C3
:10097000039809F0A5FC00230FE0059B002B04D091
:10098000019B9A6A059B9A6203E0019B9B6A054A58
:100990001360039809F094FC0123184607B05DF832
:1009A00004FB00BF3011002000B583B009F078FCD3
:1009B0000090184B1B68019320E0019B93F82C30AA
:1009C000002B18D0019B002283F82C20124B1B68AF
:1009D000013B114A1360019B93F82D3083F0010312
:1009E000DBB2002B02D00198FFF7A6FF009809F0B8
:1009F00067FC019B09E0019B9B6A0193019B002B13
:100A0000DBD1009809F05CFC0023184603B05DF8C8
:100A100004FB00BF301100202C11002000B585B070
:100A200001900E230393019B202B4BDC019B002B99
:100A300040F38780019B013B1F2B00F2828001A2C3
:100A400052F823F0CD0A0008DF0A0008430B000823
:100A5000F10A0008430B0008430B0008430B000891
:100A6000030B0008430B0008430B0008430B00086E
:100A7000430B0008430B0008430B0008430B00081E
:100A8000150B0008430B0008430B0008430B00083C
:100A9000430B0008430B0008430B0008430B0008FE
:100AA000430B0008430B0008430B0008430B0008EE
:100AB000430B0008430B0008430B0008430B0008DE
:100AC0001F0B0008019B402B32D03AE00123042287
:100AD0000921022003F08CFD0023039336E001235B
:100AE00004220921022003F083FD002303932DE05B
:100AF000012304220921022003F07AFD002303933D
:100B000024E0012304220921022003F071FD0023C7
:100B100003931BE0B921104809F015FB16E00123EF
:100B200004220921022003F063FD002303930DE05A
:100B3000012304220821022003F05AFD002303931D
:100B400004E0D821044809F0FEFA00BF039B1846D0
:100B500005B05DF804FB00BF24B1000800B583B008
:100B6000034600918DF807309DF80730002B14D014
:100B70009DF80730012B0ED09DF80730022B07D0CF
:100B80009DF80730032B01D13F2307E0002305E048
:100B900040F2FF3302E00F2300E0FF23009AD3402E
:100BA00003F00103002B04D140F2FE310A4809F0A2
:100BB000CAFA0A489DF807200121009B9940134674
:100BC0005B0013441B01034403F50153196000BF8C
:100BD00003B05DF804FB00BF68B1000800C003501B
:100BE00000B583B0034600918DF807309DF80730BB
:100BF000002B14D09DF80730012B0ED09DF8073044
:100C0000022B07D09DF80730032B01D13F2307E0CB
:100C1000002305E040F2FF3302E00F2300E0FF2352
:100C2000009AD34003F00103002B04D140F22D4180
:100C30000A4809F088FA0A489DF807200121009B1C
:100C4000994013465B0013441B01034403F5825390
:100C5000196000BF03B05DF804FB00BF68B1000875
:100C600000C0035030B589B0454B01AC1D460FCDD7
:100C70000FC495E8070084E8070001213A2000F03E
:100C8000E3FE0121292000F0DFFE01238DF8123060
:100C90003C4B039301AB19463B4805F071FC012323
:100CA00004220321022003F0A3FC002301220221DD
:100CB000022003F09DFC012304220121022003F005
:100CC00097FC012304220021022003F091FC2F4B0A
:100CD0002F4AC3F834272D4B4FF00212C3F83027A8
:100CE0002A4B2C4AC3F83827284B1C22C3F820274C
:100CF0004FF4487008F088F809F0F5F8142008F06F
:100D000083F809F0F7F8232008F07EF809F0EBF8F3
:100D1000B9211D4809F08AFB09F0ECF800230022F4
:100D20000321022003F064FC0023002202210220A0
:100D300003F05EFC012300220121022003F058FC95
:100D4000012300220021022003F052FC0E4805F08E
:100D50009BFC0E4B0022C3F834270C4B0022C3F837
:100D600030270A4B0022C3F83827084B0022C3F86B
:100D700020270021292000F067FE00BF09B030BD08
:100D8000A0B1000800127A0000C0055000C0035056
:100D9000020001000200030000B583B0064A074BC1
:100DA000D31A9B100193019A0549044809F0A8F948
:100DB00000BF03B05DF804FB0CB900080CB90008D3
:100DC0006413002000B585B000F080F8FFF7E4FF61
:100DD0001F4B039319E0002302930EE0039B1A6854
:100DE000029B9B001A44039B5968029B9B000B4487
:100DF00012681A60029B01330293039B9B68029A5C
:100E00009A42EBD3039B0C330393039B114A934207
:100E1000E1D3114B019314E00023009309E0019BFF
:100E20001A68009B9B00134400221A60009B013348
:100E30000093019B5B68009A9A42F0D3019B0833B0
:100E40000193019B054A9342E6D3FFF7E1F900BF06
:100E500058B8000864B8000864B8000864B800080E
:100E600082B003468DF807309DF90730002B0CDB6C
:100E70009DF8073003F01F0205499DF907305B0913
:100E8000012000FA02F241F8232000BF02B07047AF
:100E900000E100E082B003468DF807309DF907308D
:100EA000002B0DDB9DF8073003F01F0206499DF96A
:100EB00007305B09012000FA02F2603341F8232079
:100EC00000BF02B0704700BF00E100E008B51D4B55
:100ED0001D4A9A601B4BD3F888301A4A43F47003BA
:100EE000C2F88830194B03F580531A464FF48043FB
:100EF0009366174B03F500531A464FF0FF33136602
:100F0000134B03F500531A46124B5366124B022241
:100F10001A60BFF34F8F00BFBFF36F8F00BF002079
:100F2000FFF7B8FF0A4B03F500531A464FF440335E
:100F3000D3600020FFF794FF054B4FF440321A6155
:100F400000BF08BD00ED00E0000000080080005078
:100F500000800044F7FF3700D0ED00E0014B1B6834
:100F6000184670472010002000B583B0002301937D
:100F70000E4B1B6F03F00703032B09D0032B0FD875
:100F8000012B09D0022B0BD1FFF7E8FF019008E0FD
:100F9000074B1B68019304E0064B019301E0FFE758
:100FA000FDE7019B184603B05DF804FB008000508C
:100FB00018100020002D310100B583B0FFF7D4FFD9
:100FC00001900A4B1B6F1B0B03F00F030093009B58
:100FD0000133019AB2FBF3F30193054A019B1360BD
:100FE000019B184603B05DF804FB00BF0080005071
:100FF00024100020014B1846704700BF00B4C40401
:10100000014B1B68184670471810002000B583B0CC
:101010000190074A019B1360064B1B6F03F0070307
:10102000032B01D1FFF7C8FF00BF03B05DF804FB3D
:101030001810002000800050014B1846704700BF78
:10104000002D310182B0002301934FF0B4439B681F
:101050001B0C03F01F030C2B4CD801A252F823F0F9
:1010600095100008F5100008F5100008F5100008AC
:10107000F5100008F5100008D1100008D71000087E
:10108000DD100008F5100008E3100008E910000862
:10109000EF1000084FF0B4439B6803F04073B3F1C6
:1010A000007F0ED0B3F1007F0ED8002B03D0B3F138
:1010B000807F03D008E0124B019308E0114B0193AD
:1010C00005E0114B019302E00023019300BF12E001
:1010D0000E4B01930FE00E4B01930CE00D4B01936F
:1010E00009E00D4B019306E00C4B019303E00C4B20
:1010F000019300E000BF019B184602B0704700BF9B
:1011000000093D0080841E0040420F00405DC60083
:101110000024F400C0EA210180BA8C010048E801F3
:10112000005A6202014B1B68184670471C100020D1
:1011300000B583B001900091009B002B02D0019B71
:10114000002B03D13721074808F0FDFF019B1A68E7
:10115000009B1A60019B009A1A6000BF03B05DF803
:1011600004FB00BFBCB1000884B001900B4B1A68AF
:10117000019B13440A4A934202D94FF0FF3309E01E
:10118000064B1B680393054B1A68019B1344034AE3
:101190001360039B184604B0704700BF281000205E
:1011A0000000042000B587B0039002910192029BD9
:1011B0001F2B03D991210C4808F0C5FF019B002B80
:1011C00004D0039B03F58053059303E0039B03F5D1
:1011D00000530593059B0121029A01FA02F21A605D
:1011E00000BF07B05DF804FBF4B1000800B585B09E
:1011F00003468DF807309DF80730002B01D00123FE
:1012000000E000230393039A00210348FFF7CAFF7D
:1012100000BF05B05DF804FB44C4035000B585B0C1
:10122000002303930023ADF80A300023ADF8083003
:101230000023019301213A2000F006FC012304223F
:101240000321002003F0D4F9019809F08FF8012060
:10125000FFF7CCFF474B03F580531A464FF40023AA
:101260005366454BDB6803F08073002B14BF0123EA
:1012700000238DF803309DF80330002B05D03E4B42
:10128000DB683D4A23F08073D3603A4BD3F880305B
:1012900023F00303374A43F00203C2F880309DF87D
:1012A0000330002B05D0344BDB68334A43F08073A6
:1012B000D3604FF4607000F001FC03902E4B1B686C
:1012C0002D4A43F0010313602B4BDB682A4A43F09D
:1012D0008073D3600123ADF80A300F23ADF80830D6
:1012E000BDF80A305A02BDF808305B001A432349A2
:1012F000234B13430B60039B03F5D52303F2FC43FD
:10130000DB08204AA2FB03239B0A1F4A013B13610F
:101310001D4B0222C3F8F0201B4B4FF48072C3F820
:1013200004234FF06043194AC3F8B02F4FF06043D5
:10133000174AC3F8802E4FF06043D3F8003E4FF0B9
:10134000604243F48073C2F8003E4FF06043FF22D6
:1013500083F820204FF06043D3F8003E4FF0604206
:1013600023F48073C2F8003E0023184605B05DF8F0
:1013700004FB00BF00800050F0ED00E0001000E032
:10138000E101004017916502000004E055CEACC5B4
:101390000900010082B001900B468DF803304FF038
:1013A0006043D3F8803E03F00103002B22D0134B9F
:1013B000DB68124A43F08073D3604FF06043D3F888
:1013C000002E0121019B01FA03F34FF0604113430A
:1013D000C1F8003E4FF06042019B52F82330002BD1
:1013E000E5D04FF06041019B9DF8032001F82320D8
:1013F000002300E01123184602B07047F0ED00E032
:1014000000B583B0034600918DF807309DF8073092
:10141000002B14D09DF80730012B0ED09DF807301B
:10142000022B07D09DF80730032B01D13F2307E0A3
:10143000002305E040F2FF3302E00F2300E0FF232A
:10144000009AD34003F00103002B04D140F2FE3197
:101450000A4808F078FE0A489DF807200121009B01
:10146000994013465B0013441B01034403F50153E9
:10147000196000BF03B05DF804FB00BF28B200088C
:1014800000C0035000B583B0034600918DF80730CB
:101490009DF80730002B14D09DF80730012B0ED09B
:1014A0009DF80730022B07D09DF80730032B01D1A0
:1014B0003F2307E0002305E040F2FF3302E00F2363
:1014C00000E0FF23009AD34003F00103002B04D176
:1014D00040F22D410A4808F036FE0A489DF80720E0
:1014E0000121009B994013465B0013441B010344F8
:1014F00003F58253196000BF03B05DF804FB00BF21
:1015000028B2000800C0035000B589B00190019BCB
:10151000002B03D139214E4808F015FE019B1B68B2
:10152000B3F1B64F02D12E2306930CE0019B1B684A
:10153000484A934202D12F23069304E04F214448A6
:1015400008F001FE81E00121069800F07DFA019B80
:101550001879019B5B79194601230A2203F048F8A8
:10156000019B9879019BDB79194601230A2203F03C
:101570003FF80023079318E0019B1A79019B5B79E0
:1015800019461046FFF73CFF642007F03DFC019B25
:101590001A79019B5B7919461046FFF773FF6420A7
:1015A00007F032FC079B01330793079B092BE3DD10
:1015B000019B1B68B3F1B64F15D1274B0322C3F82B
:1015C000E824019B5B791B04019A12791A43224B90
:1015D000C3F8EC24019BDB791B04019A92791A432E
:1015E0001D4BC3F8F024019B1B681A4A934215D186
:1015F000194B0322C3F8F824019B5B791B04019A61
:1016000012791A43144BC3F8FC24019BDB791B04A9
:10161000019A92791A43104BC3F8002501238DF8E3
:10162000083001238DF80930019BDB680493019B8E
:101630009B680393019B1B7C8DF81430019B1B68F6
:1016400002AA1146184603F07FF909B05DF804FBC1
:1016500060B200080080065000C0035000B585B09D
:10166000019000910F4B02930099019803F010FC38
:1016700003468DF80F3005E0019803F0A3F9034607
:101680008DF80F309DF90F30012B04D1029B5A1EAB
:101690000292002BF0D19DF90F30184605B05DF88D
:1016A00004FB00BFE093040000B587B003900291F3
:1016B0000192029B1F2B03D991210C4808F043FD96
:1016C000019B002B04D0039B03F58053059303E09B
:1016D000039B03F500530593059B0121029A01FA30
:1016E00002F21A6000BF07B05DF804FBA0B2000868
:1016F00008B500BF0421044808F04BFD0346002B49
:10170000F8D100BF00BF08BD8440005008B5FFF706
:10171000EFFF044BD3F884309B0903F00303DBB2E3
:10172000184608BD00400050034B5B6A024A43F074
:101730000103536200BF704700C00750034B5B6A50
:10174000024A23F00103536200BF704700C00750F4
:10175000054BDB6903F48033002B14BF0123002306
:10176000DBB21846704700BF00000350024B002256
:10177000DA6300BF704700BF00000350024B41F620
:101780007132DA6300BF704700000350014B5B68A1
:10179000184670470000035082B00190024A019B36
:1017A000536000BF02B070470000035000B585B021
:1017B000019000230393019BB3F5607F35D0019B1B
:1017C000B3F5607F59D8019BB3F5207F4ED0019BC4
:1017D000B3F5207F51D8019BB3F5007F3ED0019B2C
:1017E000B3F5007F49D8019B002B03D0019BB3F5D3
:1017F000C07F42D1264B1B6F1B0B03F00F030393DB
:10180000039B002B3BD0039B012B38D0039B032B66
:1018100035D0039B072B32D0039B0F2B2FD040F2E8
:1018200085211C4808F08FFC29E0194BD3F8803043
:101830001B0903F003030393039B002B21D0039B9D
:10184000012B1ED0039B022B1BD0039B032B18D014
:1018500040F295210F4808F076FC12E00C4BD3F8CB
:1018600090301B0E03F01F0303930BE0084B1B6F1C
:101870009B0A03F00103039304E000BF02E000BFF2
:1018800000E000BF039B0133184605B05DF804FB80
:1018900000800050D4B2000810B584B001900091CF
:1018A000019BB3F5607F54D0019BB3F5607F00F2DC
:1018B000BA80019BB3F5207F00F09F80019BB3F5B8
:1018C000207F00F2B080019BB3F5007F7DD0019BAB
:1018D000B3F5007F00F2A780019B002B04D0019B91
:1018E000B3F5C07F40F09F80009B012B10D0009B80
:1018F000022B0DD0009B042B0AD0009B082B07D095
:10190000009B102B04D040F2C7214C4808F01BFC70
:1019100008F0A6FC08F09CFC01F0BAFF484B1B6FD6
:1019200023F47042009B013B1B03454913430B67A3
:1019300008F029FC0446FFF7E9FE0346C3F1020361
:101940001946204608F070FC02F0EEF901F0ACFFF9
:1019500070E03C4BDB6803F08073002B14BF012365
:1019600000238DF80F309DF80F30002B05D0354B3C
:10197000DB68344A23F08073D360009B012B0DD0C9
:10198000009B022B0AD0009B032B07D0009B042B4B
:1019900004D040F2F221294808F0D5FB284BD3F8B7
:1019A000803023F03002009B013B1B01244913438C
:1019B000C1F880309DF80F30002B3AD0214BDB6806
:1019C000204A43F08073D36033E0009B002B02D0A9
:1019D000009B202B04D940F20631184808F0B3FBD5
:1019E000174BD3F8903023F0F852009B013B1B06B5
:1019F00013491343C1F890301CE0009B012B07D022
:101A0000009B022B04D04FF443710C4808F09BFB61
:101A10000B4B1B6F23F48062009B013B9B02084928
:101A200013430B6706E040F21231044808F08BFBC9
:101A300000E000BF00BF04B010BD00BFD4B200087A
:101A400000800050F0ED00E000B585B001900B463D
:101A50008DF8033000230393019B5B09002B05D114
:101A600040F22F31124808F06EFB12E0019B5B0937
:101A7000012B02D10F4B03930BE0019B5B09022B5F
:101A800002D10D4B039304E040F23D31084808F0C9
:101A90005AFB019B03F01F0302939DF803301A4683
:101AA00002990398FFF700FE00BF05B05DF804FB44
:101AB000D4B20008648000506880005010B584B033
:101AC00001900023039300230293019BB3F5486F19
:101AD00000F02983019BB3F5486F00F23683019B28
:101AE000B3F5406F00F0EF82019BB3F5406F00F259
:101AF0002C83019BB3F5286F00F01B83019BB3F58A
:101B0000286F00F22283019BB3F5206F00F005835C
:101B1000019BB3F5206F00F21883019BB3F5106FA2
:101B200000F0EF82019BB3F5106F00F20E83019B72
:101B3000B3F5F06F00F00383019BB3F5F06F00F293
:101B40000483019BB3F5E06F00F0E182019BB3F5E4
:101B5000E06F00F2FA82019BB3F5D06F00F0CB8208
:101B6000019BB3F5D06F00F2F082019BB3F5C06F1B
:101B700000F0BB82019BB3F5C06F00F2E682019BCF
:101B8000B3F5B06F00F0A582019BB3F5B06F00F222
:101B9000DC82019BB3F5A06F00F08F82019BB3F54F
:101BA000A06F00F2D282019BB3F5806F00F07F82BC
:101BB000019BB3F5806F00F2C882019BB3F5607F93
:101BC00000F06682019BB3F5607F00F2BE82019B4C
:101BD000B3F5407F00F04F82019BB3F5407F00F2E8
:101BE000B482019BB3F5207F00F03982019BB3F5ED
:101BF000207F00F2AA82019BB3F5007F00F02382D0
:101C0000019BB3F5007F00F2A082019BB3F5807FBA
:101C100000F20A82019BB3F5807F00F2968201A256
:101C200052F823F03D2000084B2100084B2100080A
:101C30004B2100084B2100084B2100084B210008D4
:101C40004B2100084B2100084B2100084B210008C4
:101C50004B2100084B2100084B2100084B210008B4
:101C60004B2100084B2100084B2100084B210008A4
:101C70004B2100084B2100084B2100084B21000894
:101C80004B2100084B2100084B2100084B21000884
:101C90004B2100084B2100084B2100084B21000874
:101CA0004B2100083D2000085F2000083D2000086F
:101CB0005F200008AF200008AF200008AF20000818
:101CC000AF200008AF2000085F200008D3200008E4
:101CD00077200008EB200008F72000087720000894
:101CE0005F2000085F2000085F2000084B210008EB
:101CF0004B2100084B2100084B2100084B21000814
:101D00004B2100084B2100084B2100085F200008F0
:101D10005F2000085F2000083F2100080F21000815
:101D20005F2000084B2100084B2100084B210008D0
:101D30004B2100084B2100084B2100084B210008D3
:101D40004B2100084B2100084B2100084B210008C3
:101D50004B2100084B210008AF2000083D2000085F
:101D60003D2000083D2000080321000877200008DE
:101D7000772000081B21000833210008BB20000841
:101D8000C72000084B2100084B2100084B21000808
:101D90004B2100084B210008272100083D200008A6
:101DA0004B2100084B2100084B2100084B21000863
:101DB0004B2100084B2100084B2100084B21000853
:101DC0004B2100084B2100084B2100084B21000843
:101DD0004B2100084B2100084B2100084B21000833
:101DE0004B2100084B2100084B2100084B21000823
:101DF0004B2100084B2100084B2100084B21000813
:101E00004B2100084B2100084B2100084B21000802
:101E10004B2100084B2100084B2100084B210008F2
:101E20004B210008332000084B2100084B210008FB
:101E30004B2100084B2100084B2100084B210008D2
:101E40004B2100084B2100084B2100084B210008C2
:101E50004B2100084B2100084B2100084B210008B2
:101E60004B2100084B2100084B2100084B210008A2
:101E70004B2100084B2100084B2100084B21000892
:101E80004B2100084B2100084B2100084B21000882
:101E90004B2100084B2100084B2100084B21000872
:101EA0004B2100084B2100084B2100084B21000862
:101EB0004B2100084B2100084B2100084B21000852
:101EC0004B2100084B2100084B2100084B21000842
:101ED0004B2100084B2100084B2100084B21000832
:101EE0004B2100084B2100084B2100084B21000822
:101EF0004B2100084B2100084B2100084B21000812
:101F00004B2100084B2100084B2100084B21000801
:101F10004B2100084B2100084B2100084B210008F1
:101F20004B2100084B2100084B2100084B210008E1
:101F30004B2100084B2100084B2100084B210008D1
:101F40004B2100084B2100084B2100084B210008C1
:101F50004B2100084B2100084B2100084B210008B1
:101F60004B2100084B2100084B2100084B210008A1
:101F70004B2100084B2100084B2100084B21000891
:101F80004B2100084B2100084B2100084B21000881
:101F90004B2100084B2100084B2100084B21000871
:101FA0004B2100084B2100084B2100084B21000861
:101FB0004B2100084B2100084B2100084B21000851
:101FC0004B2100084B2100084B2100084B21000841
:101FD0004B2100084B2100084B2100084B21000831
:101FE0004B2100084B2100084B2100084B21000821
:101FF0004B2100084B2100084B2100084B21000811
:102000004B2100084B2100084B2100084B21000800
:102010004B2100084B2100084B2100084B210008F0
:102020004B210008DF200008019BB3F5C07F05D0DD
:102030008BE0FEF799FF034603938CE0FEF7BCFFAD
:102040000346039387E0FEF78FFF04464FF40070CA
:10205000FFF7ACFB0346B4FBF3F303937BE0FEF71F
:10206000ABFF04464FF42070FFF7A0FB0346B4FB20
:10207000F3F303936FE0FEF79FFF04464FF42070E5
:10208000FFF794FB0346B4FBF3F35B08039362E0B2
:1020900002AB0021184601F01DFC029C4FF4607059
:1020A000FFF784FB0346B4FBF3F3039353E003AB66
:1020B0000021184601F09AFC4DE003AB00211846C0
:1020C00001F050FA47E003AB0021184601F0A0FAF6
:1020D00041E003AB0021184601F0E0FD3BE003AB1B
:1020E0000021184601F02CFF35E003AB0021184613
:1020F00001F0DEFC2FE003AB0021184601F078FE72
:1021000029E003AB0021184601F0C6FE23E003AB33
:102110000021184601F022FE1DE003AB0021184605
:1021200001F0D4FA17E003AB0021184601F022FBBE
:1021300011E003AB0021184601F070FB0BE003AB8C
:102140000021184601F0FEFC05E040F294410448ED
:1021500007F0F9FF00BF039B184604B010BD00BF95
:10216000D4B2000800B585B0019000230393019B11
:10217000B3F5486F00F0CD81019BB3F5486F00F2D5
:10218000D481019BB3F5406F00F0B181019BB3F5A1
:10219000406F00F2CA81019BB3F5286F00F0BF8148
:1021A000019BB3F5286F00F2C081019BB3F5206F4E
:1021B00000F0A981019BB3F5206F00F2B681019B6D
:1021C000B3F5106F00F07B81019BB3F5106F00F247
:1021D000AC81019BB3F5086F00F07781019BB3F5EB
:1021E000086F00F2A281019BB3F5F06F00F05B81F4
:1021F000019BB3F5F06F00F29881019BB3F5E06F9E
:1022000000F07B81019BB3F5E06F00F28E81019BB2
:10221000B3F5D06F00F04D81019BB3F5D06F00F2A4
:102220008481019BB3F5C06F00F03781019BB3F54A
:10223000C06F00F27A81019BB3F5B06F00F01B8193
:10224000019BB3F5B06F00F27081019BB3F5A06FF5
:1022500000F04781019BB3F5A06F00F26681019BFE
:10226000B3F5806F00F00D81019BB3F5806F00F234
:102270005C81019BB3F5607F00F02D81019BB3F57C
:10228000607F00F25281019B802B00F2C780019B8E
:10229000242BC0F04A81019B243B5C2B00F245813A
:1022A00001A252F823F000BF832400088324000811
:1022B0008324000883240008832400082B250008B9
:1022C000772400082B2500089B240008B32400086D
:1022D0002B2500082B2500082B2500082B2500089E
:1022E0002B2500082B2500082B2500082B2500088E
:1022F0002B2500082B2500082B2500082B2500087E
:102300002B2500082B2500082B250008A7240008F2
:10231000FB2400082B2500082B2500082B2500088E
:102320002B2500082B2500082B2500082B2500084D
:102330002B2500082B2500082B2500082B2500083D
:102340002B2500082B2500082B25000883240008D6
:102350002B2500082B2500082B250008BF2400088A
:102360002B2500082B250008072500081F2500083D
:10237000E3240008EF2400082B2500082B25000883
:102380002B2500082B2500082B2500081325000805
:102390002B2500082B2500082B2500082B250008DD
:1023A0002B2500082B2500082B2500082B250008CD
:1023B0002B2500082B2500082B2500082B250008BD
:1023C0002B2500082B2500082B2500082B250008AD
:1023D0002B2500082B2500082B2500082B2500089D
:1023E0002B2500082B2500082B2500082B2500088D
:1023F0002B2500082B2500082B2500082B2500087D
:102400002B2500082B2500082B2500082B2500086C
:102410002B2500082B25000827240008019BB3F575
:10242000807F34D081E0464B1B6F03F00703013BF4
:10243000032B17D801A252F823F000BF5F24000835
:102440004D24000853240008592400080523039351
:1024500010E0032303930DE0082303930AE0022313
:10246000039307E00023039340F2C641354807F089
:102470006AFE00BF5FE003AB1946002001F00EFCCE
:1024800059E003AB1946002001F0B0FA53E003AB6A
:102490001946002001F054FD4DE003AB1946002021
:1024A00001F006FB47E003AB1946002001F04AFBB0
:1024B00041E003AB1946002001F09AFC3BE003AB7E
:1024C0001946002001F0E8FC35E003AB1946002076
:1024D00001F042FA2FE003AB1946002001F0FAF9AF
:1024E00029E003AB1946002001F03CF823E003ABE0
:1024F0001946002001F08CF81DE003AB19460020BE
:1025000001F02CFC17E003AB1946002001F0DEF8C7
:1025100011E003AB1946002001F02CF90BE003ABEE
:102520001946002001F07AF905E040F2795105489A
:1025300007F009FE00BF039B184605B05DF804FBD9
:1025400000800050D4B20008074B03F580531A46B0
:102550004FF480135366054B03F580531A464FF42E
:102560008033936200BF7047008000500040005AE3
:1025700010B584B0019000910023039300238DF8DF
:102580000B3000238DF80A30019BB3F5486F00F043
:102590003A85019BB3F5486F00F29785019BB3F52F
:1025A000406F00F07184019BB3F5406F00F28D85A0
:1025B000019BB3F5286F00F06A85019BB3F5286F86
:1025C00000F28385019BB3F5206F00F0D884019B56
:1025D000B3F5206F00F27985019BB3F5106F00F021
:1025E0004583019BB3F5106F00F26F85019BB3F536
:1025F000086F00F08183019BB3F5086F00F26585D9
:10260000019BB3F5F06F00F0AF82019BB3F5F06F63
:1026100000F25B85019BB3F5E06F00F07384019BD2
:10262000B3F5E06F00F25185019BB3F5D06F00F078
:10263000D882019BB3F5D06F00F24785019BB3F5BB
:10264000C06F00F04C82019BB3F5C06F00F23D8576
:10265000019BB3F5B06F00F07581019BB3F5B06FCE
:1026600000F23385019BB3F5A06F00F0C283019B9C
:10267000B3F5A06F00F22985019BB3F5806F00F0E0
:102680008881019BB3F5806F00F21F85019BB3F534
:10269000607F00F06883019BB3F5607F00F21585D1
:1026A000019B802B00F2C680019B242BC0F00D857E
:1026B000019B243B5C2B00F2088501A252F823F019
:1026C00093290008932900089329000893290008FA
:1026D00093290008CB30000845290008CB300008BA
:1026E000DF2A0008E32B0008CB300008CB300008BD
:1026F000CB300008CB300008CB300008CB300008CE
:10270000CB300008CB300008CB300008CB300008BD
:10271000CB300008CB300008CB300008CB300008AD
:10272000CB300008692B0008052F0008CB300008CB
:10273000CB300008CB300008CB300008CB3000088D
:10274000CB300008CB300008CB300008CB3000087D
:10275000CB300008CB300008CB300008CB3000086D
:10276000CB30000893290008CB300008CB3000089C
:10277000CB3000086D2C0008CB300008CB300008AF
:102780007F2F00088F300008F32D0008892E0008E5
:10279000CB300008CB300008CB300008CB3000082D
:1027A000CB30000807300008CB300008CB300008E1
:1027B000CB300008CB300008CB300008CB3000080D
:1027C000CB300008CB300008CB300008CB300008FD
:1027D000CB300008CB300008CB300008CB300008ED
:1027E000CB300008CB300008CB300008CB300008DD
:1027F000CB300008CB300008CB300008CB300008CD
:10280000CB300008CB300008CB300008CB300008BC
:10281000CB300008CB300008CB300008CB300008AC
:10282000CB300008CB300008CB300008CB3000089C
:1028300043280008019BB3F5807F00F0E58000F09D
:1028400044BC009B023B062B34D801A252F823F073
:10285000AF28000873280008B52800086D28000874
:10286000B5280008B5280008A9280008022303930A
:1028700026E003230393B84B03F580531A464FF425
:1028800080135366B54B9B6A03F08073002B14BF13
:10289000012300238DF80B30B04B03F580531A460B
:1028A0004FF4803393620BE00423039308E0012389
:1028B000039305E040F23161A94807F044FC00BFF2
:1028C0000121022001F064FC07F0CAFC07F0C0FC03
:1028D00000F0DEFFA04B1B6F23F007029E49039B15
:1028E00013430B6707F04FFC0446FEF70FFF034648
:1028F000C3F102031946204607F096FC012100208F
:1029000001F018FC01F010FA00F0CEFF9DF80B303A
:1029100083F00103DBB2002B00F0DD83009B032B6F
:102920000ED18E4B03F500531A464FF48033936259
:1029300000BF8A4B9B6D03F08043002BF9D100E070
:1029400000BFC8E3009B102B09D0009B102B0FD8B1
:10295000009B022B09D0009B072B03D008E001232A
:1029600003930BE00323039308E00223039305E0A2
:1029700040F27A617A4807F0E6FB00BF764BD3F865
:10298000803123F003027449039B1343C1F8803163
:10299000A4E3009B013B062B25D801A252F823F0AB
:1029A000D5290008CF290008C3290008E12900081B
:1029B000BD290008DB290008C92900080123039369
:1029C00017E00223039314E00423039311E003238D
:1029D00003930EE0002303930BE00523039308E029
:1029E0000623039305E040F2B9615D4807F0ABFBB5
:1029F00000BF594BD3F8203123F007025649039BFF
:102A00001343C1F8203169E3009B093B082B5FD8D1
:102A100001A252F823F000BF3D2A00083D2A000819
:102A2000D12A00083D2A0008872A0008D12A000878
:102A3000D12A0008D12A00083D2A0008464B5B6EC7
:102A400003F48033002B0CBF012300238DF80A30E0
:102A5000414B03F580531A464FF480335366FEF71B
:102A600063FE9DF80A30002B06D03B4B03F5005364
:102A70001A464FF4803353663A4B1B68394A23F0A9
:102A8000040313602AE0344B5B6E03F48033002BA5
:102A90000CBF012300238DF80A302F4B03F5805320
:102AA0001A464FF480335366FEF748FE9DF80A300D
:102AB000002B06D0284B03F500531A464FF4803301
:102AC0005366284B1B68274A43F00403136005E054
:102AD00040F2E161224807F036FB00BFFEE2009BB6
:102AE000013B0B2B26D801A252F823F02F2B000814
:102AF000352B0008352B0008352B0008352B000836
:102B0000352B0008352B0008352B0008232B000837
:102B10001D2B00081D2B0008292B000801230393FF
:102B20000EE0022303930BE00323039308E000234A
:102B3000039305E040F20171094807F004FB00BF70
:102B4000054BD3F8403123F003020349039B1343A1
:102B5000C1F84031C2E200BF008000500040005A7E
:102B6000D4B2000810E000E0009B013B0B2B27D8FB
:102B700001A252F823F000BFBB2B0008C12B0008B4
:102B8000C12B0008C12B0008C12B0008C12B000875
:102B9000C12B0008C12B0008AF2B0008A92B00088F
:102BA000A92B0008B52B0008012303930EE0022394
:102BB00003930BE00323039308E00023039305E052
:102BC00040F22371BC4807F0BEFA00BFBB4BD3F8FC
:102BD000603123F00302B949039B1343C1F860310C
:102BE0007CE2009B013B0E2B2FD801A252F823F070
:102BF000452C00084B2C00084B2C00084B2C0008DF
:102C00004B2C00084B2C00084B2C00084B2C0008C8
:102C1000332C00082D2C00082D2C0008392C00081E
:102C20004B2C00084B2C00083F2C00080123039379
:102C300011E0022303930EE0032303930BE004232C
:102C4000039308E00023039305E04FF4EE619A48F4
:102C500007F079FA00BF994BD3F8003223F007024E
:102C60009649039B1343C1F8003237E2009B013BB6
:102C70000E2B30D801A252F823F000BFD12C00084F
:102C8000D72C0008D72C0008D72C0008D72C000818
:102C9000D72C0008D72C0008D72C0008BF2C000820
:102CA000B92C0008B92C0008C52C0008D72C000846
:102CB000D72C0008CB2C00080123039311E002233A
:102CC00003930EE0032303930BE00423039308E034
:102CD0000023039305E040F29471774807F033FA3C
:102CE00000BF764BD3F8083223F007027349039BE9
:102CF0001343C1F80832F1E1009B013B082B21D8B6
:102D000001A252F823F000BF3F2D0008452D000816
:102D10002D2D0008452D0008452D0008452D0008E3
:102D2000452D0008392D0008332D00080123039399
:102D30000EE0022303930BE00323039308E0002338
:102D4000039305E04FF4F6615B4807F0FCF900BF20
:102D50005A4BD3F8003123F003025849039B134325
:102D6000C1F80031BAE1564BDB6803F08073002BE9
:102D700014BF012300238DF809309DF80930002B82
:102D800005D04F4BDB684E4A23F08073D360009B25
:102D90000E2B09D0009B0E2B0FD8009B062B06D0C4
:102DA000009B072B06D008E0012303930BE00323CD
:102DB000039308E00223039305E040F2E1713E48EB
:102DC00007F0C1F900BF3D4BD3F8803023F0030278
:102DD0003A49039B1343C1F880309DF80930002B1A
:102DE00000F07B81364BDB68354A43F08073D3605B
:102DF00073E1009B013B112B35D801A252F823F05F
:102E0000612E0008672E0008672E0008672E000854
:102E1000672E0008672E00084F2E0008672E000856
:102E20005B2E0008552E0008552E0008672E00085E
:102E3000672E0008672E0008672E0008672E00081E
:102E4000672E0008492E00080123039311E0022396
:102E500003930EE0032303930BE00423039308E0A2
:102E60000023039305E040F63D01134807F06BF99A
:102E700000BF124BD3F8203223F007020F49039B07
:102E80001343C1F8203229E1009B023B052B28D8CF
:102E900001A252F823F000BFD12E0008D72E00085F
:102EA000DD2E0008B12E0008C52E0008CB2E00082C
:102EB000012303931BE000BFD4B200080080005040
:102EC000F0ED00E00523039311E0042303930EE0EB
:102ED000032303930BE00223039308E006230393E9
:102EE00005E040F66E017F4807F02DF900BF7E4BEC
:102EF000D3F8283123F007027B49039B1343C1F821
:102F00002831EBE0009B013B0B2B27D801A252F8A4
:102F100023F000BF572F00085D2F00085D2F000829
:102F20005D2F00085D2F00085D2F00085D2F000851
:102F30005D2F00084B2F0008452F0008452F000883
:102F4000512F0008012303930EE0022303930BE0AB
:102F50000323039308E00023039305E040F6AC014C
:102F6000604807F0F0F800BF5F4BD3F8403223F021
:102F700003025D49039B1343C1F84032AEE0009B5E
:102F8000023B0F2B2ED801A252F823F0CD2F0008C0
:102F9000E52F0008E52F0008E52F0008E52F0008C1
:102FA000D32F0008E52F0008E52F0008E52F0008C3
:102FB000E52F0008E52F0008E52F0008E52F0008A1
:102FC000E52F0008D92F0008DF2F00080323039303
:102FD0000EE0042303930BE00123039308E0022394
:102FE000039305E040F6E2013E4807F0ACF800BF6D
:102FF0003D4BD3F8603223F007023B49039B134358
:10300000C1F860326AE0009B023B0F2B2ED801A270
:1030100052F823F0553000086D3000086D3000087C
:103020006D3000086D3000085B3000086D3000081E
:103030006D3000086D3000086D3000086D300008FC
:103040006D3000086D3000086D30000861300008F8
:1030500067300008032303930EE0042303930BE07F
:103060000123039308E00223039305E040F6FA01ED
:103070001C4807F068F800BF1B4BD3F8943223F0CC
:1030800007021949039B1343C1F8943226E0009BC1
:10309000112B03D0009B152B03D005E001230393D4
:1030A00008E00223039305E04FF411610D4807F097
:1030B0004AF800BF0C4BD3F8703223F003020A49E0
:1030C000039B1343C1F8703208E040F642110548F3
:1030D00007F039F802E000BF00E000BF00BF04B015
:1030E00010BD00BFD4B200080080005000B585B00C
:1030F0000190019B1B680F2B04D940F66D31964857
:1031000007F021F8019B5B680F2B04D94FF437615E
:10311000914807F018F8019B9B680F2B04D940F6E3
:1031200073318D4807F00FF8019B1B7B0F2B04D9DF
:1031300040F67631884807F006F8019B5B7B0F2B41
:1031400004D940F67931844806F0FDFF019B9B7B52
:103150003F2B04D940F67C317F4806F0F4FF019BF9
:10316000DB7B3F2B04D940F67F317B4806F0EBFF39
:10317000019B1B69032B04D940F68231764806F087
:10318000E2FF019B5B69032B04D940F6853172484D
:1031900006F0D9FF019BDB69032B04D940F6883187
:1031A0006D4806F0D0FF8020FEF7DCFF0346032BBE
:1031B00000F01781694B03F580531A464FF48013D2
:1031C0005366674B45F60E02C3F88020644B03F547
:1031D00080531A464FF0A0639362614B03F500538E
:1031E0001A464FF48033936200BF5D4B9B6D03F42E
:1031F0008033002BF9D100BF594B9B6D03F0804306
:10320000002BF9D1019B1B681A06019B5B681B050B
:103210001A43019B1B7B1B041A43019B5B7B1B0313
:103220001A43019B9B7B9B011343019AD27B11465E
:103230004B4A0B4313614A4B9B6903F00042019BCD
:103240001B699B061A43019B5B691B061A43019B82
:103250001B7E1B041A43019B5B7E1B021343019AD6
:10326000927E11463E4A0B4393613D4B1B6A23F00D
:103270000F03019AD269002A01D1002200E008223E
:103280001A43019BDB7E9B001A43019BDB69344997
:1032900013430B62019BDB69002B67D1304B9A6AA9
:1032A000304B1340019A92F8202052011A43019B9F
:1032B00093F821301B011A43019B93F82430DB0063
:1032C0001343274A43F48033936200BF244B9A6D23
:1032D000254B1340244A9342F8D1214B03F58053E8
:1032E0001A464FF0807393621D4B1B6923F47002E2
:1032F000019B9B681B051A4913430B61184B03F58F
:1033000080531A464FF000439361019B93F822309B
:1033100083F00103DBB2002B06D0114B03F5005301
:103320001A464FF080739362019B93F8233083F029
:103330000103DBB2002B4AD0094B03F500531A46B8
:103340004FF48033936200BF054B9B6D03F08043C5
:10335000002BF9D13BE000BFD4B200080080005040
:103360000040005AC7FFFEFE03000100019BDB691D
:10337000022B12D11D4B00221A611C4B00229A61B4
:1033800002230393039B1A03039B1B0213431A4656
:103390004FF47F41164806F009FF144B9A6A154B0B
:1033A0001340019A92F8202052011A43019B93F88E
:1033B00022301B061A43019B93F82430DB001A438A
:1033C000019B93F823301B04084913438B62019B34
:1033D00093F82530002B05D0044B074AC3F8802012
:1033E00000E000BF05B05DF804FB00BF0040005ADC
:1033F0003440005AC7FFFEFEF1A7FFFF024B93F9CE
:1034000000301846704700BF9910002000B585B005
:103410000190019B5B68072B04D940F6B3514048EB
:1034200006F091FE019B9B68032B04D940F6B55131
:103430003B4806F088FE019B1B78032B04D940F61D
:10344000B751374806F07FFE019B5B785BB2002BDB
:1034500004DA40F6B951324806F075FE4F23039363
:10346000019B5B788DF80B309DF80B20039B9342FA
:1034700028BF13468DF80A302A4B03F580531A46AD
:103480004FF400035366284B4FF4D1525A62264B37
:1034900003F580531A4602235360234B03F5005370
:1034A0001A460123536000BF1F4B1B6903F480338E
:1034B000002BF9D1019B1B781A029DF80A301A499A
:1034C00013434B61019B5B681A02019B9B681B01C4
:1034D0001A43019B1B7B5B001343019A527B1146ED
:1034E000114A0B439360019B9B7B5A01019BDB7B41
:1034F0001B011A43019B1B7C5B001343019A527C06
:103500001A43094B5A60019B9B7C002B03D0064B4E
:103510006FF4D1525A6200BF05B05DF804FB00BFE2
:10352000D4B20008008000500000025082B0034670
:10353000ADF80630034ABDF80630138000BF02B074
:10354000704700BF9010002082B00346ADF80630EF
:10355000034ABDF80630138000BF02B0704700BFB9
:103560009210002000B585B00190009100230293D5
:10357000254BD3F8203203F00703042B2CD801A2EB
:1035800052F823F0D335000899350008A935000812
:10359000B7350008C535000802AB0021184600F019
:1035A00037F8122303931FE0FDF74CFD0346029307
:1035B0000723039318E006F0BEFD034602930A2397
:1035C000039311E0FDF7AEFD034602930923039335
:1035D0000AE00123039307E00023039341F2230150
:1035E0000A4806F0B0FD00BF019B002B02D0029AF2
:1035F000019B1A60009B002B02D0009B039A1A606B
:1036000000BF05B05DF804FB00800050D4B2000894
:1036100000B585B00190009100230393294BD3F8A6
:10362000283103F00703013B052B33D801A252F8E0
:1036300023F000BF4D3600087136000889360008B7
:1036400065360008593600087D360008FDF786FC0F
:1036500003900523029325E0FDF780FC03900623E9
:1036600002931FE0FDF7EEFC03900723029319E09D
:10367000FDF7C6FC03900323029313E0FDF7C0FCA3
:103680000390042302930DE0FDF7D6FC0390022380
:10369000029307E00023029341F264010A4806F016
:1036A00052FD00BF019B002B02D0019B039A1A60C0
:1036B000009B002B02D0009B029A1A6000BF05B04D
:1036C0005DF804FB00800050D4B2000800B585B05E
:1036D0000190009100230293244BD3F8603203F051
:1036E0000703013B032B29D801A252F823F000BFA6
:1036F00001370008113700082F370008213700086C
:1037000002AB0021184600F071F9102303931DE06D
:1037100002AB0021184600F0CBF91123039315E00A
:10372000FDF790FC03460293072303930EE0FDF799
:1037300083FC034602930223039307E000230393D1
:1037400041F2C8010A4806F0FEFC00BF019B002BB5
:1037500002D0029A019B1A60009B002B02D0009BB2
:10376000039A1A6000BF05B05DF804FB00800050AA
:10377000D4B2000800B585B00190009100230293F7
:10378000244BD3F8943203F00703013B032B29D8D1
:1037900001A252F823F000BFA9370008B93700088A
:1037A000D7370008C937000802AB0021184600F0DF
:1037B0001DF9102303931DE002AB0021184600F011
:1037C00077F91123039315E0FDF73CFC03460293C0
:1037D000072303930EE0FDF72FFC03460293022319
:1037E000039307E00023039341F2FB010A4806F02C
:1037F000AAFC00BF019B002B02D0029A019B1A6019
:10380000009B002B02D0009B039A1A6000BF05B0FA
:103810005DF804FB00800050D4B2000800B585B00C
:103820000190009100230293174BD3F8703203F0FC
:103830000303012B02D0022B08D00CE002AB0021C5
:10384000184600F035F9112303930CE0002302938E
:103850001523039307E00023039341F226110B483D
:1038600006F071FC00BF019B002B02D0029A019B65
:103870001A60009B002B02D0009B039A1A6000BFC5
:1038800005B05DF804FB00BF00800050D4B2000812
:10389000044B03F580531A464FF48033136700BF7F
:1038A000704700BF0080005008B58020FEF706F981
:1038B0000346064A934206D8054B03F500531A46C1
:1038C0004FF48033136700BF08BD00BF005A620287
:1038D0000080005000B585B0019000910023039353
:1038E0001B4BD3F8803003F00303032B12D0032BC0
:1038F00016D8012B02D0022B06D011E0FDF734FBC5
:1039000003900E23029313E0FDF79CFB0390072323
:1039100002930DE0FDF722FB03900623029307E0DC
:103920000023029341F2DF110A4806F00CFC00BFAD
:10393000019B002B02D0019B039A1A60009B002B75
:1039400002D0009B029A1A6000BF05B05DF804FB2C
:1039500000800050D4B2000800B585B001900091FD
:10396000002303931F4BD3F8003103F00303032B11
:103970001FD801A252F823F0AD3900088939000898
:1039800095390008A1390008FDF73AFB039003239D
:10399000029316E0FDF7C6FB03900923029310E0A3
:1039A00006F0C6FB0390082302930AE0012302936A
:1039B00007E00023029341F215210B4806F0C3FBF8
:1039C00000BF019B002B02D0019B039A1A60009B51
:1039D000002B02D0009B029A1A6000BF05B05DF870
:1039E00004FB00BF00800050D4B2000800B585B0D1
:1039F00001900091002303932B4BD3F8203103F067
:103A00000703062B37D801A252F823F0593A0008D1
:103A1000293A0008353A00084D3A0008413A0008B2
:103A20005F3A00086B3A0008FDF798FA0390052307
:103A3000029328E0FDF7E4FA03900323029322E0C7
:103A4000FDF700FB0390072302931CE0FDF7F4FA57
:103A500003900223029316E00123029313E0FDF783
:103A60007DFA0390062302930DE0FDF7C9FA039057
:103A70000423029307E00023029341F25C210B48E8
:103A800006F061FB00BF019B002B02D0019B039A53
:103A90001A60009B002B02D0009B029A1A6000BFA4
:103AA00005B05DF804FB00BF00800050D4B20008F0
:103AB00000B585B001900091002303931F4BD3F80C
:103AC000403103F00303032B1FD801A252F823F067
:103AD000053B0008E13A0008ED3A0008F93A000811
:103AE00006F029FB03900A23029316E0FDF71AFB68
:103AF00003900923029310E006F021FB03900C23AE
:103B000002930AE00123029307E00023029341F2AB
:103B10008E210B4806F017FB00BF019B002B02D043
:103B2000019B039A1A60009B002B02D0009B029A13
:103B30001A6000BF05B05DF804FB00BF00800050B4
:103B4000D4B2000800B585B0019000910023039322
:103B50001F4BD3F8603103F00303032B1FD801A2DE
:103B600052F823F0993B0008753B0008813B0008A0
:103B70008D3B000806F0DFFA03900A23029316E05B
:103B8000FDF7D0FA03900923029310E006F0D7FA6C
:103B900003900C2302930AE00123029307E0002321
:103BA00002934FF496510B4806F0CDFA00BF019BEB
:103BB000002B02D0019B039A1A60009B002B02D0BD
:103BC000009B029A1A6000BF05B05DF804FB00BFBD
:103BD00000800050D4B2000884B0019000914FF4EE
:103BE00040130393009B002B0AD1019B0D4A934283
:103BF00003D94FF4801303930FE0002303930CE0E9
:103C0000009B002B09DD019B074A934203D94FF427
:103C10008013039301E000230393039B184604B031
:103C2000704700BF005A6202002D310100B585B017
:103C300001900091184B03F580531A464FF48033DE
:103C400093660020FDF7B2FD0246019B02FB03F3E1
:103C50000193FDF77DFD03468DF80F30FDF78EFDD6
:103C6000FDF794FD034623F4401302930099019855
:103C7000FFF7B2FF0246029B134302930298FDF73F
:103C80008BFD9DF80F30002B01D0FDF76FFD00BFBD
:103C900005B05DF804FB00BF0080005000B585B0A2
:103CA00001900091002302931D4BD3F8803103F063
:103CB0000303032B0ED0032B1AD8012B02D0022BA7
:103CC0000FD015E002AB00211846FFF78FFE10233E
:103CD000039315E0FDF7B6F9034602930723039318
:103CE0000EE0FDF7A9F9034602930223039307E0D0
:103CF0000023039341F2B1310A4806F024FA00BFD1
:103D0000019B002B02D0029A019B1A60009B002BA2
:103D100002D0009B039A1A6000BF05B05DF804FB57
:103D200000800050D4B2000800B583B00223019394
:103D30004FF4C070FDF7C2FE0346074A934201D814
:103D40000123019301994FF42070FDF7A5FD00BFF9
:103D500003B05DF804FB00BF80F0FA0200B585B047
:103D600001900091002303931F4BD3F8403203F0DE
:103D70000303032B1FD801A252F823F0B13D000822
:103D80008D3D0008993D0008A53D000806F0D3F9D7
:103D900003900A23029316E0FDF7C4F90390092368
:103DA000029310E006F0CBF903900C2302930AE093
:103DB0000123029307E00023029341F22E410B48B6
:103DC00006F0C1F900BF019B002B02D0019B039AB2
:103DD0001A60009B002B02D0009B029A1A6000BF61
:103DE00005B05DF804FB00BF00800050D4B20008AD
:103DF00000B585B00190009100230393244BD3F8C4
:103E0000003203F00703042B29D801A252F823F053
:103E1000593E0008253E0008313E00083D3E00089E
:103E2000493E000806F087F903900A2302931EE03A
:103E3000FDF778F903900923029318E006F07FF963
:103E400003900C23029312E0FDF7B6F803469B0A99
:103E500003930F2302930AE00123029307E0002358
:103E6000029341F26F410B4806F06DF900BF019BD0
:103E7000002B02D0019B039A1A60009B002B02D0FA
:103E8000009B029A1A6000BF05B05DF804FB00BFFA
:103E900000800050D4B2000800B585B001900091B8
:103EA00000230393244BD3F8083203F00703042BB9
:103EB00029D801A252F823F0013F0008CD3E0008A6
:103EC000D93E0008E53E0008F13E000806F033F94F
:103ED00003900A2302931EE0FDF724F903900923BF
:103EE000029318E006F02BF903900C23029312E0E2
:103EF000FDF762F803469B0A03930F2302930AE03F
:103F00000123029307E00023029341F2A7410B48EB
:103F100006F019F900BF019B002B02D0019B039A08
:103F20001A60009B002B02D0009B029A1A6000BF0F
:103F300005B05DF804FB00BF00800050D4B200085B
:103F400000B585B00190009100230393114B1B68CD
:103F500003F00403002B06D0FDF72EF8034603936D
:103F60000D23029305E002AA03AB11461846FFF7A2
:103F70009FFD019B002B02D0039A019B1A60009BBE
:103F8000002B02D0029A009B1A6000BF05B05DF8BA
:103F900004FB00BF10E000E0024B034A1A6400BFBC
:103FA000704700BF004009503254FFFF024B4AF6F1
:103FB000CD321A6400BF70470040095082B00190B2
:103FC00000BF054B5A6B019B1340002BF9D100BF7A
:103FD00000BF02B0704700BF0040095008B500BFE5
:103FE0000421044806F07CF90346002BF8D100BFF9
:103FF00000BF08BD8440005008B5FFF7EFFF044B39
:10400000D3F884309B0903F00303DBB2184608BDE4
:104010000040005082B00190044B03F500531A4653
:10402000019BC2F8203400BF02B0704700C00350AB
:1040300000B583B00190019B1A78054B1A700121DD
:10404000002000F077F800BF03B05DF804FB00BF6C
:104050003411002082B00190064B5B6F23F4407254
:10406000019B5B781B02034913434B6700BF02B0FF
:10407000704700BF0040005000B583B003468DF884
:1040800007300F4B1B690E4A43F00403136103F022
:1040900025FF06F040F90B48FFF7BCFF30BF06F0E4
:1040A0003CF903F065FF9DF8073083F00103DBB2B4
:1040B000002B01D006F00FF900BF03B05DF804FB40
:1040C00000ED00E00000FF0F00B583B003468DF85F
:1040D00007300D4B1B690C4A43F0040313610B4876
:1040E000FFF798FF03F0FAFE30BF03F041FF9DF8A1
:1040F000073083F00103DBB2002B01D006F0EBF8B0
:1041000000BF03B05DF804FB00ED00E00000FF0F0E
:1041100082B00190064BDB6E23F03003019A1279D6
:104120001146034A0B43D36600BF02B0704700BF7D
:104130000040005000B585B001900B468DF803306B
:10414000019B002B03D1FCF70FFF039001E0019BC3
:1041500003930D4B1B78002B0AD0039B0B4A934211
:1041600006D89DF803301946012000F011F806E04A
:104170009DF803301946022000F00AF800BF00BF86
:1041800005B05DF804FB00BF34110020005A620244
:1041900010B586B003460A468DF8073013468DF8F1
:1041A0000630FFF729FF03461A469DF80730934271
:1041B00052D0FCF7D9FE0590059B04939DF807307B
:1041C000012B0CD1049B264A934204D940F29271F0
:1041D000244805F0B8FF0121059806F025F806F0FF
:1041E00049F80390204B03F500531A464FF0007333
:1041F00053669DF80730184606F095F81A4C9DF85E
:104200000730184606F079F8034623670BE0164B93
:10421000D3F8843003F02003002B04D04FF4F46172
:10422000104805F090FF104B5B6E03F00073002BFD
:1042300006D10D4BD3F8843003F02003002BE6D0D9
:10424000039806F023F89DF80730022B05D10021D2
:10425000059805F0E9FF00E000BF06B010BD00BF03
:10426000005A620208B300080040005000B587B051
:1042700003468DF807300023059300230493404B39
:1042800003F580531A464FF0004353663D4B5B6C79
:1042900003F00103002B14BF012300238DF80F301E
:1042A000FFF784FE9DF80730002B28D10120FFF78F
:1042B00085FE344B5B6803F001030293029B002BE5
:1042C00050D0304B03F500531A460123536002E0EF
:1042D000049B013304932B4B1B6B03F00103002B56
:1042E00003D1049B284A9342F2D9049B264A934265
:1042F00038D90723059335E0049B01330493214B00
:104300001B6B03F00803002B03D0049B1E4A93424F
:10431000F2D9049B1C4A934202D90723059321E05A
:10432000184B03F500531A4620239362154B03F5EF
:1043300080531A46012353600023049302E0049B38
:10434000013304930F4B9B6A03F02003002B03D12E
:10435000049B0D4A9342F2D9049B0B4A934201D924
:10436000072305939DF80F30002B01D0FFF714FEB3
:1043700005F0E0FF059B184607B05DF804FB00BFA1
:1043800000800050004009503F420F0000B585B04A
:104390000190254B03F580531A464FF000435366B6
:1043A000224B5B6C03F00103002B14BF012300239D
:1043B0008DF80F30FFF7FAFD019B5B785B001C4A1C
:1043C00043F00103D3630B20FFF7F8FD174B5B6845
:1043D00023F4F872019B9B781B01144913434B6033
:1043E000019BDB781B02019A527911460F4A0B435D
:1043F0009360019B1B791B02019A927911460B4A2B
:104400000B431361019B1B781846FFF72FFF9DF8A4
:104410000F30002B01D0FFF7BFFD05F08BFF01230C
:10442000184605B05DF804FB0080005000400950BC
:104430000040005000B585B0019000238DF80F308A
:1044400000238DF80E30019B0F2B04D940F62D610F
:10445000224805F078FE019B0F2B01D90F23019311
:104460001F4B5B6EDB0F8DF80E301D4B03F5805339
:104470001A464FF0004353661A4B5B6C03F001037E
:10448000002B14BF012300238DF80F30FFF78EFDA2
:104490008020FFF793FD134B1B6A23F00F02114995
:1044A000019B13430B629DF80F30002B01D0FFF7E7
:1044B00073FD9DF80E3083F00103DBB2002B06D0B4
:1044C000074B03F500531A464FF00043536605F0BF
:1044D00031FF00BF05B05DF804FB00BF08B3000862
:1044E000008000500040095000B583B003460091A1
:1044F0008DF807309DF80730002B14D09DF8073059
:10450000012B0ED09DF80730022B07D09DF8073005
:10451000032B01D13F2307E0002305E040F2FF33E6
:1045200002E00F2300E0FF23009AD34003F00103D1
:10453000002B04D140F2FE310A4805F004FE0A487F
:104540009DF807200121009B994013465B0013440E
:104550001B01034403F50153196000BF03B05DF86C
:1045600004FB00BF70B3000800C0035000B583B067
:10457000034600918DF807309DF80730002B14D0CA
:104580009DF80730012B0ED09DF80730022B07D085
:104590009DF80730032B01D13F2307E0002305E0FE
:1045A00040F2FF3302E00F2300E0FF23009AD340E4
:1045B00003F00103002B04D140F22D410A4805F01D
:1045C000C2FD0A489DF807200121009B994013462F
:1045D0005B0013441B01034403F58253196000BFC1
:1045E00003B05DF804FB00BF70B3000800C00350C7
:1045F00000B585B002910192009303468DF80F300B
:104600009DF80F30002B14D09DF80F30012B0ED0E9
:104610009DF80F30022B07D09DF80F30032B01D1EE
:104620003F2307E0002305E040F2FF3302E00F23C1
:1046300000E0FF23029AD34003F00103002B04D1D2
:104640004FF4B071304805F07EFD019B002B0FD078
:10465000009B002B06D09DF80F3002991846FFF7FB
:1046600085FF05E09DF80F3002991846FFF73CFFE3
:10467000029B072B17D89DF80F2013465B001344AD
:104680001B011A1D214B1344029A92000F2101FABB
:1046900002F0029A9200019901FA02F201461846CC
:1046A00005F04AFE19E09DF80F2013465B00134405
:1046B0001B0103F10C02154B1344029A083A9200B5
:1046C0000F2101FA02F0029A083A9200019901FAC8
:1046D00002F20146184605F02FFE019B002B0FD178
:1046E000009B002B06D09DF80F3002991846FFF76B
:1046F0003DFF05E09DF80F3002991846FFF7F4FEE4
:1047000000BF05B05DF804FBA8B3000830C003503B
:1047100000B587B0039002910192029B1F2B03D931
:1047200091210C4805F00FFD019B002B04D0039B49
:1047300003F58053059303E0039B03F500530593B2
:10474000059B0121029A01FA02F21A6000BF07B02C
:104750005DF804FBE0B3000800B589B00390029156
:1047600001928DF80330019B002B04D140F215110A
:104770005B4805F0E8FC019B002B00F0AD809DF844
:10478000033003F003038DF80330039B9B6823F48D
:104790004072039B9A60039B03F108009DF803306D
:1047A0001B021A464FF4407105F0F1FD029B002BED
:1047B00016D1039BB3F1B64F04D12E20FDF77EF93D
:1047C00002900DE0039B474A934204D12F20FDF74E
:1047D00075F9029004E040F22F11414805F0B3FC56
:1047E0004FF0FF330793039B9B6803F00203002BFA
:1047F00013D09DF80330022B0CD0022B21DC002BB0
:1048000002D0012B03D01CE0374B07931CE0374B41
:10481000079319E0364B079316E09DF80330022BFF
:104820000CD0022B0FDC002B02D0012B03D00AE0AE
:104830002D4B079308E02F4B079305E02E4B079372
:1048400002E000BF00E000BF029A079B9A4204D832
:104850004FF4B271224805F076FC9DF80330274AE8
:10486000D35C0593059B019A02FB03F30493049B1D
:10487000002B05D140F27511194805F064FC2CE0BD
:10488000019BDB00029AD21A049B13445A1E049B1C
:10489000B2FBF3F3013B0693069B002B04DA40F2D4
:1048A0007B110F4805F04FFC069BB3F5007F04D346
:1048B0004FF4BE710A4805F046FC039B9B6803F069
:1048C0000203002B04D0069B002B01D10123069389
:1048D000069A039B9A6100E000BF09B05DF804FBF3
:1048E00014B400080080065080841E00404B4C0029
:1048F000809FD50040548900002D310148B4000844
:1049000000B583B001900B468DF80330019BB3F1E5
:10491000B64F08D0019B0A4A934204D040F2951149
:10492000084805F010FC019B04339DF8032000218A
:104930001846FFF7EDFE00BF03B05DF804FB00BFB3
:104940000080065014B4000800B583B001900091B7
:10495000019BB3F1B64F08D0019B174A934204D094
:104960004FF4D571154805F0EEFB019B00221A6447
:104970001349019805F0FFFC019B03F10800009B1F
:104980005B7883F00103DBB21A460121FFF7C0FE1A
:10499000009B5968009B9A68009B1B7B0198FFF75E
:1049A000DBFE009B1B7819460198FFF7A9FF00BFAB
:1049B00003B05DF804FB00BF0080065014B400088B
:1049C000FFFF1F0000B58BB0019000238DF81F3052
:1049D000019BB3F1B64F08D0019BA04A934204D08B
:1049E00040F201219E4805F0AEFB019BB3F1B64FAA
:1049F00002D19C4B089309E0019B984A934202D153
:104A0000994B089302E06FF003033CE2089B9B681C
:104A100006931BE2019BDB6B0593059B03F4C063CC
:104A2000002B14D0059B03F40073002B03D0089BCC
:104A3000FD225A7007E0059B03F48063002B02D02F
:104A4000089BFE225A70089B09221A7006E2089BF6
:104A50001B78082B00F2EF8101A252F823F000BF6F
:104A6000854A0008DD4A00086D4B0008C94B000864
:104A7000374C0008A34C0008374D00087F4D000854
:104A8000154E0008069B5B8803F01003002B09D02D
:104A9000069B1B881B0A9BB203F0060343F0F0033E
:104AA00009930EE0069B1B8803F0FE030993069B07
:104AB0005B8803F00203002B03D0099B43F0010342
:104AC0000993089B01221A70019B099A5A63019B62
:104AD0000122DA6001238DF81F30B7E1059B03F056
:104AE0008003002B0DD08021019805F044FC089B29
:104AF000FF225A70089B08221A70019B0222DA607A
:104B000030E0059B03F04003002B2BD0402101989F
:104B100005F031FC069B5B8803F01003002B08D0E6
:104B2000089B02221A70069B1B88DAB2019B5A630B
:104B300018E0069B5B8803F00203002B0ED0089B55
:104B400007221A70089B1B79069ADB0013441B8905
:104B5000012B07D1019B0822DA6003E0089B0522A4
:104B60001A7073E101238DF81F306FE1059B03F08C
:104B70008003002B0DD08021019805F0FCFB089BE1
:104B8000FF225A70089B08221A70019B0222DA60E9
:104B900016E0059B03F04003002B11D04021019843
:104BA00005F0E9FB069B5B8803F00203002B03D0B2
:104BB000089B03221A7049E1089B05221A7045E1FF
:104BC00001238DF81F3041E1069B5B8803F0100341
:104BD000002B09D0069B1B881B0A9BB203F006031F
:104BE00043F0F003099304E0069B1B8803F0FE03E7
:104BF0000993069B5B8803F00403002B0ED0099BEE
:104C000043F001030993089B1B79069ADB001344C8
:104C10001B89012B02D1019B0822DA60089B042228
:104C20001A70019B0122DA60019B099A5A630123E1
:104C30008DF81F300AE1059B03F08003002B15D08F
:104C40008021019805F097FB089BFF225A70089B72
:104C500008221A70019B0222DA601EE000800650D2
:104C600014B400083811002044110020059B03F003
:104C70004003002B11D04021019805F07CFB069BDE
:104C80005B8803F00403002B03D0089B07221A70F3
:104C900003E0089B05221A70D8E001238DF81F302D
:104CA000D4E0089B5A88089B1B790699DB000B44CB
:104CB0001B899A4227D3089B00225A80089B1B79A4
:104CC0000133DAB2089B1A71069B5B8803F0040378
:104CD000002B03D0089B03221A70B7E0069B5B8869
:104CE00003F00103002B04D1089B1B79012B40F238
:104CF000AC80089B08221A70019B0222DA60012313
:104D00008DF81F30A2E0089B1B79069ADB00134444
:104D10005A68089B5B88591C88B2089948801344DC
:104D20001B781A46019B5A63089B06221A700123BE
:104D30008DF81F308AE0059B03F08003002B0DD017
:104D40008021019805F017FB089BFF225A70089BF1
:104D500008221A70019B0222DA600CE0059B03F026
:104D60004003002B07D04021019805F004FB089B6D
:104D700005221A706AE001238DF81F3066E0059B5A
:104D800003F02003002B41D0089B1B79069ADB001F
:104D900013441B890493019B5B6A8DF80F3020211B
:104DA000019805F0E8FA089B5B881A46049B934239
:104DB0000FD9089B1B79069ADB0013445A68089B9D
:104DC0005B88591C88B20899488013449DF80F20CD
:104DD0001A70089B5B881A46049B934206D8089B6E
:104DE00008221A70019B0222DA600FE0019B042264
:104DF000DA60049B012B09D9089B5B881A46049B47
:104E0000013B9A4202D1019B0822DA6001238DF80E
:104E10001F301BE0059B03F48073002B07D04FF479
:104E20008071019805F0A7FA089B09221A700123E6
:104E30008DF81F300AE0089BFB225A70089B09225C
:104E40001A7001238DF81F3000E000BF9DF81F305D
:104E500083F00103DBB2002B7FF4DCAD089B1B78F1
:104E6000092B0BD1019B00221A64089B93F9013096
:104E7000012B05D1089B00225A7001E0012302E0BA
:104E8000089B93F9013018460BB05DF804FB00BF96
:104E900000B585B001900091019BB3F1B64F08D0E9
:104EA000019B344A934204D040F26931324805F004
:104EB0004AF9009B002B04D140F26A312E4805F0DC
:104EC00042F9019BB3F1B64F02D12C4B039309E099
:104ED000019B284A934202D1294B039302E06FF0D1
:104EE000030342E0019B1B6903F00103002B02D086
:104EF000019B2022DA60009B5B8803F00203002BF9
:104F000003D0009B1B89002B09D0009B5B8803F01A
:104F10000403002B06D0009B1B8A002B02D16FF0EC
:104F2000030322E0039B00221A70039B01225A70A4
:104F3000039B00225A80039B00221A71039B009A54
:104F40009A60019BC022DA60019805F03AFA0D4997
:104F5000019805F010FA019B1B6C43F4FC62019B65
:104F60001A640198FFF72EFD0346184605B05DF858
:104F700004FB00BF0080065014B400083811002064
:104F800044110020FFFF1F0082B0019000BF019B71
:104F90005B6903F08073002BF9D1019B03F500538B
:104FA0001A460123536000BF044B5B6803F0020301
:104FB000002BF9D100BF00BF02B07047004000597C
:104FC00030B5A5B00590049103924FF000031C93F7
:104FD000B54B07AC1D460FCD0FC495E8030084E820
:104FE0000300059BB14A934203D0F121B04805F07C
:104FF000AAF80022AF49059800F0B2FD03468DF8EB
:105000008730049B5B79ADF86E309DF887309BB29A
:10501000BDF86E209A4203D3BDF86E308DF887300C
:105020000598FFF7B1FF049B1B798DF886309DF83A
:105030008630002B14D12A20FCF740FD1F901F9BC7
:105040009C4A934205D39DF887301F9AB2FBF3F335
:105050001F931F99059800F033FD03468DF88630A5
:10506000049BDB781B0103F030029DF886301B04A3
:1050700003F4FE031A439DF887301B0703F0E04357
:1050800013432393049B1B78002B03D0239B43F0F3
:1050900002032393049B5B78002B03D0239B43F0F4
:1050A00004032393049B9B78002B03D0239B43F0A2
:1050B00008032393059B239A9A60049BDB881A4676
:1050C000059B1A61049B1B891B04049A52891A438D
:1050D000059B1A620023229300F012BC0399229AC6
:1050E00013469B0013449B000B441B788DF86D30D6
:1050F0000399229A13469B0013449B000B440833E8
:105100001B68ADF86E309DF86D30002B07D09DF810
:105110006D30012B01D1684902E0684900E068491F
:105120009DF86D209DF88730009313460022059866
:1051300000F05CFD1A901A9B1993BDF86E30ADF823
:105140006230BDF86220199B934238BF13461A9310
:10515000059A229B1B01134448331A68594B13408C
:1051600023939DF86D3003F00302239B42EA030171
:105170000398229A13469B0013449B000344013377
:105180001B789B0003F01C0319430398229A1346D3
:105190009B0013449B00034402331B785B01DBB28A
:1051A00019430398229A13469B0013449B0003441F
:1051B00003331B781B0303F4E04319430398229A3B
:1051C00013469B0013449B00034404331B781B04C9
:1051D00003F4E02319430398229A13469B001344D7
:1051E0009B00034410331B785B0503F460031943F1
:1051F0000398229A13469B0013449B0003440533F3
:105200001B781B0703F0405341EA03020599229BD8
:105210001B010B4448331A60059A229B1B0113445F
:1052200048331B681B0B03F007031793179B013BC5
:10523000042B27D801A252F823F000BF51520008D6
:10524000515200085D5200086B5200087752000866
:105250001D4BD3F88031ADF8843019E01A4BD3F8E8
:1052600080311B0CADF8843012E0174BD3F8843139
:10527000ADF884300CE0144BD3F884311B0CADF83E
:10528000843005E0104BD3F88031ADF8843000BF96
:105290009DF86D30012B02DC002B17DA1DE3022B89
:1052A00000F0C68119E300BF84B400080040005933
:1052B0004CB40008005A6202002D3101404B4C00F2
:1052C00080969800008F18CF0080E00F4FF0000309
:1052D0001E93179B032B1BD19DF86D30002B0BD118
:1052E000C64BD3F88C311B0C1BB207EE903AF8EE8C
:1052F000E77ACDED1E7A52E0C04BD3F894311B0C07
:105300001BB207EE903AF8EEE77ACDED1E7A46E052
:10531000179B042B1DD19DF86D30002B0CD1B74B82
:10532000D3F88C311B0C1BB25B0007EE903AF8EE01
:10533000E77ACDED1E7A32E0B04BD3F894311B0CF6
:105340001BB25B0007EE903AF8EEE77ACDED1E7ADD
:1053500025E0179B052B22D19DF86D30002B0FD136
:10536000A64BD3F88C311B0C1BB21A4613465B00BC
:10537000134407EE903AF8EEE77ACDED1E7A0EE090
:105380009E4BD3F894311B0C1BB21A4613465B009C
:10539000134407EE903AF8EEE77ACDED1E7ABDF8A9
:1053A000842049F6FF7313402393239B9B041D9392
:1053B000239B03F40043002B03D01D9B43F00043C9
:1053C0001D93059A229B1B01134448331B689B08BD
:1053D00003F007030133012202FA03F30E930E9B3D
:1053E000022B21D19DF86D30002B0ED1834BD3F8C9
:1053F0008C311BB207EE903AF8EEE77A9DED1E7AFB
:1054000077EE277ACDED1E7A50E07C4BD3F89431BD
:105410001BB207EE903AF8EEE77A9DED1E7A77EE32
:10542000277ACDED1E7A41E09DF86D30002B0ED12C
:10543000724BD3F890311BB207EE903AB8EEE77A90
:10544000DDED1E7A77EE677ACDED1E7A11E06B4BBB
:10545000D3F898311BB207EE903AB8EEE77ADDED5B
:105460001E7A77EE677A9DED1E7A77EE277ACDED7C
:105470001E7A0E9B07EE903AF8EEE77AF0EE006A9D
:1054800087EEA67ADDED1E6AC6EE877ACDED1E7A2E
:105490005A4BD3F888311BB207EE903AF8EEE77A10
:1054A0009DED1E7A77EE277ACDED1E7A0399229A2A
:1054B00013469B0013449B000B4404331B78002BC2
:1054C0001ED10399229A13469B0013449B000B4460
:1054D00004331B78184600F0F9FB07EE900AF8EE4B
:1054E000677ADFED4B6A87EEA67AF7EE046AC6EEBE
:1054F000877A9DED1E7A67EE277ACDED1E7A1AE047
:105500000399229A13469B0013449B000B440C33CF
:105510001B6807EE903AF8EE677ADFED3D6A87EE9A
:10552000A67AF7EE046AC6EE877A9DED1E7A67EEDC
:10553000277ACDED1E7ADDED1E7AB1EE007A27EEE8
:10554000877A0E9B07EE903AF8EEE76A9FED2C6A99
:10555000C6EE267ADFED2B6A67EEA67A77EE277A1B
:10556000CDED1E7A1D9BB3F1004F17D0BDF88430EE
:1055700007EE903AF8EEE77ADFED236A87EEA67A37
:10558000DDED1E7ADFED216A77EEA67A67EE277AE7
:105590009FED1E7A77EEC77ACDED1E7ADDED1E7A8D
:1055A000F5EEC07AF1EE10FA0ADDDDED1E7AF1EECD
:1055B000677AB6EE007A77EEC77AFDEEE77A07E013
:1055C000B6EE007ADDED1E7A77EE677AFDEEE77AC9
:1055D000CDED0D7A0D9BB3F5003F06DB1D9B6FEA09
:1055E00053436FEA43431D931AE00D9B13F5003FAD
:1055F00010DA1D9B43F400331D9311E00080E00F8F
:1056000000008043000020440000004700000049E3
:1056100000007A440D9BC3F311031D9A13431D939D
:10562000059A229B05331B0113441D9A1A605AE107
:105630000399229A13469B0013449B000B440433A6
:105640001B78184600F042FB07EE900AB8EE677A26
:105650005FED116AC7EE267ACDED1C7A059A229B82
:105660001B01134448331B685B09DBB203F00703DB
:105670008DF85B309DF85B309B0090336B44743B3E
:10568000D3ED007AFCEEE77A17EE903A5C2B02D16C
:10569000A44B209317E09DF85B309B0090336B4444
:1056A000743BD3ED006A9DF85B309B0090336B44F4
:1056B000743BD3ED007AB7EE007A37EE877AC6EE08
:1056C000877ACDED207ABDF8843007EE903AB8EEB7
:1056D000677ADFED956AC7EE267A9DED207A67EE50
:1056E000277ACDED157ADDED157A9FED8F7A67EE8D
:1056F000877AF5EEC07AF1EE10FA0CD5DDED157A69
:105700009FED897A67EE877AB6EE007A77EEC77AF0
:10571000FDEEE77A0BE0DDED157A9FED837A67EE1B
:10572000877AB6EE007A77EE877AFDEEE77ACDEDEE
:10573000147A7E4A229B05331B0113441B687B4A63
:10574000229B05331B01134400221A60149B03F4AF
:105750000043002B0ED0754A229B05331B011344D6
:105760001B68724943F00042229B05331B010B4426
:105770001A600BE06D4A6D49229B05331B011344EF
:105780001A68229B05331B010B441A60674A229B4F
:1057900005331B0113441A68149B9904644B0B4096
:1057A00062491A43229B05331B010B441A60614B6B
:1057B000D3F88831002313935E4BD3F888311BB2A2
:1057C00007EE903AF8EEE77ACDED127A9DF85B306D
:1057D000012202FA03F3139A92FBF3F307EE903AD5
:1057E000F8EEE77A9DED127A77EE277ACDED117A11
:1057F000F7EE046A9DED1C7AC6EE877A9DED117A6C
:1058000067EE277ACDED117A9DF85B309B009033DF
:105810006B44743BD3ED007A9FED477AC7EE276A5D
:105820009DF85B309B0090336B44743BD3ED007A62
:10583000B7EE007A77EE877A86EEA77ADDED117AF9
:10584000F1EE006A67EEA67A77EE277A9FED3B7A53
:1058500077EE877ACDED107ABDF8843007EE903A76
:10586000B8EEE77ADFED306AC7EE267AB1EE677AF6
:10587000DDED107A67EE277A9FED307A77EE877A42
:10588000CDED107ADDED107AF5EEC07AF1EE10FA7A
:1058900008D5DDED107AB6EE007A77EEC77AFDEE28
:1058A000E77A07E0DDED107AB6EE007A77EE877AD8
:1058B000FDEEE77ACDED0F7A1C4A229B05331B01E2
:1058C00013441A680F9BC3F3110318491A43229B10
:1058D00005331B010B441A6005E040F2F111184832
:1058E00004F031FC00BF1A9BC3F309020599229B07
:1058F00005331B010B4404331A60229B01332293AE
:10590000059B0A4A934201D1022200E00022229B19
:105910009A423FF6E3AB059804F070FD00BF25B056
:1059200030BD00BFE71B753F000000470040005935
:105930000000FC7F0080E00F00008048000000496C
:105940004CB4000800B587B0039002910192039B0C
:10595000594A934204D040F21721584804F0F3FB0F
:105960000398FFF711FB029B1B7803F00703029AD1
:105970005278002A01D0082200E000221A43029B3C
:105980009B781B0103F070031343029AD278002A1C
:1059900002D04FF4807200E000221A43039BC3F848
:1059A0008020039BDB6A23F01702029B1B7903F024
:1059B00007031A43029B5B791B0103F010031A4390
:1059C000039BDA620023059336E00199059A13469A
:1059D0009B0013440B441B7818460199059A134603
:1059E0009B0013440B4401331B781B029BB240EA1B
:1059F00003010198059A13469B00134403440233A4
:105A00001B781B0403F4803319430198059A13464D
:105A10009B001344034403331B78002B02D04FF444
:105A2000003300E000231943039B059A283243F812
:105A30002210059B01330593039B1F4A934201D11A
:105A4000102200E00022059B9A42BED8039804F081
:105A5000D5FC002304930023059313E00199059AD4
:105A600013469B0013440B4404331B78002B06D0D1
:105A70000122059B02FA03F3049A13430493059B46
:105A800001330593039B0C4A934201D1102200E09D
:105A90000022059B9A42E1D8039B049A9A61029BDB
:105AA0009B79002B03D00821039804F09EFC00BFD3
:105AB00007B05DF804FB00BF004000594CB400087B
:105AC00000B587B001900091019B214A934204D018
:105AD00040F26F311F4804F036FB009B002B18D1B9
