S01A00007065726970686572616C5F6578616D706C65732E733337F0
S31508000000001000202D0F00088B9F00088B9F00080A
S315080000108B9F00088B9F00088B9F00088B9F00080A
S315080000208B9F00088B9F00088B9F00088B9F0008FA
S315080000308B9F00088B9F00088B9F00088B9F0008EA
S315080000408B9F00088B9F00088B9F00088B9F0008DA
S315080000508B9F00088B9F00088B9F00088B9F0008CA
S315080000608B9F00088B9F00088B9F00088B9F0008BA
S315080000708B9F00088B9F00088B9F00088B9F0008AA
S315080000808B9F00088B9F00088B9F00088B9F00089A
S315080000908B9F00088B9F00088B9F00088B9F00088A
S315080000A08B9F00088B9F00088B9F00088B9F00087A
S315080000B08B9F00088B9F00088B9F00088B9F00086A
S315080000C08B9F00088B9F00088B9F00088B9F00085A
S315080000D08B9F00088B9F00088B9F00088B9F00084A
S315080000E08B9F00088B9F00088B9F00088B9F00083A
S315080000F0BDA300088B9F00088B9F00088B9F0008F4
S315080001008B9F00084D0600088B9F00088B9F0008F0
S315080001108B9F00088B9F00088B9F00088B9F000809
S315080001208B9F00088B9F00088B9F00088B9F0008F9
S315080001308B9F00088B9F00088B9F00088B9F0008E9
S315080001408B9F00088B9F00088B9F000801A9000859
S315080001508B9F00088B9F00088B9F00088B9F0008C9
S315080001608B9F00088B9F00088B9F00088B9F0008B9
S31508000170013800D0FCE770470348044B834202D09D
S31508000180034B03B118477047F8100020F8100020F9
S3150800019000000000064B0749C91A891048BF0131FB
S315080001A0491003D0044B0BB101481847704700BFEC
S315080001B0F8100020F81000200000000010B5064CCA
S315080001C0237843B9FFF7D8FF044B13B10448AFF3BC
S315080001D000800123237010BD4E130020000000008C
S315080001E0E0B6000808B5054B1BB105490548AFF34D
S315080001F00080BDE80840FFF7CDBF00BF0000000043
S31508000200F8100020E0B60008A3F5803A704700BF52
S31508000210174B002B08BF134B9D46FFF7F5FF002130
S315080002208B460F461348144A121A0AF049FC0E4B1D
S31508000230002B00D098470D4B002B00D09847002084
S31508000240002104000D000D48002802D00C48AFF329
S31508000250008009F069F82000290009F0AFFC08F0D1
S31508000260A9FE00BF00000800000000000000000012
S3150800027000100020F81000206C1300200000000079
S315080002800000000000B583B0034600918DF80730E2
S315080002909DF80730002B14D09DF80730012B0ED09F
S315080002A09DF80730022B07D09DF80730032B01D1A4
S315080002B03F2307E0002305E040F2FF3302E00F2367
S315080002C000E0FF23009AD34003F00103002B04D17A
S315080002D040F2CF310A4809F07DFE9DF80720134603
S315080002E05B0013441B0103F11402064B13440099E7
S315080002F0184609F001FC0346184603B05DF804FBEE
S3150800030000AF000830C0035000B583B000230422B4
S315080003100221032004F020FA09F05DFC00238DF881
S31508000320043003238DF8053001AB1946034800F065
S3150800033069F800BF03B05DF804FB00BF1011002088
S3150800034000B585B0002304220221032004F004FA34
S3150800035002210320FFF796FF0390012304220221BE
S31508000360032004F0F9F902210320FFF78BFF02901E
S31508000370074800F0A5F90346ADF80630044809F029
S3150800038011FC044800F0E0F900BF05B05DF804FB75
S31508000390101100201811002082B003468DF807308E
S315080003A09DF90730002B0CDB9DF8073003F01F0280
S315080003B005499DF907305B09012000FA02F241F868
S315080003C0232000BF02B0704700E100E082B0034678
S315080003D08DF807309DF90730002B0DDB9DF80730A7
S315080003E003F01F0206499DF907305B09012000FA50
S315080003F002F2603341F8232000BF02B0704700BF05
S3150800040000E100E030B595B003900291039B1B68AC
S31508000410002B54D1039B09221A7100238DF84F3003
S3150800042049E09DF84F20814913469B0013440B442D
S3150800043004331B7883F00103DBB2002B36D0039B11
S315080004409DF84F201A71039B029A1A609DF84F2057
S31508000450764913469B0013440B44043301221A7051
S315080004609DF84F20714913469B0013440B44012203
S315080004701A70039B1B681A78039B1B685B789DF8A8
S315080004804F401946104609F071FB03461946674A5C
S3150800049023469B002344134401330A461A70644BCF
S315080004A01B780133DAB2624B1A7008E09DF84F30B8
S315080004B001338DF84F309DF84F30072BB1D9039B88
S315080004C01B79092B00F0AE8010AB00221A605A6027
S315080004D09A60584B06AC1D460FCD0FC40FCD0FC4FE
S315080004E095E8030084E8030000238DF81030002304
S315080004F08DF8113003238DF8123000238DF8133050
S3150800050000238DF8143000238DF8153000238DF85C
S31508000510163001212A2001F04BFB02214FF4B0606E
S3150800052002F0DAF802238DF84330002242494348A4
S3150800053005F0CAFB03468DF8453003238DF81C30B9
S3150800054040F6E443099300238DF8193002238DF809
S315080005501B309DF845300093002300223849374860
S3150800056005F0F8FB0346089307238DF8123001239C
S315080005708DF8113006AA10AB1946304804F0D4FDA0
S3150800058004AB2A4A19462D4805F090FA039B1B68C6
S315080005901B78002B10D12B4BD3F82033294A43F074
S315080005A00103C2F82033274BD3F82033254A43F4F6
S315080005B08033C2F8203325E0039B1B681B78012B88
S315080005C010D1204BD3F824331E4A43F00103C2F856
S315080005D024331C4BD3F824331A4A43F48033C2F825
S315080005E024330FE0174BD3F82833164A43F0010398
S315080005F0C2F82833134BD3F82833124A43F480330E
S31508000600C2F8283310490D4809F083FA4FF480716F
S315080006100A4809F08AFA3120FFF7D8FE3120FFF799
S31508000620BBFE00E000BF15B030BD00BF00100020C3
S315080006304F13002038AF0008002D31010040005943
S315080006408096980000C003508F330F8000B583B0A2
S315080006500023009300238DF8043019E06B461549F2
S31508000660184609F056FE009B9DF8042099B2124BD5
S3150800067023F812109DF804301A460F4B33F812303F
S315080006809BB29DF804201B0199B20B4B23F812105C
S31508000690084809F05FFA0346002BDFD1074B012211
S315080006A01A704FF48071034809F033FA00BF03B09B
S315080006B05DF804FB0040005920110020501300206B
S315080006C030B589B0019008211C4809F03AFA09F0BA
S315080006D062FACDE90401DDE90423CDE906230CE03D
S315080006E009F059FACDE90601154B1B78DBB2012B47
S315080006F003D1134B00221A700CE0DDE90601DDE98F
S315080007000423841A61EB030540F2E9339C4275F130
S315080007100003E5D3019B1B791A460A4B33F81230BE
S31508000720ADF80E30019B1B791A46064B002123F8BB
S315080007301210BDF80E30184609B030BD00400059F9
S31508000740501300202011002000B583B00190019BB2
S3150800075000221A60019B00225A60019B0433019A09
S315080007601146184600F0EAF8019B5B68094AA2FBA5
S3150800077003239A09019B5A60019B1B68054A82FB61
S3150800078003129211DB17D21A019B1A6000BF03B03D
S315080007905DF804FBD34D621008B501F089FF09F036
S315080007A066FC304B1B6F23F007032E4A43F0030306
S315080007B0136709F069FC2C4B9B6A03F08073002BC6
S315080007C006D1294B03F500531A464FF4803393623A
S315080007D0244BD3F8203123F00703224A43F00203BF
S315080007E0C2F820311F4BD3F8283123F007031D4ADE
S315080007F043F00203C2F828311A4BD3F8403123F0EC
S315080008000303184A43F00203C2F84031154BD3F8E4
S31508000810603123F00303134A43F00203C2F8603140
S31508000820104BD3F8403223F003030E4A43F0020379
S31508000830C2F840320B4BD3F8003223F00703094ABB
S3150800084043F00203C2F80032064BD3F8083223F00D
S315080008500703044A43F00203C2F808320023184685
S3150800086008BD00BF008000500040005A08B50121AD
S315080008703A2001F09DF9024800F0FAFE00BF08BDD3
S315080008805410002000B585B0012000F075F80390DB
S31508000890012000F077F9039B002B27D11D4B1B681D
S315080008A01D49184609F009FE1A4B1B681B491846CC
S315080008B009F003FE09F045FA09F045FA154B1868E0
S315080008C0174B00933823174A174909F0F6FD114BC1
S315080008D01B68164A1649184609F0EFFD0D4B1B68AA
S315080008E01449184609F0E9FD00BFFDE740210398C1
S315080008F009F04EFA0290029B002B03D10E4B0122FF
S315080009001A7002E00C4B00221A70029B184605B0BA
S315080009105DF804FB3011002060AF000864AF0008E2
S315080009200CB000086CAF0008B4AF0008C0AF0008F0
S31508000930D4AF0008ECAF00085113002000B585B00D
S31508000940019000910B4B1B78002B0BD0012000F077
S3150800095013F80290009B019A4021029809F044FA84
S31508000960039001E011230393039B184605B05DF835
S3150800097004FB00BF5113002084B00190184B1B687C
S315080009800393019B013B0F2B22D801A252F823F0B7
S31508000990D7090008D7090008D1090008D7090008AF
S315080009A0D1090008D1090008D1090008D7090008AB
S315080009B0D1090008D1090008D1090008D1090008A1
S315080009C0D1090008D1090008D1090008D70900088B
S315080009D00023039300E000BF039B184604B070474A
S315080009E05010002008B5094B01221A70084B002246
S315080009F01A70084B04221A70074B1F221A7006F049
S31508000A009FFA0346054A136000BF08BDE61000209A
S31508000A1052130020E7100020E810002030110020B3
S31508000A2000B583B00B4B1B68002B0FD000F070F895
S31508000A300190019B002B06D0019B1B6A019A526A02
S31508000A40114601989847019B002BEFD100BF03B0D0
S31508000A505DF804FB3411002082B001238DF80730BD
S31508000A60054B1B68002B02D004238DF807309DF830
S31508000A700730184602B070473411002082B00123AF
S31508000A808DF80730054B1B68002B02D000238DF824
S31508000A9007309DF80730184602B070473411002019
S31508000AA000B587B0019009F042FB03900023059337
S31508000AB0164B1B68049304E0049B0593049B9B6AEE
S31508000AC00493049B002B03D0049A019B9A42F3D10A
S31508000AD0049A019B9A4204D0039809F038FB002334
S31508000AE00FE0059B002B04D0019B9A6A059B9A622E
S31508000AF003E0019B9B6A054A1360039809F027FBEC
S31508000B000123184607B05DF804FB00BF3811002022
S31508000B1000B583B009F00BFB0090184B1B680193D6
S31508000B2020E0019B93F82C30002B18D0019B002263
S31508000B3083F82C20124B1B68013B114A1360019B5A
S31508000B4093F82D3083F00103DBB2002B02D0019815
S31508000B50FFF7A6FF009809F0FAFA019B09E0019B46
S31508000B609B6A0193019B002BDBD1009809F0EFFAF1
S31508000B700023184603B05DF804FB00BF38110020B7
S31508000B803411002000B585B001900E230393019B14
S31508000B90202B4BDC019B002B40F38780019B013BFC
S31508000BA01F2B00F2828001A252F823F0350C0008B0
S31508000BB0470C0008AB0C0008590C0008AB0C0008E1
S31508000BC0AB0C0008AB0C00086B0C0008AB0C00085B
S31508000BD0AB0C0008AB0C0008AB0C0008AB0C00080B
S31508000BE0AB0C0008AB0C00087D0C0008AB0C000829
S31508000BF0AB0C0008AB0C0008AB0C0008AB0C0008EB
S31508000C00AB0C0008AB0C0008AB0C0008AB0C0008DA
S31508000C10AB0C0008AB0C0008AB0C0008AB0C0008CA
S31508000C20AB0C0008AB0C0008870C0008019B402B96
S31508000C3032D03AE0012304220921022003F08CFD78
S31508000C400023039336E0012304220921022003F03E
S31508000C5083FD002303932DE00123042209210220AA
S31508000C6003F07AFD0023039324E0012304220921DB
S31508000C70022003F071FD002303931BE0B9211048FD
S31508000C8009F0A8F916E0012304220921022003F03D
S31508000C9063FD002303930DE00123042208210220AB
S31508000CA003F05AFD0023039304E0D821044809F011
S31508000CB091F900BF039B184605B05DF804FB00BF19
S31508000CC020B0000800B583B0034600918DF80730C0
S31508000CD09DF80730002B14D09DF80730012B0ED055
S31508000CE09DF80730022B07D09DF80730032B01D15A
S31508000CF03F2307E0002305E040F2FF3302E00F231D
S31508000D0000E0FF23009AD34003F00103002B04D12F
S31508000D1040F2FE310A4809F05DF90A489DF80720B5
S31508000D200121009B994013465B0013441B010344B1
S31508000D3003F50153196000BF03B05DF804FB00BF5B
S31508000D4064B0000800C0035000B583B003460091A4
S31508000D508DF807309DF80730002B14D09DF8073022
S31508000D60012B0ED09DF80730022B07D09DF80730CF
S31508000D70032B01D13F2307E0002305E040F2FF33B0
S31508000D8002E00F2300E0FF23009AD34003F001039B
S31508000D90002B04D140F22D410A4809F01BF90A48F4
S31508000DA09DF807200121009B994013465B001344D8
S31508000DB01B01034403F58253196000BF03B05DF8B5
S31508000DC004FB00BF64B0000800C0035030B589B00A
S31508000DD0454B01AC1D460FCD0FC495E8070084E8C6
S31508000DE0070001213A2000F0E3FE0121292000F046
S31508000DF0DFFE01238DF812303C4B039301AB1946F5
S31508000E003B4805F0C3FA012304220321022003F01C
S31508000E10A3FC002301220221022003F09DFC0123EA
S31508000E2004220121022003F097FC01230422002159
S31508000E30022003F091FC2F4B2F4AC3F834272D4B81
S31508000E404FF00212C3F830272A4B2C4AC3F838272A
S31508000E50284B1C22C3F820274FF4487007F0DAFE07
S31508000E6008F088FF142007F0D5FE08F08AFF232033
S31508000E7007F0D0FE08F07EFFB9211D4809F060FA98
S31508000E8008F07FFF002300220321022003F064FC00
S31508000E90002300220221022003F05EFC0123002227
S31508000EA00121022003F058FC012300220021022020
S31508000EB003F052FC0E4805F0EDFA0E4B0022C3F87B
S31508000EC034270C4B0022C3F830270A4B0022C3F8FC
S31508000ED03827084B0022C3F820270021292000F0D4
S31508000EE067FE00BF09B030BD9CB0000800127A004A
S31508000EF000C0055000C003500200010002000300B4
S31508000F0000B583B0064A074BD31A9B100193019A82
S31508000F100549044809F03BF800BF03B05DF804FB37
S31508000F20ECB70008ECB700086C13002000B585B0D4
S31508000F3000F080F8FFF7E4FF1F4B039319E0002346
S31508000F4002930EE0039B1A68029B9B001A44039BBC
S31508000F505968029B9B000B4412681A60029B013376
S31508000F600293039B9B68029A9A42EBD3039B0C332A
S31508000F700393039B114A9342E1D3114B019314E067
S31508000F800023009309E0019B1A68009B9B00134409
S31508000F9000221A60009B01330093019B5B68009A4C
S31508000FA09A42F0D3019B08330193019B054A934269
S31508000FB0E6D3FFF72DF900BFE8B60008F4B6000837
S31508000FC0F4B60008F4B6000882B003468DF8073078
S31508000FD09DF90730002B0CDB9DF8073003F01F0244
S31508000FE005499DF907305B09012000FA02F241F82C
S31508000FF0232000BF02B0704700E100E082B003463C
S315080010008DF807309DF90730002B0DDB9DF807306A
S3150800101003F01F0206499DF907305B09012000FA13
S3150800102002F2603341F8232000BF02B0704700BFC8
S3150800103000E100E008B51D4B1D4A9A601B4BD3F82A
S3150800104088301A4A43F47003C2F88830194B03F5FE
S3150800105080531A464FF480439366174B03F50053A3
S315080010601A464FF0FF331366134B03F500531A461F
S31508001070124B5366124B02221A60BFF34F8F00BF02
S31508001080BFF36F8F00BF0020FFF7B8FF0A4B03F5C9
S3150800109000531A464FF44033D3600020FFF794FFFD
S315080010A0054B4FF440321A6100BF08BD00ED00E061
S315080010B0000000080080005000800044F7FF370059
S315080010C0D0ED00E0014B1B681846704770100020F1
S315080010D000B583B0002301930E4B1B6F03F0070383
S315080010E0032B09D0032B0FD8012B09D0022B0BD1C8
S315080010F0FFF7E8FF019008E0074B1B68019304E03F
S31508001100064B019301E0FFE7FDE7019B184603B094
S315080011105DF804FB0080005068100020002D3101A6
S3150800112000B583B0FFF7D4FF01900A4B1B6F1B0B6A
S3150800113003F00F030093009B0133019AB2FBF3F30C
S315080011400193054A019B1360019B184603B05DF89D
S3150800115004FB00BF0080005074100020014B1846A5
S31508001160704700BF00B4C404014B1B68184670479B
S315080011706810002000B583B00190074A019B1360F0
S31508001180064B1B6F03F00703032B01D1FFF7C8FFBC
S3150800119000BF03B05DF804FB681000200080005013
S315080011A0014B1846704700BF002D310182B000235D
S315080011B001934FF0B4439B681B0C03F01F030C2BE1
S315080011C04CD801A252F823F0FD1100085D12000860
S315080011D05D1200085D1200085D1200085D12000825
S315080011E0391200083F120008451200085D1200086F
S315080011F04B12000851120008571200084FF0B4436A
S315080012009B6803F04073B3F1007F0ED0B3F1007F03
S315080012100ED8002B03D0B3F1807F03D008E0124B21
S31508001220019308E0114B019305E0114B019302E08D
S315080012300023019300BF12E00E4B01930FE00E4B03
S3150800124001930CE00D4B019309E00D4B019306E069
S315080012500C4B019303E00C4B019300E000BF019B8C
S31508001260184602B0704700BF00093D0080841E0082
S3150800127040420F00405DC6000024F400C0EA210188
S3150800128080BA8C010048E801005A6202014B1B68CB
S31508001290184670476C10002000B583B00190009185
S315080012A0009B002B02D0019B002B03D13721074856
S315080012B008F090FE019B1A68009B1A60019B009A31
S315080012C01A6000BF03B05DF804FB00BFB8B00008A1
S315080012D084B001900B4B1A68019B13440A4A934247
S315080012E002D94FF0FF3309E0064B1B680393054B01
S315080012F01A68019B1344034A1360039B184604B0FB
S31508001300704700BF781000200000042000B587B0A1
S31508001310039002910192029B1F2B03D991210C483D
S3150800132008F058FE019B002B04D0039B03F580535D
S31508001330059303E0039B03F500530593059B0121E1
S31508001340029A01FA02F21A6000BF07B05DF804FBC0
S31508001350F0B0000800B585B003468DF807309DF853
S315080013600730002B01D0012300E000230393039AE2
S3150800137000210348FFF7CAFF00BF05B05DF804FB6C
S3150800138044C4035000B585B0002303930023ADF889
S315080013900A300023ADF808300023019301213A20D2
S315080013A000F006FC012304220321002003F0D4F9EF
S315080013B0019808F022FF0120FFF7CCFF474B03F501
S315080013C080531A464FF400235366454BDB6803F0F7
S315080013D08073002B14BF012300238DF803309DF87A
S315080013E00330002B05D03E4BDB683D4A23F0807363
S315080013F0D3603A4BD3F8803023F00303374A43F0DF
S315080014000203C2F880309DF80330002B05D0344B18
S31508001410DB68334A43F08073D3604FF4607000F0A2
S3150800142001FC03902E4B1B682D4A43F00103136001
S315080014302B4BDB682A4A43F08073D3600123ADF84F
S315080014400A300F23ADF80830BDF80A305A02BDF845
S3150800145008305B001A432349234B13430B60039B55
S3150800146003F5D52303F2FC43DB08204AA2FB03233A
S315080014709B0A1F4A013B13611D4B0222C3F8F02049
S315080014801B4B4FF48072C3F804234FF06043194A8C
S31508001490C3F8B02F4FF06043174AC3F8802E4FF0B9
S315080014A06043D3F8003E4FF0604243F48073C2F8BD
S315080014B0003E4FF06043FF2283F820204FF0604340
S315080014C0D3F8003E4FF0604223F48073C2F8003E22
S315080014D00023184605B05DF804FB00BF00800050E5
S315080014E0F0ED00E0001000E0E10100401791650210
S315080014F0000004E055CEACC50900010082B0019099
S315080015000B468DF803304FF06043D3F8803E03F066
S315080015100103002B22D0134BDB68124A43F0807379
S31508001520D3604FF06043D3F8002E0121019B01FAE6
S3150800153003F34FF060411343C1F8003E4FF0604299
S31508001540019B52F82330002BE5D04FF06041019BF8
S315080015509DF8032001F82320002300E011231846F4
S3150800156002B07047F0ED00E000B583B00346009185
S315080015708DF807309DF80730002B14D09DF80730FA
S31508001580012B0ED09DF80730022B07D09DF80730A7
S31508001590032B01D13F2307E0002305E040F2FF3388
S315080015A002E00F2300E0FF23009AD34003F0010373
S315080015B0002B04D140F2FE310A4808F00BFD0A4818
S315080015C09DF807200121009B994013465B001344B0
S315080015D01B01034403F50153196000BF03B05DF80E
S315080015E004FB00BF24B1000800C0035000B583B057
S315080015F0034600918DF807309DF80730002B14D06C
S315080016009DF80730012B0ED09DF80730022B07D026
S315080016109DF80730032B01D13F2307E0002305E09F
S3150800162040F2FF3302E00F2300E0FF23009AD34085
S3150800163003F00103002B04D140F22D410A4808F0BB
S31508001640C9FC0A489DF807200121009B99401346CA
S315080016505B0013441B01034403F58253196000BF62
S3150800166003B05DF804FB00BF24B1000800C00350B6
S3150800167000B589B00190019B002B03D139214E4852
S3150800168008F0A8FC019B1B68B3F1B64F02D12E23C4
S3150800169006930CE0019B1B68484A934202D12F230C
S315080016A0069304E04F21444808F094FC81E00121A8
S315080016B0069800F07DFA019B1879019B5B7919461B
S315080016C001230A2203F048F8019B9879019BDB79EC
S315080016D0194601230A2203F03FF80023079318E06E
S315080016E0019B1A79019B5B7919461046FFF73CFF67
S315080016F0642007F08FFA019B1A79019B5B791946DA
S315080017001046FFF773FF642007F084FA079B01333E
S315080017100793079B092BE3DD019B1B68B3F1B64FC3
S3150800172015D1274B0322C3F8E824019B5B791B04D8
S31508001730019A12791A43224BC3F8EC24019BDB79F0
S315080017401B04019A92791A431D4BC3F8F024019B96
S315080017501B681A4A934215D1194B0322C3F8F82479
S31508001760019B5B791B04019A12791A43144BC3F83F
S31508001770FC24019BDB791B04019A92791A43104BCE
S31508001780C3F8002501238DF8083001238DF80930A8
S31508001790019BDB680493019B9B680393019B1B7C5D
S315080017A08DF81430019B1B6802AA1146184603F0EF
S315080017B07FF909B05DF804FB5CB1000800800650AB
S315080017C000C0035000B585B0019000910F4B0293FD
S315080017D00099019803F010FC03468DF80F3005E0D8
S315080017E0019803F0A3F903468DF80F309DF90F30E1
S315080017F0012B04D1029B5A1E0292002BF0D19DF9AF
S315080018000F30184605B05DF804FB00BFE0930400EE
S3150800181000B587B0039002910192029B1F2B03D952
S3150800182091210C4808F0D6FB019B002B04D0039BA2
S3150800183003F58053059303E0039B03F500530593D3
S31508001840059B0121029A01FA02F21A6000BF07B04D
S315080018505DF804FB9CB1000808B500BF04210448E4
S3150800186008F0DEFB0346002BF8D100BF00BF08BD19
S315080018708440005008B5FFF7EFFF044BD3F88430D7
S315080018809B0903F00303DBB2184608BD004000506D
S31508001890034B5B6A024A43F00103536200BF704779
S315080018A000C00750034B5B6A024A23F001035362E8
S315080018B000BF704700C00750054BDB6903F480334F
S315080018C0002B14BF01230023DBB21846704700BF64
S315080018D000000350024B0022DA6300BF704700BFC6
S315080018E000000350024B41F67132DA6300BF7047BD
S315080018F000000350014B5B68184670470000035010
S3150800190082B00190024A019B536000BF02B0704743
S315080019100000035000B585B0019000230393019B96
S31508001920B3F5607F35D0019BB3F5607F59D8019B2D
S31508001930B3F5207F4ED0019BB3F5207F51D8019B8C
S31508001940B3F5007F3ED0019BB3F5007F49D8019BD4
S31508001950002B03D0019BB3F5C07F42D1264B1B6FEA
S315080019601B0B03F00F030393039B002B3BD0039B36
S31508001970012B38D0039B032B35D0039B072B32D082
S31508001980039B0F2B2FD040F285211C4808F022FB21
S3150800199029E0194BD3F880301B0903F0030303939E
S315080019A0039B002B21D0039B012B1ED0039B022BEC
S315080019B01BD0039B032B18D040F295210F4808F043
S315080019C009FB12E00C4BD3F890301B0E03F01F03F3
S315080019D003930BE0084B1B6F9B0A03F00103039369
S315080019E004E000BF02E000BF00E000BF039B013334
S315080019F0184605B05DF804FB00800050D0B1000819
S31508001A0010B584B001900091019BB3F5607F54D066
S31508001A10019BB3F5607F00F2BA80019BB3F5207F86
S31508001A2000F09F80019BB3F5207F00F2B080019BF8
S31508001A30B3F5007F7DD0019BB3F5007F00F2A78048
S31508001A40019B002B04D0019BB3F5C07F40F09F801B
S31508001A50009B012B10D0009B022B0DD0009B042B62
S31508001A600AD0009B082B07D0009B102B04D040F20D
S31508001A70C7214C4808F0AEFA08F039FB08F02FFBEE
S31508001A8001F0BAFF484B1B6F23F47042009B013BE1
S31508001A901B03454913430B6708F0BCFA0446FFF7D6
S31508001AA0E9FE0346C3F102031946204608F003FB84
S31508001AB002F0EEF901F0ACFF70E03C4BDB6803F096
S31508001AC08073002B14BF012300238DF80F309DF877
S31508001AD00F30002B05D0354BDB68344A23F0807372
S31508001AE0D360009B012B0DD0009B022B0AD0009BD4
S31508001AF0032B07D0009B042B04D040F2F22129487F
S31508001B0008F068FA284BD3F8803023F03002009B9F
S31508001B10013B1B0124491343C1F880309DF80F305F
S31508001B20002B3AD0214BDB68204A43F08073D36000
S31508001B3033E0009B002B02D0009B202B04D940F2F7
S31508001B400631184808F046FA174BD3F8903023F0B8
S31508001B50F852009B013B1B0613491343C1F890300A
S31508001B601CE0009B012B07D0009B022B04D04FF4EE
S31508001B7043710C4808F02EFA0B4B1B6F23F4806256
S31508001B80009B013B9B02084913430B6706E040F2A2
S31508001B901231044808F01EFA00E000BF00BF04B086
S31508001BA010BD00BFD0B1000800800050F0ED00E085
S31508001BB000B585B001900B468DF8033000230393DA
S31508001BC0019B5B09002B05D140F22F31124808F022
S31508001BD001FA12E0019B5B09012B02D10F4B03931B
S31508001BE00BE0019B5B09022B02D10D4B039304E02A
S31508001BF040F23D31084808F0EDF9019B03F01F0358
S31508001C0002939DF803301A4602990398FFF700FEDF
S31508001C1000BF05B05DF804FBD0B100086480005031
S31508001C206880005010B584B0019000230393002308
S31508001C300293019BB3F5486F00F02983019BB3F526
S31508001C40486F00F23683019BB3F5406F00F0EF82D0
S31508001C50019BB3F5406F00F22C83019BB3F5286F07
S31508001C6000F01B83019BB3F5286F00F22283019BCA
S31508001C70B3F5206F00F00583019BB3F5206F00F2E2
S31508001C801883019BB3F5106F00F0EF82019BB3F543
S31508001C90106F00F20E83019BB3F5F06F00F003831B
S31508001CA0019BB3F5F06F00F20483019BB3F5E06F77
S31508001CB000F0E182019BB3F5E06F00F2FA82019B26
S31508001CC0B3F5D06F00F0CB82019BB3F5D06F00F26D
S31508001CD0F082019BB3F5C06F00F0BB82019BB3F5A0
S31508001CE0C06F00F2E682019BB3F5B06F00F0A582E3
S31508001CF0019BB3F5B06F00F2DC82019BB3F5A06FD0
S31508001D0000F08F82019BB3F5A06F00F2D282019B8F
S31508001D10B3F5806F00F07F82019BB3F5806F00F208
S31508001D20C882019BB3F5607F00F06682019BB3F51C
S31508001D30607F00F2BE82019BB3F5407F00F04F82C0
S31508001D40019BB3F5407F00F2B482019BB3F5207F77
S31508001D5000F03982019BB3F5207F00F2AA82019B2D
S31508001D60B3F5007F00F02382019BB3F5007F00F2F4
S31508001D70A082019BB3F5807F00F20A82019BB3F52E
S31508001D80807F00F2968201A252F823F0A52100086E
S31508001D90B3220008B3220008B3220008B3220008C1
S31508001DA0B3220008B3220008B3220008B3220008B1
S31508001DB0B3220008B3220008B3220008B3220008A1
S31508001DC0B3220008B3220008B3220008B322000891
S31508001DD0B3220008B3220008B3220008B322000881
S31508001DE0B3220008B3220008B3220008B322000871
S31508001DF0B3220008B3220008B3220008B322000861
S31508001E00B3220008B3220008B3220008A52100085F
S31508001E10C7210008A5210008C721000817220008C5
S31508001E2017220008172200081722000817220008A0
S31508001E30C72100083B220008DF21000853220008BA
S31508001E405F220008DF210008C7210008C721000813
S31508001E50C7210008B3220008B3220008B3220008ED
S31508001E60B3220008B3220008B3220008B3220008F0
S31508001E70B3220008C7210008C7210008C7210008A7
S31508001E80A722000877220008C7210008B322000805
S31508001E90B3220008B3220008B3220008B3220008C0
S31508001EA0B3220008B3220008B3220008B3220008B0
S31508001EB0B3220008B3220008B3220008B3220008A0
S31508001EC017220008A5210008A5210008A521000859
S31508001ED06B220008DF210008DF21000883220008A2
S31508001EE09B220008232200082F220008B32200089C
S31508001EF0B3220008B3220008B3220008B322000860
S31508001F008F220008A5210008B3220008B322000882
S31508001F10B3220008B3220008B3220008B32200083F
S31508001F20B3220008B3220008B3220008B32200082F
S31508001F30B3220008B3220008B3220008B32200081F
S31508001F40B3220008B3220008B3220008B32200080F
S31508001F50B3220008B3220008B3220008B3220008FF
S31508001F60B3220008B3220008B3220008B3220008EF
S31508001F70B3220008B3220008B3220008B3220008DF
S31508001F80B3220008B3220008B32200089B210008E8
S31508001F90B3220008B3220008B3220008B3220008BF
S31508001FA0B3220008B3220008B3220008B3220008AF
S31508001FB0B3220008B3220008B3220008B32200089F
S31508001FC0B3220008B3220008B3220008B32200088F
S31508001FD0B3220008B3220008B3220008B32200087F
S31508001FE0B3220008B3220008B3220008B32200086F
S31508001FF0B3220008B3220008B3220008B32200085F
S31508002000B3220008B3220008B3220008B32200084E
S31508002010B3220008B3220008B3220008B32200083E
S31508002020B3220008B3220008B3220008B32200082E
S31508002030B3220008B3220008B3220008B32200081E
S31508002040B3220008B3220008B3220008B32200080E
S31508002050B3220008B3220008B3220008B3220008FE
S31508002060B3220008B3220008B3220008B3220008EE
S31508002070B3220008B3220008B3220008B3220008DE
S31508002080B3220008B3220008B3220008B3220008CE
S31508002090B3220008B3220008B3220008B3220008BE
S315080020A0B3220008B3220008B3220008B3220008AE
S315080020B0B3220008B3220008B3220008B32200089E
S315080020C0B3220008B3220008B3220008B32200088E
S315080020D0B3220008B3220008B3220008B32200087E
S315080020E0B3220008B3220008B3220008B32200086E
S315080020F0B3220008B3220008B3220008B32200085E
S31508002100B3220008B3220008B3220008B32200084D
S31508002110B3220008B3220008B3220008B32200083D
S31508002120B3220008B3220008B3220008B32200082D
S31508002130B3220008B3220008B3220008B32200081D
S31508002140B3220008B3220008B3220008B32200080D
S31508002150B3220008B3220008B3220008B3220008FD
S31508002160B3220008B3220008B3220008B3220008ED
S31508002170B3220008B3220008B3220008B3220008DD
S31508002180B3220008B3220008B32200084722000839
S31508002190019BB3F5C07F05D08BE0FEF799FF034698
S315080021A003938CE0FEF7BCFF0346039387E0FEF734
S315080021B08FFF04464FF40070FFF7ACFB0346B4FBF1
S315080021C0F3F303937BE0FEF7ABFF04464FF420706E
S315080021D0FFF7A0FB0346B4FBF3F303936FE0FEF7A8
S315080021E09FFF04464FF42070FFF794FB0346B4FBA9
S315080021F0F3F35B08039362E002AB0021184601F093
S315080022001DFC029C4FF46070FFF784FB0346B4FB89
S31508002210F3F3039353E003AB0021184601F09AFC4D
S315080022204DE003AB0021184601F050FA47E003AB36
S315080022300021184601F0A0FA41E003AB0021184638
S3150800224001F0E0FD3BE003AB0021184601F02CFF4E
S3150800225035E003AB0021184601F0DEFC2FE003ABA6
S315080022600021184601F078FE29E003AB0021184644
S3150800227001F0C6FE23E003AB0021184601F022FE5A
S315080022801DE003AB0021184601F0D4FA17E003ABB2
S315080022900021184601F022FB11E003AB0021184685
S315080022A001F070FB0BE003AB0021184601F0FEFCC1
S315080022B005E040F29441044807F08CFE00BF039BFA
S315080022C0184604B010BD00BFD0B1000800B585B0EF
S315080022D0019000230393019BB3F5486F00F0CD816D
S315080022E0019BB3F5486F00F2D481019BB3F5406FAB
S315080022F000F0B181019BB3F5406F00F2CA81019BE2
S31508002300B3F5286F00F0BF81019BB3F5286F00F283
S31508002310C081019BB3F5206F00F0A981019BB3F53D
S31508002320206F00F2B681019BB3F5106F00F07B8138
S31508002330019BB3F5106F00F2AC81019BB3F5086FF2
S3150800234000F07781019BB3F5086F00F2A281019B2B
S31508002350B3F5F06F00F05B81019BB3F5F06F00F207
S315080023609881019BB3F5E06F00F07B81019BB3F583
S31508002370E06F00F28E81019BB3F5D06F00F04D81BE
S31508002380019BB3F5D06F00F28481019BB3F5C06F52
S3150800239000F03781019BB3F5C06F00F27A81019B8B
S315080023A0B3F5B06F00F01B81019BB3F5B06F00F277
S315080023B07081019BB3F5A06F00F04781019BB3F5CF
S315080023C0A06F00F26681019BB3F5806F00F00D8166
S315080023D0019BB3F5806F00F25C81019BB3F5607FCA
S315080023E000F02D81019BB3F5607F00F25281019BBD
S315080023F0802B00F2C780019B242BC0F04A81019BE9
S31508002400243B5C2B00F2458101A252F823F000BF61
S31508002410EB250008EB250008EB250008EB2500084E
S31508002420EB25000893260008DF25000893260008F8
S31508002430032600081B260008932600089326000892
S31508002440932600089326000893260008932600087A
S31508002450932600089326000893260008932600086A
S31508002460932600089326000893260008932600085A
S31508002470932600080F2600086326000893260008FE
S31508002480932600089326000893260008932600083A
S31508002490932600089326000893260008932600082A
S315080024A0932600089326000893260008932600081A
S315080024B093260008EB2500089326000893260008B3
S315080024C09326000827260008932600089326000866
S315080024D06F260008872600084B260008572600089E
S315080024E093260008932600089326000893260008DA
S315080024F0932600087B2600089326000893260008E2
S3150800250093260008932600089326000893260008B9
S3150800251093260008932600089326000893260008A9
S315080025209326000893260008932600089326000899
S315080025309326000893260008932600089326000889
S315080025409326000893260008932600089326000879
S315080025509326000893260008932600089326000869
S315080025609326000893260008932600089326000859
S315080025709326000893260008932600089326000849
S315080025808F250008019BB3F5807F34D081E0464B48
S315080025901B6F03F00703013B032B17D801A252F860
S315080025A023F000BFC7250008B5250008BB2500088D
S315080025B0C12500080523039310E0032303930DE0C8
S315080025C0082303930AE00223039307E000230393F7
S315080025D040F2C641354807F0FDFC00BF5FE003AB9B
S315080025E01946002001F00EFC59E003AB19460020FD
S315080025F001F0B0FA53E003AB1946002001F054FD90
S315080026004DE003AB1946002001F006FB47E003AB9B
S315080026101946002001F04AFB41E003AB19460020A9
S3150800262001F09AFC3BE003AB1946002001F0E8FCF8
S3150800263035E003AB1946002001F042FA2FE003AB60
S315080026401946002001F0FAF929E003AB19460020E3
S3150800265001F03CF823E003AB1946002001F08CF8A2
S315080026601DE003AB1946002001F02CFC17E003AB74
S315080026701946002001F0DEF811E003AB19460020E8
S3150800268001F02CF90BE003AB1946002001F07AF9AA
S3150800269005E040F27951054807F09CFC00BF039B12
S315080026A0184605B05DF804FB00800050D0B100085C
S315080026B0074B03F580531A464FF480135366054BB0
S315080026C003F580531A464FF48033936200BF704770
S315080026D0008000500040005A10B584B00190009167
S315080026E00023039300238DF80B3000238DF80A305E
S315080026F0019BB3F5486F00F03A85019BB3F5486F27
S3150800270000F29785019BB3F5406F00F07184019B39
S31508002710B3F5406F00F28D85019BB3F5286F00F085
S315080027206A85019BB3F5286F00F28385019BB3F593
S31508002730206F00F0D884019BB3F5206F00F27985ED
S31508002740019BB3F5106F00F04583019BB3F5106F3D
S3150800275000F26F85019BB3F5086F00F08183019B3A
S31508002760B3F5086F00F26585019BB3F5F06F00F0CD
S31508002770AF82019BB3F5F06F00F25B85019BB3F561
S31508002780E06F00F07384019BB3F5E06F00F25185AA
S31508002790019BB3F5D06F00F0D882019BB3F5D06FDB
S315080027A000F24785019BB3F5C06F00F04C82019B90
S315080027B0B3F5C06F00F23D85019BB3F5B06F00F02D
S315080027C07581019BB3F5B06F00F23385019BB3F5B4
S315080027D0A06F00F0C283019BB3F5A06F00F22985B4
S315080027E0019BB3F5806F00F08881019BB3F5806F7C
S315080027F000F21F85019BB3F5607F00F06883019B9B
S31508002800B3F5607F00F21585019B802B00F2C68028
S31508002810019B242BC0F00D85019B243B5C2B00F209
S31508002820088501A252F823F0FB2A0008FB2A0008B3
S31508002830FB2A0008FB2A0008FB2A00083332000896
S31508002840AD2A000833320008472C00084B2D000833
S3150800285033320008333200083332000833320008B6
S3150800286033320008333200083332000833320008A6
S315080028703332000833320008333200083332000896
S31508002880333200083332000833320008D12C0008EE
S315080028906D3000083332000833320008333200083E
S315080028A03332000833320008333200083332000866
S315080028B03332000833320008333200083332000856
S315080028C0333200083332000833320008FB2A000886
S315080028D0333200083332000833320008D52D000899
S315080028E03332000833320008E7300008F7310008B1
S315080028F05B2F0008F12F0008333200083332000836
S315080029003332000833320008333200086F310008CA
S3150800291033320008333200083332000833320008F5
S3150800292033320008333200083332000833320008E5
S3150800293033320008333200083332000833320008D5
S3150800294033320008333200083332000833320008C5
S3150800295033320008333200083332000833320008B5
S3150800296033320008333200083332000833320008A5
S315080029703332000833320008333200083332000895
S315080029803332000833320008333200083332000885
S315080029903332000833320008AB290008019BB3F52F
S315080029A0807F00F0E58000F044BC009B023B062BCC
S315080029B034D801A252F823F0172A0008DB290008A8
S315080029C01D2A0008D52900081D2A00081D2A000806
S315080029D0112A00080223039326E003230393B84B26
S315080029E003F580531A464FF480135366B54B9B6A1A
S315080029F003F08073002B14BF012300238DF80B30DE
S31508002A00B04B03F580531A464FF4803393620BE0BC
S31508002A100423039308E00123039305E040F23161A0
S31508002A20A94807F0D7FA00BF0121022001F064FC8B
S31508002A3007F05DFB07F053FB00F0DEFFA04B1B6FB2
S31508002A4023F007029E49039B13430B6707F0E2FA3C
S31508002A500446FEF70FFF0346C3F102031946204654
S31508002A6007F029FB0121002001F018FC01F010FAFB
S31508002A7000F0CEFF9DF80B3083F00103DBB2002B8C
S31508002A8000F0DD83009B032B0ED18E4B03F500531C
S31508002A901A464FF48033936200BF8A4B9B6D03F04E
S31508002AA08043002BF9D100E000BFC8E3009B102B40
S31508002AB009D0009B102B0FD8009B022B09D0009B36
S31508002AC0072B03D008E0012303930BE003230393AA
S31508002AD008E00223039305E040F27A617A4807F09A
S31508002AE079FA00BF764BD3F8803123F00302744994
S31508002AF0039B1343C1F88031A4E3009B013B062BDB
S31508002B0025D801A252F823F03D2B0008372B0008E0
S31508002B102B2B0008492B0008252B0008432B0008FF
S31508002B20312B00080123039317E00223039314E0D3
S31508002B300423039311E0032303930EE00023039376
S31508002B400BE00523039308E00623039305E040F210
S31508002B50B9615D4807F03EFA00BF594BD3F82031FA
S31508002B6023F007025649039B1343C1F8203169E352
S31508002B70009B093B082B5FD801A252F823F000BF3F
S31508002B80A52B0008A52B0008392C0008A52B000842
S31508002B90EF2B0008392C0008392C0008392C0008BE
S31508002BA0A52B0008464B5B6E03F48033002B0CBF45
S31508002BB0012300238DF80A30414B03F580531A464A
S31508002BC04FF480335366FEF763FE9DF80A30002BF8
S31508002BD006D03B4B03F500531A464FF48033536631
S31508002BE03A4B1B68394A23F0040313602AE0344B36
S31508002BF05B6E03F48033002B0CBF012300238DF892
S31508002C000A302F4B03F580531A464FF48033536628
S31508002C10FEF748FE9DF80A30002B06D0284B03F530
S31508002C2000531A464FF480335366284B1B68274ACD
S31508002C3043F00403136005E040F2E161224807F01F
S31508002C40C9F900BFFEE2009B013B0B2B26D801A267
S31508002C5052F823F0972C00089D2C00089D2C00089C
S31508002C609D2C00089D2C00089D2C00089D2C000812
S31508002C709D2C00088B2C0008852C0008852C000844
S31508002C80912C0008012303930EE0022303930BE023
S31508002C900323039308E00023039305E040F2017140
S31508002CA0094807F097F900BF054BD3F8403123F0E0
S31508002CB003020349039B1343C1F84031C2E200BF34
S31508002CC0008000500040005AD0B1000810E000E033
S31508002CD0009B013B0B2B27D801A252F823F000BF1B
S31508002CE0232D0008292D0008292D0008292D000864
S31508002CF0292D0008292D0008292D0008292D00084E
S31508002D00172D0008112D0008112D00081D2D00088B
S31508002D10012303930EE0022303930BE0032303939B
S31508002D2008E00023039305E040F22371BC4807F04E
S31508002D3051F900BFBB4BD3F8603123F00302B94900
S31508002D40039B1343C1F860317CE2009B013B0E2BC9
S31508002D502FD801A252F823F0AD2D0008B32D000894
S31508002D60B32D0008B32D0008B32D0008B32D0008B5
S31508002D70B32D0008B32D00089B2D0008952D0008DB
S31508002D80952D0008A12D0008B32D0008B32D0008C5
S31508002D90A72D00080123039311E0022303930EE0F5
S31508002DA0032303930BE00423039308E00023039310
S31508002DB005E04FF4EE619A4807F00CF900BF994B0D
S31508002DC0D3F8003223F007029649039B1343C1F850
S31508002DD0003237E2009B013B0E2B30D801A252F895
S31508002DE023F000BF392E00083F2E00083F2E0008AA
S31508002DF03F2E00083F2E00083F2E00083F2E0008F1
S31508002E003F2E0008272E0008212E0008212E000834
S31508002E102D2E00083F2E00083F2E0008332E0008EE
S31508002E200123039311E0022303930EE00323039384
S31508002E300BE00423039308E00023039305E040F224
S31508002E409471774807F0C6F800BF764BD3F8083276
S31508002E5023F007027349039B1343C1F80832F1E1D3
S31508002E60009B013B082B21D801A252F823F000BF92
S31508002E70A72E0008AD2E0008952E0008AD2E0008D6
S31508002E80AD2E0008AD2E0008AD2E0008A12E0008B4
S31508002E909B2E0008012303930EE0022303930BE005
S31508002EA00323039308E00023039305E04FF4F66138
S31508002EB05B4807F08FF800BF5A4BD3F8003123F070
S31508002EC003025849039B1343C1F80031BAE1564B34
S31508002ED0DB6803F08073002B14BF012300238DF8F1
S31508002EE009309DF80930002B05D04F4BDB684E4A58
S31508002EF023F08073D360009B0E2B09D0009B0E2B0A
S31508002F000FD8009B062B06D0009B072B06D008E09F
S31508002F10012303930BE00323039308E0022303939F
S31508002F2005E040F2E1713E4807F054F800BF3D4B1A
S31508002F30D3F8803023F003023A49039B1343C1F8C0
S31508002F4080309DF80930002B00F07B81364BDB681A
S31508002F50354A43F08073D36073E1009B013B112B24
S31508002F6035D801A252F823F0C92F0008CF2F000840
S31508002F70CF2F0008CF2F0008CF2F0008CF2F00082B
S31508002F80B72F0008CF2F0008C32F0008BD2F000851
S31508002F90BD2F0008CF2F0008CF2F0008CF2F00081D
S31508002FA0CF2F0008CF2F0008CF2F0008B12F000819
S31508002FB00123039311E0022303930EE003230393F3
S31508002FC00BE00423039308E00023039305E040F68F
S31508002FD03D01134806F0FEFF00BF124BD3F820321E
S31508002FE023F007020F49039B1343C1F8203229E156
S31508002FF0009B023B052B28D801A252F823F000BFFC
S31508003000393000083F3000084530000819300008FC
S315080030102D30000833300008012303931BE000BF5E
S31508003020D0B1000800800050F0ED00E005230393BE
S3150800303011E0042303930EE0032303930BE002231A
S31508003040039308E00623039305E040F66E017F48E4
S3150800305006F0C0FF00BF7E4BD3F8283123F00702E5
S315080030607B49039B1343C1F82831EBE0009B013BE6
S315080030700B2B27D801A252F823F000BFBF30000857
S31508003080C5300008C5300008C5300008C53000083E
S31508003090C5300008C5300008C5300008B330000840
S315080030A0AD300008AD300008B9300008012303939D
S315080030B00EE0022303930BE00323039308E00023A7
S315080030C0039305E040F6AC01604806F083FF00BFB5
S315080030D05F4BD3F8403223F003025D49039B134349
S315080030E0C1F84032AEE0009B023B0F2B2ED801A25E
S315080030F052F823F0353100084D3100084D310008EB
S315080031004D3100084D3100083B3100084D310008AB
S315080031104D3100084D3100084D3100084D31000889
S315080031204D3100084D3100084D3100084131000885
S3150800313047310008032303930EE0042303930BE0AF
S315080031400123039308E00223039305E040F6E20116
S315080031503E4806F03FFF00BF3D4BD3F8603223F0F0
S3150800316007023B49039B1343C1F860326AE0009BA0
S31508003170023B0F2B2ED801A252F823F0BD310008CE
S31508003180D5310008D5310008D5310008D5310008F9
S31508003190C3310008D5310008D5310008D5310008FB
S315080031A0D5310008D5310008D5310008D5310008D9
S315080031B0D5310008C9310008CF310008032303932D
S315080031C00EE0042303930BE00123039308E0022394
S315080031D0039305E040F6FA011C4806F0FBFE00BF23
S315080031E01B4BD3F8943223F007021949039B134368
S315080031F0C1F8943226E0009B112B03D0009B152BB7
S3150800320003D005E00123039308E00223039305E0B6
S315080032104FF411610D4806F0DDFE00BF0C4BD3F8E4
S31508003220703223F003020A49039B1343C1F8703234
S3150800323008E040F64211054806F0CCFE02E000BF61
S3150800324000E000BF00BF04B010BD00BFD0B1000849
S315080032500080005000B585B00190019B1B680F2BBC
S3150800326004D940F66D31964806F0B4FE019B5B68BA
S315080032700F2B04D94FF43761914806F0ABFE019B3A
S315080032809B680F2B04D940F673318D4806F0A2FED1
S31508003290019B1B7B0F2B04D940F67631884806F034
S315080032A099FE019B5B7B0F2B04D940F67931844844
S315080032B006F090FE019B9B7B3F2B04D940F67C31A0
S315080032C07F4806F087FE019BDB7B3F2B04D940F63F
S315080032D07F317B4806F07EFE019B1B69032B04D9D0
S315080032E040F68231764806F075FE019B5B69032B32
S315080032F004D940F68531724806F06CFE019BDB69FD
S31508003300032B04D940F688316D4806F063FE802009
S31508003310FEF7DCFF0346032B00F01781694B03F524
S3150800332080531A464FF480135366674B45F60E02D0
S31508003330C3F88020644B03F580531A464FF0A06308
S315080033409362614B03F500531A464FF48033936238
S3150800335000BF5D4B9B6D03F48033002BF9D100BF92
S31508003360594B9B6D03F08043002BF9D1019B1B68D9
S315080033701A06019B5B681B051A43019B1B7B1B04F2
S315080033801A43019B5B7B1B031A43019B9B7B9B0197
S315080033901343019AD27B11464B4A0B4313614A4B9E
S315080033A09B6903F00042019B1B699B061A43019B1C
S315080033B05B691B061A43019B1B7E1B041A43019B70
S315080033C05B7E1B021343019A927E11463E4A0B43CB
S315080033D093613D4B1B6A23F00F03019AD269002AB9
S315080033E001D1002200E008221A43019BDB7E9B00E4
S315080033F01A43019BDB69344913430B62019BDB6962
S31508003400002B67D1304B9A6A304B1340019A92F8D9
S31508003410202052011A43019B93F821301B011A43BD
S31508003420019B93F82430DB001343274A43F4803387
S31508003430936200BF244B9A6D254B1340244A93424E
S31508003440F8D1214B03F580531A464FF080739362E7
S315080034501D4B1B6923F47002019B9B681B051A49C7
S3150800346013430B61184B03F580531A464FF000437C
S315080034709361019B93F8223083F00103DBB2002BA2
S3150800348006D0114B03F500531A464FF0807393622A
S31508003490019B93F8233083F00103DBB2002B4AD05B
S315080034A0094B03F500531A464FF48033936200BF65
S315080034B0054B9B6D03F08043002BF9D13BE000BF21
S315080034C0D0B10008008000500040005AC7FFFEFE39
S315080034D003000100019BDB69022B12D11D4B002260
S315080034E01A611C4B00229A6102230393039B1A0359
S315080034F0039B1B0213431A464FF47F41164806F0F6
S315080035009CFD144B9A6A154B1340019A92F8202099
S3150800351052011A43019B93F822301B061A43019B5A
S3150800352093F82430DB001A43019B93F823301B04DD
S31508003530084913438B62019B93F82530002B05D06D
S31508003540044B074AC3F8802000E000BF05B05DF8C9
S3150800355004FB00BF0040005A3440005AC7FFFEFE75
S31508003560F1A7FFFF024B93F900301846704700BFDA
S31508003570E910002000B585B00190019B5B68072B18
S3150800358004D940F6B351404806F024FD019B9B68D8
S31508003590032B04D940F6B5513B4806F01BFD019BA9
S315080035A01B78032B04D940F6B751374806F012FDAD
S315080035B0019B5B785BB2002B04DA40F6B9513248BE
S315080035C006F008FD4F230393019B5B788DF80B30BB
S315080035D09DF80B20039B934228BF13468DF80A30AB
S315080035E02A4B03F580531A464FF400035366284BBB
S315080035F04FF4D1525A62264B03F580531A460223DA
S315080036005360234B03F500531A460123536000BF4A
S315080036101F4B1B6903F48033002BF9D1019B1B78E0
S315080036201A029DF80A301A4913434B61019B5B68DD
S315080036301A02019B9B681B011A43019B1B7B5B00BB
S315080036401343019A527B1146114A0B439360019B1F
S315080036509B7B5A01019BDB7B1B011A43019B1B7C4D
S315080036605B001343019A527C1A43094B5A60019B2B
S315080036709B7C002B03D0064B6FF4D1525A6200BFD5
S3150800368005B05DF804FB00BFD0B10008008000500B
S315080036900000025082B00346ADF80630034ABDF872
S315080036A00630138000BF02B0704700BFE01000204C
S315080036B082B00346ADF80630034ABDF806301380DB
S315080036C000BF02B0704700BFE210002000B585B009
S315080036D00190009100230293254BD3F8203203F082
S315080036E00703042B2CD801A252F823F03B37000815
S315080036F001370008113700081F3700082D37000862
S3150800370002AB0021184600F037F8122303931FE096
S31508003710FDF74CFD034602930723039318E006F0D2
S3150800372051FC034602930A23039311E0FDF7AEFD0D
S3150800373003460293092303930AE00123039307E050
S315080037400023039341F223010A4806F043FC00BF15
S31508003750019B002B02D0029A019B1A60009B002B4A
S3150800376002D0009B039A1A6000BF05B05DF804FBFF
S3150800377000800050D0B1000800B585B001900091D6
S3150800378000230393294BD3F8283103F00703013BA1
S31508003790052B33D801A252F823F000BFB53700082D
S315080037A0D9370008F1370008CD370008C1370008B7
S315080037B0E5370008FDF786FC03900523029325E00C
S315080037C0FDF780FC0390062302931FE0FDF7EEFC4D
S315080037D003900723029319E0FDF7C6FC0390032321
S315080037E0029313E0FDF7C0FC0390042302930DE057
S315080037F0FDF7D6FC03900223029307E00023029309
S3150800380041F264010A4806F0E5FB00BF019B002B64
S3150800381002D0019B039A1A60009B002B02D0009BE2
S31508003820029A1A6000BF05B05DF804FB00800050DC
S31508003830D0B1000800B585B001900091002302932D
S31508003840244BD3F8603203F00703013B032B29D836
S3150800385001A252F823F000BF693800087938000839
S31508003860973800088938000802AB0021184600F08E
S3150800387071F9102303931DE002AB0021184600F0EE
S31508003880CBF91123039315E0FDF790FC0346029349
S31508003890072303930EE0FDF783FC034602930223F6
S315080038A0039307E00023039341F2C8010A4806F090
S315080038B091FB00BF019B002B02D0029A019B1A6064
S315080038C0009B002B02D0009B039A1A6000BF05B02C
S315080038D05DF804FB00800050D0B1000800B585B043
S315080038E00190009100230293244BD3F8943203F0FD
S315080038F00703013B032B29D801A252F823F000BF86
S3150800390011390008213900083F3900083139000803
S3150800391002AB0021184600F01DF9102303931DE0A1
S3150800392002AB0021184600F077F91123039315E03E
S31508003930FDF73CFC03460293072303930EE0FDF7CD
S315080039402FFC034602930223039307E00023039305
S3150800395041F2FB010A4806F03DFB00BF019B002B24
S3150800396002D0029A019B1A60009B002B02D0009B92
S31508003970039A1A6000BF05B05DF804FB008000508A
S31508003980D0B1000800B585B00190009100230293DC
S31508003990174BD3F8703203F00303012B02D0022B26
S315080039A008D00CE002AB0021184600F035F91123C7
S315080039B003930CE0002302931523039307E00023E7
S315080039C0039341F226110B4806F004FB00BF019B46
S315080039D0002B02D0029A019B1A60009B002B02D092
S315080039E0009B039A1A6000BF05B05DF804FB00BF90
S315080039F000800050D0B10008044B03F580531A46E6
S31508003A004FF48033136700BF704700BF0080005033
S31508003A1008B58020FEF706F90346064A934206D8FB
S31508003A20054B03F500531A464FF48033136700BF5E
S31508003A3008BD00BF005A62020080005000B585B07C
S31508003A4001900091002303931B4BD3F8803003F0B9
S31508003A500303032B12D0032B16D8012B02D0022BFB
S31508003A6006D011E0FDF734FB03900E23029313E012
S31508003A70FDF79CFB0390072302930DE0FDF722FB5D
S31508003A8003900623029307E00023029341F2DF1115
S31508003A900A4806F09FFA00BF019B002B02D0019B43
S31508003AA0039A1A60009B002B02D0009B029A1A60A8
S31508003AB000BF05B05DF804FB00800050D0B10008D7
S31508003AC000B585B001900091002303931F4BD3F8EE
S31508003AD0003103F00303032B1FD801A252F823F089
S31508003AE0153B0008F13A0008FD3A0008093B0008B2
S31508003AF0FDF73AFB03900323029316E0FDF7C6FB96
S31508003B0003900923029310E006F059FA039008235C
S31508003B1002930AE00123029307E00023029341F28D
S31508003B2015210B4806F056FA00BF019B002B02D060
S31508003B30019B039A1A60009B002B02D0009B029AF5
S31508003B401A6000BF05B05DF804FB00BF0080005096
S31508003B50D0B1000800B585B0019000910023039309
S31508003B602B4BD3F8203103F00703062B37D801A2D5
S31508003B7052F823F0C13B0008913B00089D3B000822
S31508003B80B53B0008A93B0008C73B0008D33B000823
S31508003B90FDF798FA03900523029328E0FDF7E4FA67
S31508003BA003900323029322E0FDF700FB039007230B
S31508003BB002931CE0FDF7F4FA03900223029316E041
S31508003BC00123029313E0FDF77DFA0390062302937F
S31508003BD00DE0FDF7C9FA03900423029307E00023DA
S31508003BE0029341F25C210B4806F0F4F900BF019BF1
S31508003BF0002B02D0019B039A1A60009B002B02D06F
S31508003C00009B029A1A6000BF05B05DF804FB00BF6E
S31508003C1000800050D0B1000800B585B00190009131
S31508003C20002303931F4BD3F8403103F00303032B00
S31508003C301FD801A252F823F06D3C0008493C000841
S31508003C40553C0008613C000806F0BCF903900A23BD
S31508003C50029316E0FDF71AFB03900923029310E07E
S31508003C6006F0B4F903900C2302930AE001230293A9
S31508003C7007E00023029341F28E210B4806F0AAF9C9
S31508003C8000BF019B002B02D0019B039A1A60009B80
S31508003C90002B02D0009B029A1A6000BF05B05DF89F
S31508003CA004FB00BF00800050D0B1000800B585B005
S31508003CB001900091002303931F4BD3F8603103F062
S31508003CC00303032B1FD801A252F823F0013D000875
S31508003CD0DD3C0008E93C0008F53C000806F072F9EE
S31508003CE003900A23029316E0FDF7D0FA03900923FE
S31508003CF0029310E006F06AF903900C2302930AE097
S31508003D000123029307E0002302934FF496510B48D0
S31508003D1006F060F900BF019B002B02D0019B039AB5
S31508003D201A60009B002B02D0009B029A1A6000BF03
S31508003D3005B05DF804FB00BF00800050D0B1000854
S31508003D4084B0019000914FF440130393009B002B1D
S31508003D500AD1019B0D4A934203D94FF4801303936A
S31508003D600FE0002303930CE0009B002B09DD019B69
S31508003D70074A934203D94FF48013039301E00023C3
S31508003D800393039B184604B0704700BF005A6202AB
S31508003D90002D310100B585B001900091184B03F54F
S31508003DA080531A464FF4803393660020FDF7B2FD20
S31508003DB00246019B02FB03F30193FDF77DFD0346D3
S31508003DC08DF80F30FDF78EFDFDF794FD034623F4BD
S31508003DD04013029300990198FFF7B2FF0246029B2F
S31508003DE0134302930298FDF78BFD9DF80F30002BC5
S31508003DF001D0FDF76FFD00BF05B05DF804FB00BFFD
S31508003E000080005000B585B0019000910023029310
S31508003E101D4BD3F8803103F00303032B0ED0032B7D
S31508003E201AD8012B02D0022B0FD015E002AB0021C5
S31508003E301846FFF78FFE1023039315E0FDF7B6F932
S31508003E4003460293072303930EE0FDF7A9F90346F9
S31508003E5002930223039307E00023039341F2B1314F
S31508003E600A4806F0B7F800BF019B002B02D0029A59
S31508003E70019B1A60009B002B02D0009B039A1A60D4
S31508003E8000BF05B05DF804FB00800050D0B1000803
S31508003E9000B583B0022301934FF4C070FDF7C2FE4C
S31508003EA00346074A934201D80123019301994FF427
S31508003EB02070FDF7A5FD00BF03B05DF804FB00BF49
S31508003EC080F0FA0200B585B00190009100230393B3
S31508003ED01F4BD3F8403203F00303032B1FD801A26C
S31508003EE052F823F0193F0008F53E0008013F000884
S31508003EF00D3F000806F066F803900A23029316E0C1
S31508003F00FDF7C4F903900923029310E006F05EF862
S31508003F1003900C2302930AE00123029307E000238F
S31508003F20029341F22E410B4806F054F800BF019B5C
S31508003F30002B02D0019B039A1A60009B002B02D02B
S31508003F40009B029A1A6000BF05B05DF804FB00BF2B
S31508003F5000800050D0B1000800B585B001900091EE
S31508003F6000230393244BD3F8003203F00703042BF2
S31508003F7029D801A252F823F0C13F00088D3F000856
S31508003F80993F0008A53F0008B13F000806F01AF857
S31508003F9003900A2302931EE0FDF778F9039009239C
S31508003FA0029318E006F012F803900C23029312E02D
S31508003FB0FDF7B6F803469B0A03930F2302930AE01C
S31508003FC00123029307E00023029341F26F410B4855
S31508003FD006F000F800BF019B002B02D0019B039A54
S31508003FE01A60009B002B02D0009B029A1A6000BF41
S31508003FF005B05DF804FB00BF00800050D0B1000892
S3150800400000B585B00190009100230393244BD3F8A3
S31508004010083203F00703042B29D801A252F823F02B
S315080040206940000835400008414000084D40000836
S315080040305940000805F0C6FF03900A2302931EE0C4
S31508004040FDF724F903900923029318E005F0BEFF53
S3150800405003900C23029312E0FDF762F803469B0ACD
S3150800406003930F2302930AE00123029307E0002338
S31508004070029341F2A7410B4805F0ACFF00BF019B34
S31508004080002B02D0019B039A1A60009B002B02D0DA
S31508004090009B029A1A6000BF05B05DF804FB00BFDA
S315080040A000800050D0B1000800B585B0019000919D
S315080040B000230393114B1B6803F00403002B06D05F
S315080040C0FDF72EF8034603930D23029305E002AA93
S315080040D003AB11461846FFF79FFD019B002B02D044
S315080040E0039A019B1A60009B002B02D0029A009B40
S315080040F01A6000BF05B05DF804FB00BF10E000E0E1
S31508004100024B034A1A6400BF704700BF00400950BB
S315080041103254FFFF024B4AF6CD321A6400BF70478D
S315080041200040095082B0019000BF054B5A6B019BB5
S315080041301340002BF9D100BF00BF02B0704700BF83
S315080041400040095008B500BF0421044806F00FF8DE
S315080041500346002BF8D100BF00BF08BD84400050BD
S3150800416008B5FFF7EFFF044BD3F884309B0903F03B
S315080041700303DBB2184608BD0040005082B0019028
S31508004180044B03F500531A46019BC2F8203400BFBE
S3150800419002B0704700C0035000B583B00190019B80
S315080041A01A78054B1A700121002000F077F800BF35
S315080041B003B05DF804FB00BF3C11002082B00190FB
S315080041C0064B5B6F23F44072019B5B781B02034925
S315080041D013434B6700BF02B0704700BF0040005052
S315080041E000B583B003468DF807300F4B1B690E4A9E
S315080041F043F00403136103F077FD05F0D3FF0B4882
S31508004200FFF7BCFF30BF05F0CFFF03F0B7FD9DF801
S31508004210073083F00103DBB2002B01D005F0A2FFC3
S3150800422000BF03B05DF804FB00ED00E00000FF0FDF
S3150800423000B583B003468DF807300D4B1B690C4A51
S3150800424043F0040313610B48FFF798FF03F04CFD96
S3150800425030BF03F093FD9DF8073083F00103DBB20E
S31508004260002B01D005F07EFF00BF03B05DF804FB0C
S3150800427000ED00E00000FF0F82B00190064BDB6EF8
S3150800428023F03003019A12791146034A0B43D36689
S3150800429000BF02B0704700BF0040005000B585B0AF
S315080042A001900B468DF80330019B002B03D1FCF7D8
S315080042B00FFF039001E0019B03930D4B1B78002B26
S315080042C00AD0039B0B4A934206D89DF80330194639
S315080042D0012000F011F806E09DF803301946022087
S315080042E000F00AF800BF00BF05B05DF804FB00BF88
S315080042F03C110020005A620210B586B003460A46F1
S315080043008DF8073013468DF80630FFF729FF034668
S315080043101A469DF80730934252D0FCF7D9FE05900D
S31508004320059B04939DF80730012B0CD1049B264A64
S31508004330934204D940F29271244805F04BFE0121BC
S31508004340059805F0B8FE05F0DCFE0390204B03F552
S3150800435000531A464FF0007353669DF80730184607
S3150800436005F028FF1A4C9DF80730184605F00CFF93
S31508004370034623670BE0164BD3F8843003F020037B
S31508004380002B04D04FF4F461104805F023FE104BBF
S315080043905B6E03F00073002B06D10D4BD3F8843007
S315080043A003F02003002BE6D0039805F0B6FE9DF82F
S315080043B00730022B05D10021059805F07CFE00E0A8
S315080043C000BF06B010BD00BF005A620204B2000862
S315080043D00040005000B587B003468DF8073000232B
S315080043E0059300230493404B03F580531A464FF078
S315080043F0004353663D4B5B6C03F00103002B14BF6F
S31508004400012300238DF80F30FFF784FE9DF807304F
S31508004410002B28D10120FFF785FE344B5B6803F09B
S3150800442001030293029B002B50D0304B03F5005337
S315080044301A460123536002E0049B013304932B4B75
S315080044401B6B03F00103002B03D1049B284A9342FC
S31508004450F2D9049B264A934238D90723059335E0B7
S31508004460049B01330493214B1B6B03F00803002BB9
S3150800447003D0049B1E4A9342F2D9049B1C4A9342DA
S3150800448002D90723059321E0184B03F500531A4672
S3150800449020239362154B03F580531A460123536074
S315080044A00023049302E0049B013304930F4B9B6A99
S315080044B003F02003002B03D1049B0D4A9342F2D943
S315080044C0049B0B4A934201D9072305939DF80F30A5
S315080044D0002B01D0FFF714FE05F073FE059B184666
S315080044E007B05DF804FB00BF00800050004009508B
S315080044F03F420F0000B585B00190254B03F5805368
S315080045001A464FF000435366224B5B6C03F00103D7
S31508004510002B14BF012300238DF80F30FFF7FAFD97
S31508004520019B5B785B001C4A43F00103D3630B20B5
S31508004530FFF7F8FD174B5B6823F4F872019B9B782D
S315080045401B01144913434B60019BDB781B02019A3C
S31508004550527911460F4A0B439360019B1B791B0244
S31508004560019A927911460B4A0B431361019B1B78FA
S315080045701846FFF72FFF9DF80F30002B01D0FFF7E5
S31508004580BFFD05F01EFE0123184605B05DF804FBC5
S3150800459000800050004009500040005000B585B02A
S315080045A0019000238DF80F3000238DF80E30019B03
S315080045B00F2B04D940F62D61224805F00BFD019B0F
S315080045C00F2B01D90F2301931F4B5B6EDB0F8DF861
S315080045D00E301D4B03F580531A464FF000435366C1
S315080045E01A4B5B6C03F00103002B14BF0123002355
S315080045F08DF80F30FFF78EFD8020FFF793FD134BE4
S315080046001B6A23F00F021149019B13430B629DF8A5
S315080046100F30002B01D0FFF773FD9DF80E3083F0A5
S315080046200103DBB2002B06D0074B03F500531A46ED
S315080046304FF00043536605F0C4FD00BF05B05DF8B2
S3150800464004FB00BF04B20008008000500040095077
S3150800465000B583B0034600918DF807309DF8073002
S31508004660002B14D09DF80730012B0ED09DF807308B
S31508004670022B07D09DF80730032B01D13F2307E013
S31508004680002305E040F2FF3302E00F2300E0FF239A
S31508004690009AD34003F00103002B04D140F2FE3107
S315080046A00A4805F097FC0A489DF807200121009B57
S315080046B0994013465B0013441B01034403F5015359
S315080046C0196000BF03B05DF804FB00BF6CB20008B8
S315080046D000C0035000B583B0034600918DF807303B
S315080046E09DF80730002B14D09DF80730012B0ED00B
S315080046F09DF80730022B07D09DF80730032B01D110
S315080047003F2307E0002305E040F2FF3302E00F23D2
S3150800471000E0FF23009AD34003F00103002B04D1E5
S3150800472040F22D410A4805F055FC0A489DF8072035
S315080047300121009B994013465B0013441B01034467
S3150800474003F58253196000BF03B05DF804FB00BF90
S315080047506CB2000800C0035000B585B00291019202
S31508004760009303468DF80F309DF80F30002B14D0B8
S315080047709DF80F30012B0ED09DF80F30022B07D075
S315080047809DF80F30032B01D13F2307E0002305E0F6
S3150800479040F2FF3302E00F2300E0FF23029AD340E2
S315080047A003F00103002B04D14FF4B071304805F033
S315080047B011FC019B002B0FD0009B002B06D09DF807
S315080047C00F3002991846FFF785FF05E09DF80F3070
S315080047D002991846FFF73CFF029B072B17D89DF84E
S315080047E00F2013465B0013441B011A1D214B13446B
S315080047F0029A92000F2101FA02F0029A9200019998
S3150800480001FA02F20146184605F0DDFC19E09DF8AA
S315080048100F2013465B0013441B0103F10C02154BD2
S315080048201344029A083A92000F2101FA02F0029AFA
S31508004830083A9200019901FA02F20146184605F073
S31508004840C2FC019B002B0FD1009B002B06D09DF8C4
S315080048500F3002991846FFF73DFF05E09DF80F3027
S3150800486002991846FFF7F4FE00BF05B05DF804FB91
S31508004870A4B2000830C0035000B587B00390029177
S315080048800192029B1F2B03D991210C4805F0A2FB2C
S31508004890019B002B04D0039B03F58053059303E08B
S315080048A0039B03F500530593059B0121029A01FA20
S315080048B002F21A6000BF07B05DF804FBDCB200081C
S315080048C000B589B00390029101928DF80330019BDF
S315080048D0002B04D140F215115B4805F07BFB019BC8
S315080048E0002B00F0AD809DF8033003F003038DF82C
S315080048F00330039B9B6823F44072039B9A60039BD7
S3150800490003F108009DF803301B021A464FF4407164
S3150800491005F084FC029B002B16D1039BB3F1B64F1E
S3150800492004D12E20FDF77EF902900DE0039B474A3D
S31508004930934204D12F20FDF775F9029004E040F266
S315080049402F11414805F046FB4FF0FF330793039BB1
S315080049509B6803F00203002B13D09DF80330022B4B
S315080049600CD0022B21DC002B02D0012B03D01CE03B
S31508004970374B07931CE0374B079319E0364B0793E1
S3150800498016E09DF80330022B0CD0022B0FDC002B0F
S3150800499002D0012B03D00AE02D4B079308E02F4BDA
S315080049A0079305E02E4B079302E000BF00E000BF27
S315080049B0029A079B9A4204D84FF4B271224805F02E
S315080049C009FB9DF80330274AD35C0593059B019A9A
S315080049D002FB03F30493049B002B05D140F27511E7
S315080049E0194805F0F7FA2CE0019BDB00029AD21A67
S315080049F0049B13445A1E049BB2FBF3F3013B069334
S31508004A00069B002B04DA40F27B110F4805F0E2FA08
S31508004A10069BB3F5007F04D34FF4BE710A4805F030
S31508004A20D9FA039B9B6803F00203002B04D0069B6C
S31508004A30002B01D101230693069A039B9A6100E095
S31508004A4000BF09B05DF804FB10B3000800800650EB
S31508004A5080841E00404B4C00809FD500405489003E
S31508004A60002D310144B3000800B583B001900B4610
S31508004A708DF80330019BB3F1B64F08D0019B0A4A63
S31508004A80934204D040F29511084805F0A3FA019B19
S31508004A9004339DF8032000211846FFF7EDFE00BFFA
S31508004AA003B05DF804FB00BF0080065010B3000891
S31508004AB000B583B001900091019BB3F1B64F08D0C1
S31508004AC0019B174A934204D04FF4D571154805F057
S31508004AD081FA019B00221A641349019805F092FB9A
S31508004AE0019B03F10800009B5B7883F00103DBB2AE
S31508004AF01A460121FFF7C0FE009B5968009B9A6879
S31508004B00009B1B7B0198FFF7DBFE009B1B78194671
S31508004B100198FFF7A9FF00BF03B05DF804FB00BFCB
S31508004B200080065010B30008FFFF1F0000B58BB0C9
S31508004B30019000238DF81F30019BB3F1B64F08D0C2
S31508004B40019BA04A934204D040F201219E4805F0F9
S31508004B5041FA019BB3F1B64F02D19C4B089309E089
S31508004B60019B984A934202D1994B089302E06FF051
S31508004B7003033CE2089B9B6806931BE2019BDB6BE5
S31508004B800593059B03F4C063002B14D0059B03F41F
S31508004B900073002B03D0089BFD225A7007E0059B83
S31508004BA003F48063002B02D0089BFE225A70089BF0
S31508004BB009221A7006E2089B1B78082B00F2EF817F
S31508004BC001A252F823F000BFED4B0008454C00083F
S31508004BD0D54C0008314D00089F4D00080B4E0008C3
S31508004BE09F4E0008E74E00087D4F0008069B5B882D
S31508004BF003F01003002B09D0069B1B881B0A9BB2E7
S31508004C0003F0060343F0F00309930EE0069B1B88A6
S31508004C1003F0FE030993069B5B8803F00203002B4F
S31508004C2003D0099B43F001030993089B01221A70DC
S31508004C30019B099A5A63019B0122DA6001238DF8C8
S31508004C401F30B7E1059B03F08003002B0DD08021B0
S31508004C50019805F0D7FA089BFF225A70089B08228C
S31508004C601A70019B0222DA6030E0059B03F04003CC
S31508004C70002B2BD04021019805F0C4FA069B5B88CF
S31508004C8003F01003002B08D0089B02221A70069B1B
S31508004C901B88DAB2019B5A6318E0069B5B8803F00F
S31508004CA00203002B0ED0089B07221A70089B1B795B
S31508004CB0069ADB0013441B89012B07D1019B0822A6
S31508004CC0DA6003E0089B05221A7073E101238DF868
S31508004CD01F306FE1059B03F08003002B0DD0802168
S31508004CE0019805F08FFA089BFF225A70089B082244
S31508004CF01A70019B0222DA6016E0059B03F0400356
S31508004D00002B11D04021019805F07CFA069B5B88A0
S31508004D1003F00203002B03D0089B03221A7049E113
S31508004D20089B05221A7045E101238DF81F3041E1E1
S31508004D30069B5B8803F01003002B09D0069B1B8893
S31508004D401B0A9BB203F0060343F0F003099304E041
S31508004D50069B1B8803F0FE030993069B5B8803F0FA
S31508004D600403002B0ED0099B43F001030993089B0B
S31508004D701B79069ADB0013441B89012B02D1019B80
S31508004D800822DA60089B04221A70019B0122DA6065
S31508004D90019B099A5A6301238DF81F300AE1059B86
S31508004DA003F08003002B15D08021019805F02AFA1C
S31508004DB0089BFF225A70089B08221A70019B022240
S31508004DC0DA601EE00080065010B30008401100208B
S31508004DD04C110020059B03F04003002B11D0402105
S31508004DE0019805F00FFA069B5B8803F00403002B75
S31508004DF003D0089B07221A7003E0089B05221A7045
S31508004E00D8E001238DF81F30D4E0089B5A88089B08
S31508004E101B790699DB000B441B899A4227D3089B0A
S31508004E2000225A80089B1B790133DAB2089B1A7153
S31508004E30069B5B8803F00403002B03D0089B032220
S31508004E401A70B7E0069B5B8803F00103002B04D1B8
S31508004E50089B1B79012B40F2AC80089B08221A702C
S31508004E60019B0222DA6001238DF81F30A2E0089B1D
S31508004E701B79069ADB0013445A68089B5B88591C01
S31508004E8088B20899488013441B781A46019B5A63CE
S31508004E90089B06221A7001238DF81F308AE0059BAD
S31508004EA003F08003002B0DD08021019805F0AAF9A4
S31508004EB0089BFF225A70089B08221A70019B02223F
S31508004EC0DA600CE0059B03F04003002B07D0402175
S31508004ED0019805F097F9089B05221A706AE00123E4
S31508004EE08DF81F3066E0059B03F02003002B41D0A8
S31508004EF0089B1B79069ADB0013441B890493019BC4
S31508004F005B6A8DF80F302021019805F07BF9089B24
S31508004F105B881A46049B93420FD9089B1B79069A0D
S31508004F20DB0013445A68089B5B88591C88B20899A9
S31508004F30488013449DF80F201A70089B5B881A4610
S31508004F40049B934206D8089B08221A70019B0222EA
S31508004F50DA600FE0019B0422DA60049B012B09D971
S31508004F60089B5B881A46049B013B9A4202D1019B27
S31508004F700822DA6001238DF81F301BE0059B03F435
S31508004F808073002B07D04FF48071019805F03AF929
S31508004F90089B09221A7001238DF81F300AE0089B26
S31508004FA0FB225A70089B09221A7001238DF81F30BC
S31508004FB000E000BF9DF81F3083F00103DBB2002B31
S31508004FC07FF4DCAD089B1B78092B0BD1019B0022D3
S31508004FD01A64089B93F90130012B05D1089B00221E
S31508004FE05A7001E0012302E0089B93F90130184644
S31508004FF00BB05DF804FB00BF00B585B001900091C9
S31508005000019BB3F1B64F08D0019B344A934204D0B2
S3150800501040F26931324804F0DDFF009B002B04D1D1
S3150800502040F26A312E4804F0D5FF019BB3F1B64F22
S3150800503002D12C4B039309E0019B284A934202D1E3
S31508005040294B039302E06FF0030342E0019B1B69BF
S3150800505003F00103002B02D0019B2022DA60009B9B
S315080050605B8803F00203002B03D0009B1B89002BEF
S3150800507009D0009B5B8803F00403002B06D0009B35
S315080050801B8A002B02D16FF0030322E0039B002248
S315080050901A70039B01225A70039B00225A80039BB5
S315080050A000221A71039B009A9A60019BC022DA605B
S315080050B0019805F0CDF80D49019805F0A3F8019B74
S315080050C01B6C43F4FC62019B1A640198FFF72EFDE2
S315080050D00346184605B05DF804FB00BF008006507D
S315080050E010B30008401100204C110020FFFF1F00DC
S315080050F082B0019000BF019B5B6903F08073002BAF
S31508005100F9D1019B03F500531A460123536000BFEA
S31508005110044B5B6803F00203002BF9D100BF00BF04
S3150800512002B070470040005930B5A5B0059004910B
S3150800513003924FF000031C93B54B07AC1D460FCDE9
S315080051400FC495E8030084E80300059BB14A93421F
S3150800515003D0F121B04804F03DFF0022AF4905987D
S3150800516000F0B2FD03468DF88730049B5B79ADF8F5
S315080051706E309DF887309BB2BDF86E209A4203D3F5
S31508005180BDF86E308DF887300598FFF7B1FF049BA0
S315080051901B798DF886309DF88630002B14D12A208D
S315080051A0FCF740FD1F901F9B9C4A934205D39DF830
S315080051B087301F9AB2FBF3F31F931F99059800F0E7
S315080051C033FD03468DF88630049BDB781B0103F01C
S315080051D030029DF886301B0403F4FE031A439DF83B
S315080051E087301B0703F0E04313432393049B1B7884
S315080051F0002B03D0239B43F002032393049B5B7885
S31508005200002B03D0239B43F004032393049B9B7832
S31508005210002B03D0239B43F008032393059B239A73
S315080052209A60049BDB881A46059B1A61049B1B89B6
S315080052301B04049A52891A43059B1A620023229377
S3150800524000F012BC0399229A13469B0013449B0054
S315080052500B441B788DF86D300399229A13469B00F0
S3150800526013449B000B4408331B68ADF86E309DF859
S315080052706D30002B07D09DF86D30012B01D16849A0
S3150800528002E0684900E068499DF86D209DF887307E
S31508005290009313460022059800F05CFD1A901A9BAD
S315080052A01993BDF86E30ADF86230BDF86220199BCF
S315080052B0934238BF13461A93059A229B1B0113443F
S315080052C048331A68594B134023939DF86D3003F001
S315080052D00302239B42EA03010398229A13469B0082
S315080052E013449B00034401331B789B0003F01C0303
S315080052F019430398229A13469B0013449B000344C0
S3150800530002331B785B01DBB219430398229A1346D2
S315080053109B0013449B00034403331B781B0303F4CD
S31508005320E04319430398229A13469B0013449B00B3
S31508005330034404331B781B0403F4E023194303983E
S31508005340229A13469B0013449B00034410331B7890
S315080053505B0503F4600319430398229A13469B00DE
S3150800536013449B00034405331B781B0703F0405383
S3150800537041EA03020599229B1B010B4448331A6034
S31508005380059A229B1B01134448331B681B0B03F029
S3150800539007031793179B013B042B27D801A252F842
S315080053A023F000BFB9530008B9530008C5530008D5
S315080053B0D3530008DF5300081D4BD3F88031ADF8EE
S315080053C0843019E01A4BD3F880311B0CADF88430C1
S315080053D012E0174BD3F88431ADF884300CE0144B47
S315080053E0D3F884311B0CADF8843005E0104BD3F8A4
S315080053F08031ADF8843000BF9DF86D30012B02DC9A
S31508005400002B17DA1DE3022B00F0C68119E300BF53
S3150800541080B300080040005948B30008005A6202E9
S31508005420002D3101404B4C0080969800008F18CF14
S315080054300080E00F4FF000031E93179B032B1BD130
S315080054409DF86D30002B0BD1C64BD3F88C311B0C55
S315080054501BB207EE903AF8EEE77ACDED1E7A52E0E7
S31508005460C04BD3F894311B0C1BB207EE903AF8EEFA
S31508005470E77ACDED1E7A46E0179B042B1DD19DF8E1
S315080054806D30002B0CD1B74BD3F88C311B0C1BB2EB
S315080054905B0007EE903AF8EEE77ACDED1E7A32E039
S315080054A0B04BD3F894311B0C1BB25B0007EE903A55
S315080054B0F8EEE77ACDED1E7A25E0179B052B22D16B
S315080054C09DF86D30002B0FD1A64BD3F88C311B0CF1
S315080054D01BB21A4613465B00134407EE903AF8EEE1
S315080054E0E77ACDED1E7A0EE09E4BD3F894311B0C6D
S315080054F01BB21A4613465B00134407EE903AF8EEC1
