:020000040800F2
:1000000000100020490900088D5F00088D5F00087E
:100010008D5F00088D5F00088D5F00088D5F000810
:100020008D5F00088D5F00088D5F00088D5F000800
:100030008D5F00088D5F00088D5F00088D5F0008F0
:100040008D5F00088D5F00088D5F00088D5F0008E0
:100050008D5F00088D5F00088D5F00088D5F0008D0
:100060008D5F00088D5F00088D5F00088D5F0008C0
:100070008D5F00088D5F00088D5F00088D5F0008B0
:100080008D5F00088D5F00088D5F00088D5F0008A0
:100090008D5F00088D5F00088D5F00088D5F000890
:1000A0008D5F00088D5F00088D5F00088D5F000880
:1000B0008D5F00088D5F00088D5F00088D5F000870
:1000C0008D5F00088D5F00088D5F00088D5F000860
:1000D0008D5F00088D5F00088D5F00088D5F000850
:1000E0008D5F00088D5F00088D5F00088D5F000840
:1000F000EB6000088D5F00088D5F00088D5F0008D1
:100100008D5F00088D0400088D5F00088D5F00087A
:100110008D5F00088D5F00088D5F00088D5F00080F
:100120008D5F00088D5F00088D5F00088D5F0008FF
:100130008D5F00088D5F00088D5F00088D5F0008EF
:100140008D5F00088D5F00088D5F00085563000813
:100150008D5F00088D5F00088D5F00088D5F0008CF
:100160008D5F00088D5F00088D5F00088D5F0008BF
:10017000013800D0FCE770470348044B834202D0AB
:10018000034B03B118477047F8100020F810002007
:1001900000000000064B0749C91A891048BF013109
:1001A000491003D0044B0BB101481847704700BFFA
:1001B000F8100020F81000200000000010B5064CD8
:1001C000237843B9FFF7D8FF044B13B10448AFF3CA
:1001D00000800123237010BD4613002000000000A2
:1001E000706F000808B5054B1BB105490548AFF312
:1001F0000080BDE80840FFF7CDBF00BF0000000051
:10020000F8100020706F0008A3F5803A704700BF17
:10021000174B002B08BF134B9D46FFF7F5FF00213E
:100220008B460F461348144A121A06F03EF90E4B3D
:10023000002B00D098470D4B002B00D09847002092
:10024000002104000D000D48002802D00C48AFF337
:10025000008005F091F92000290005F07AFD04F0F6
:10026000D1FF00BF000008000000000000000000F7
:1002700000100020F810002068130020000000008B
:1002800000000000014BD3F8D430704700C0035089
:1002900007B5002304220221032002F071FA05F0C1
:1002A00064FD4FF44073044801A9ADF8043000F038
:1002B00027F803B05DF804FB1811002010B50023E7
:1002C0000D4C04220221032002F05AFAFFF7DAFF54
:1002D000042201230221032002F052FA2046FFF7F4
:1002E000D1FF00F0FDF8204605F02EFDBDE81040DE
:1002F000024805F03CBD00BF18110020101100207D
:10030000F0B50368064693B0002B40F08A800922BE
:100310000271544A10461479002C7AD101223371AB
:1003200003EB8303C41831602271C2540A784B78FE
:10033000083243EA02134C4A637013780133137096
:100340004A4D08AC0FCD0FC40FCD0FC495E8030084
:1003500000274FF4403384E80300022401212A20BF
:100360000393CDE905770797ADF810708DF81270FB
:1003700001F050F802214FF4B06001F0E7FC3A467A
:100380003B493C488DF8174002F034FD03238DF8BB
:10039000243040F6E4433A4637498DF819000B9370
:1003A00000903B4633488DF821708DF8234002F0D1
:1003B00053FD07238DF80E3001230A9008AA2D481B
:1003C00005A98DF80D3002F09FFD264A294803A9A2
:1003D00002F070FC33681A78284B32BBD3F8202324
:1003E00042F00102C3F82023D3F8202342F48032E4
:1003F000C3F82023224B23491E4A5962936A43F4CF
:10040000807393624FF400321F4BC3F884215A600B
:1004100005E00133082B02F105027FF47CAF13B035
:10042000F0BD0379092B8BD1F9E7012A0CD1D3F860
:10043000242342F00102C3F82423D3F8242342F4F6
:100440008032C3F82423D5E7D3F8282342F00102F1
:10045000C3F82823D3F8282342F48032C3F8282392
:10046000C8E700BF9610002048130020006900086C
:10047000002D3101004000598096980000C00350C3
:10048000006000598F330F8000E100E037B5104D58
:10049000104CD5F888301B0708D101220E4B1A707A
:1004A0004FF480720D4B5A6203B030BD2946684646
:1004B00005F005FE9DF80420BDF8003024F8123048
:1004C00034F812309BB21B019BB224F81230E0E7E3
:1004D00000400059341300204713002000600059E9
:1004E0000822084BDA60084B1A78012AFCD1002157
:1004F00002791970054B33F8120023F8121080B2FC
:10050000704700BF004000594713002034130020FB
:1005100010B5274C01F0CEF901F0F6FB236F23F064
:10052000070343F00303236705F075FD214B00200B
:100530009B6ADB015EBF4FF480321F4B9A62D4F896
:10054000203123F0070343F00203C4F82031D4F82C
:10055000283123F0070343F00203C4F82831D4F80C
:10056000403123F0030343F00203C4F84031D4F8D0
:10057000603123F0030343F00203C4F86031D4F880
:10058000403223F0030343F00203C4F84032D4F8AE
:10059000003223F0070343F00203C4F80032D4F81A
:1005A000083223F0070343F00203C4F8083210BDF9
:1005B000008000500040005A0060005A08B53A2000
:1005C000012100F027FFBDE80840014800F086BB8C
:1005D0000010002013B5012000F058F80446012057
:1005E00000F0E2F8F4B9154C1549206805F0CAFD91
:1005F0001449206805F0C6FD05F02CFC05F02BFC25
:10060000114B124A009312493823206805F0BAFDB5
:100610001049114A206805F0B5FD1049206805F021
:10062000B1FDFEE74021204605F099FCB0FA80F3C9
:100630000B4A5B09137002B010BD00BF20110020EF
:10064000C769000828690008C96900082D69000801
:10065000756900089469000881690008AC690008A0
:1006600049130020084B70B51B7804460D464BB16A
:10067000012000F00BF82B462246BDE870404021D7
:1006800005F023BC112070BD49130020102808D8A4
:10069000054B23FA00F010F0010003D0034B18685B
:1006A00070470020704700BF1601010014100020A1
:1006B000012208B5074B1A700022074B1A7004225A
:1006C000064B1A701F22064B1A7003F0BDFA054B39
:1006D000186008BDE81000204A130020E710002031
:1006E000E61000202011002038B5054605F0AFFCCB
:1006F00000230B4A14685CB1AC4206D1A96A6BB105
:10070000996205F0AAFC012007E02346A46AF2E7FB
:10071000002DF3D005F0A1FC204638BD1160F0E7B4
:10072000241100202DE9F041144E336823B34FF01B
:100730000008134F05F08BFC05463C6824B9284699
:10074000BDE8F04105F089BC94F82C3093B13368D2
:1007500084F82C80013B336094F82D3013B9204687
:10076000FFF7C2FF284605F078FCD4E9083120469F
:100770009847DFE7A46AE1E7BDE8F081281100208F
:1007800024110020034B1B68002B14BF0420012000
:10079000704700BF28110020024B1868B0FA80F0A3
:1007A0004009704728110020082808B504D00FDC44
:1007B000022809DC002809DD012304220921022086
:1007C00001F0DEFF002008BD0428F5D0D82106E0A6
:1007D0002028F1D0402807D01028F7D1B9210448AB
:1007E00005F0E8FB0E20EEE7012304220821E6E7EE
:1007F000DC6900080122024BC3F8A020704700BF4B
:1008000000D003500122024BC3F8A020704700BF64
:1008100000E0035070B5404D88B001AC0FCD0FC45F
:1008200095E8070084E80700012401213A2000F040
:10083000F1FD3A4E0121292000F0ECFD384B304605
:1008400001A903938DF8124002F00CFF2346042205
:100850000321022001F094FF0221224608460023D2
:1008600001F08EFF234621460422022001F088FF7A
:10087000042200212346022001F082FF294D2A4B49
:100880004FF44870C5F834374FF00213C5F83037CD
:1008900003F58033C5F838371C23C5F8203704F03A
:1008A000F5FA1420FFF7AEFF04F0F0FA2320FFF76B
:1008B000A1FF04F0EBFAB9213046FFF7A3FF05F0E2
:1008C00008FCFFF797FF002303211A46022001F0DE
:1008D00057FF002302211A46084601F051FF234624
:1008E00021460022022001F04BFF00222346114640
:1008F000022001F045FF304602F088FE0021292049
:10090000C5F83417C5F83017C5F83817C5F82017DB
:1009100000F080FD08B070BD206A000800C00550DE
:1009200000127A0000C00350020001000348044A8C
:100930000449121A921005F02ABB00BF7C7000080F
:100940007C7000086813002008B500F02FF8FFF74E
:10095000EDFF124B12498B4212D30020114B12496A
:100960008B4218D3FFF754FC186850F8224058689F
:1009700040F82240013298688242F5D30C33EAE70E
:100980000022F8E71C6844F8220001325C68A242A9
:10099000F8D30833E4E70022F8E700BF786F0008D7
:1009A000846F0008846F0008846F00084FF4804152
:1009B0004FF0FF30114B124A10B59A60D3F88820DF
:1009C00042F47002C3F888200E4A91660E4901F580
:1009D000005210660D4850660220C3F8D000BFF3E5
:1009E0004F8FBFF36F8F01244FF440330848C0F896
:1009F0008041D36004600B6110BD00BF00ED00E0DA
:100A0000000000080090005000800044F7FF37000D
:100A100000E100E0014B1868704700BF1C10002087
:100A2000084B1B6F03F00703022B04D0032B05D0E8
:100A3000012B05D0FEE7044B18687047034BFBE71A
:100A400003487047008000501C1000202410002034
:100A5000002D310108B5FFF7E3FF054B1B6FC3F312
:100A600003330133B0FBF3F0024B186008BD00BF45
:100A700000800050181000200048704700B4C404E3
:100A8000014B1868704700BF24100020054B186008
:100A9000054B1B6F03F00703032B01D1FFF7DABFF0
:100AA000704700BF241000200080005000487047AD
:100AB000002D31014FF0B4439868C0F304400C2876
:100AC0000AD8DFE800F00B0909090909072119090B
:100AD0001B1D1F000F487047002070479B6803F0E4
:100AE0004073B3F1807F11D0B3F1007F10D00A4A78
:100AF000002B08BF104670470848704708487047E9
:100B000008487047084870470848704708487047C9
:100B100008487047405DC60000093D00C0EA210159
:100B200080BA8C010048E801005A62020024F400F7
:100B300080841E0040420F00014B1868704700BFC0
:100B40002010002038B504460D4601B118B93721F0
:100B5000034805F02FFA23682B60256038BD00BFDD
:100B60003C6A00080346054A0549106803448B4265
:100B70008CBF4FF0FF301360704700BF281000207B
:100B80000000042008B501213A2000F043FC0123B5
:100B900004220321002001F0F3FD002005F075FA86
:100BA0000122354B3549C3F844244FF40022A3F504
:100BB00050335A66324BD3F8FC20D20146D4D1F8D8
:100BC000803023F0030343F00203C1F880304FF478
:100BD000607000F047FC2A4B00F5D520D3F8F020D8
:100BE00000F2FC4042F00102C3F8F020D3F8FC20F0
:100BF00042F08072C3F8FC20224AA3F55D431A60DC
:100C0000214B0222B0FBF3F0204B01381861C3F8EE
:100C1000F0204FF48072C3F804234FF060431C4A65
:100C20000020C3F8B02F1B4AC3F8802ED3F8002E43
:100C300042F48072C3F8002EFF2283F82020D3F8FC
:100C4000002E22F48072C3F8002E08BDD3F8FC20D9
:100C500022F08072C3F8FC20D1F8802022F0030239
:100C600042F00202C1F88020D3F8FC2042F08072EA
:100C7000C3F8FC20ABE700BF00D003500080005059
:100C800000ED00E0FF030040F8590D00000004E013
:100C900055CEACC5090001004FF06043D3F8802E5B
:100CA00030B5D20715D501240B4D8440D5F8FC2072
:100CB00042F08072C5F8FC20D3F8002E2243C3F81E
:100CC000002E53F82020002AF0D003F82010002036
:100CD00030BD1120FCE700BF00ED00E02DE9FF472B
:100CE000044618B939214D4805F064F92368B3F179
:100CF000B64F09D04A4A93427BD04F21474804B0AF
:100D0000BDE8F04705F056B92E20012100F082FB26
:100D100001230A226179207901F032FD01230A22A0
:100D2000E179A07901F02CFD0A27DFF80081DFF8D6
:100D300000913C4D267994F805A0032E05D839F88A
:100D4000163023FA0AF3DA0704D440F2FE314046A3
:100D500005F030F93022012302FB065603FA0AF3AC
:100D600006F501563360642004F090F8267994F873
:100D700005A0032E06D82C4B33F8163023FA0AF3BD
:100D8000DB0704D440F22D41404605F013F9302230
:100D9000012302FB065603FA0AF306F58256642085
:100DA000336004F073F8013FC4D12068B0F1B64F4E
:100DB00021D10323C5F8E8346279237943EA024359
:100DC000C5F8EC34E279A37943EA0243C5F8F0347C
:100DD00040F20113ADF80030E36869460293A3685E
:100DE0000193237C8DF80C3001F0B4FD04B0BDE814
:100DF000F0872F2089E70A4B9842E9D10323C5F8F1
:100E0000F8346279237943EA0243C5F8FC34E27985
:100E1000A37943EA0243C5F80035D9E7736A0008AD
:100E20000080065000C00350E86A0008B26A00085B
:100E3000E86A000838B5054601F0D0FE044C0128E8
:100E400001D1013C00D138BD284601F0B5FDF6E7DF
:100E5000E1930400044BD3F88420D206FBD4D3F8EA
:100E60008400C0F3811070470040005038B5124B29
:100E70000546D3F880300C4603F00303022B0BD059
:100E8000032B0DD0012B0FD1FFF7CAFD0E2305B1A7
:100E9000286004B1236038BDFFF70CFE0723F6E796
:100EA000FFF7B8FD0623F2E7044841F2DF1105F031
:100EB00081F800231846EAE700800050F06A000835
:100EC00038B51A4B0546D3F820010C4600F0070050
:100ED000062821D8DFE800F028040C1410181C00A4
:100EE000FFF798FD052305B1286004B1236038BDE4
:100EF000FFF7C6FD0323F6E7FFF7DCFD0723F2E764
:100F0000FFF7D4FD0223EEE7FFF784FD0623EAE7AF
:100F1000FFF7B6FD0423E6E7054841F25C2105F042
:100F200049F800231846DEE70123DCE70080005083
:100F3000F06A000838B5194B0546D3F828310C463D
:100F400003F00703013B052B20D8DFE803F0031370
:100F50001B0F0B17FFF75EFD052305B1286004B1D9
:100F6000236038BDFFF756FD0623F6E7FFF7A2FD25
:100F70000723F2E7FFF784FD0323EEE7FFF780FD89
:100F80000423EAE7FFF792FD0223E6E7044841F273
:100F9000640105F00FF800231846DEE700800050DA
:100FA000F06A0008F7B50027144B0197D3F8804189
:100FB000064604F00304022C0D4614D0032C0DD079
:100FC000012C14D1394601A8FFF77AFF10240EB185
:100FD000019B336005B12C6003B0F0BDFFF76AFDE3
:100FE00007240190F3E7FFF761FD0190EFE741F27D
:100FF000B131034804F0DEFF3C46E8E700800050D2
:10100000F06A0008002337B50193194B0546D3F861
:1010100020320C4603F00703042B1FD8DFE803F04F
:1010200025030F141900002101A8FFF783FF1223E5
:101030000DB1019A2A6004B1236003B030BDFFF7FF
:1010400039FD07230190F3E704F0AEFF0A23019076
:10105000EEE7FFF771FD09230190E9E741F2230173
:10106000044804F0A7FF0023E2E70123E0E700BF04
:1010700000800050F06A000838B5104B0546D3F8E0
:1010800040310C4603F00303022B0BD0032B0DD091
:10109000012B0FD104F088FF0A2305B1286004B1A9
:1010A000236038BDFFF748FD0923F6E704F07FFF12
:1010B0000C23F2E701230020EFE700BF008000507F
:1010C000002337B50193184B0546D3F860320C4620
:1010D00003F00703013B032B1FD8DFE803F0020EE8
:1010E0001914002101A8FFF7EBFE10230DB1019A9E
:1010F0002A6004B1236003B030BD002101A8FFF7CE
:10110000BBFF1123F2E7FFF7D5FC07230190EDE7C2
:10111000FFF7CCFC02230190E8E741F2C801034845
:1011200004F048FF0023E1E700800050F06A000867
:10113000002337B50193184B0546D3F894320C467B
:1011400003F00703013B032B1FD8DFE803F0020E77
:101150001914002101A8FFF7B3FE10230DB1019A65
:101160002A6004B1236003B030BD002101A8FFF75D
:1011700083FF1123F2E7FFF79DFC07230190EDE7C2
:10118000FFF794FC02230190E8E741F2FB010348DA
:1011900004F010FF0023E1E700800050F06A00082F
:1011A00073B500240F4B0194D3F87032064603F058
:1011B0000303012B0D4607D0022B11D041F226115B
:1011C000094804F0F7FE04E0214601A8FFF754FFA8
:1011D00011240EB1019B336005B12C6002B070BDCB
:1011E0001524F6E700800050F06A000838B5164B69
:1011F0000546D3F800020C4600F00700042819D871
:10120000DFE800F020030B0F130004F0CDFE0A23EB
:1012100005B1286004B1236038BDFFF78DFC0923B8
:10122000F6E704F0C4FE0C23F2E7FFF713FC0F23EC
:10123000800AEDE7054841F26F4104F0BBFE002350
:101240001846E5E70123E3E700800050F06A000854
:1012500038B5164B0546D3F808020C4600F00700D7
:10126000042819D8DFE800F020030B0F130004F066
:101270009BFE0A2305B1286004B1236038BDFFF747
:101280005BFC0923F6E704F092FE0C23F2E7FFF77C
:10129000E1FB0F23800AEDE7054841F2A74104F086
:1012A00089FE00231846E5E70123E3E700800050AC
:1012B000F06A000838B5104B0546D3F840320C46AA
:1012C00003F00303022B0BD0032B0DD0012B0FD106
:1012D00004F06AFE0A2305B1286004B1236038BD1A
:1012E000FFF72AFC0923F6E704F061FE0C23F2E77E
:1012F00001230020EFE700BF0080005038B5104BFD
:101300000546D3F860310C4603F00303022B0BD0E3
:10131000032B0DD0012B0FD104F046FE0A2305B19B
:10132000286004B1236038BDFFF706FC0923F6E707
:1013300004F03DFE0C23F2E701230020EFE700BF9D
:1013400000800050B0F5207F10B52ED009D8B0F540
:10135000007F24D003D868B1B0F5C07F0AD0002444
:101360001BE0B0F5607FFAD1124BD3F88040C4F394
:10137000011412E00F4B1C6F230B13F00E0FC4F37C
:1013800003340AD0072C08D00F2C06D0032C04D02D
:1013900040F28521084804F00DFE601C10BD054B8D
:1013A000D3F89040C4F30464F7E7024B1C6FC4F316
:1013B0008024F2E700800050F06A00084FF4803289
:1013C00038B5104B04469A6600200D46FFF7BAFF69
:1013D00041F671320C4B6043DC69DA635A6804F4FD
:1013E000803422F440125DB90849884294BF00203D
:1013F0000120000502435A600CB10022DA6338BDB7
:101400000349F2E70090005000000350005A6202C6
:10141000002D310138B5430904460D460ED140F286
:101420002F310D4804F0C6FD002304F01F0485B1E0
:1014300003F580530122A2401A6038BD012B04D06D
:10144000022B04D040F23D31EBE7044BEDE7044BB7
:10145000EBE703F50053EDE7F06A00086480005005
:1014600068800050002130B5802885B00446CDE961
:10147000001100F09F8035D85E2846D85E2844D8F9
:10148000DFE800F09E434343434343434343434326
:10149000434343434343434343434343434343431C
:1014A000434343439EAB9EABBBBBBBBBBBABC55037
:1014B000DB7450ABABAB4343434343434343ABAB1E
:1014C000AB7CE5AB43434343434343434343434341
:1014D00043BB9E9E9EE05050EA8B61C04343434312
:1014E00043939E00B0F5B06F00F0918030D8B0F516
:1014F000207F72D00FD8B0F5C07F61D0B0F5007FEB
:1015000061D0B0F5807F00F0878040F2944155486B
:1015100004F050FD51E0B0F5607F69D00DD8B0F512
:10152000407FF2D1FFF796FA04464FF42070FFF7A0
:1015300009FFB4FBF0F4640858E0B0F5806F5CD0AC
:10154000B0F5A06FE1D100216846FFF75BFD34E004
:10155000B0F5106F76D016D8B0F5E06F77D00AD816
:10156000B0F5C06F69D0B0F5D06FCED1002168461C
:10157000FFF73CFE21E0B0F5F06FC6D100216846D0
:10158000FFF7BCFE19E0B0F5406F3BD00AD8B0F5CC
:10159000206F61D0B0F5286FB7D100216846FFF702
:1015A000FFFD0AE0B0F5486FAFD100216846FFF7B4
:1015B000BFFD02E0FFF734FA0090009805B030BD9F
:1015C000FFF748FAF8E7FFF72BFA05462046FFF742
:1015D000B9FEB5FBF0F50095EFE7FFF73BFA0446DF
:1015E0004FF42070FFF7AEFEB4FBF0F40094E4E794
:1015F00001A8FFF73BFC019DE8E700216846FFF7E3
:101600005FFCDAE700216846FFF794FCD5E700218C
:101610006846FFF7C7FCD0E74FF0E02302911B6953
:101620005B0705D5FFF716FA0290029B0093C4E70B
:1016300003A902A8FFF720FDF7E700216846FFF79E
:101640001BFDBAE700216846FFF702FEB5E700215F
:101650006846FFF72FFEB0E700216846FFF730FD30
:10166000ABE700BFF06A000808B58020FFF7FAFE7C
:10167000034B98429EBF4FF48032024B1A6708BD5D
:10168000005A620200A000501FB503460020B3F5C7
:10169000807F019000F0C28063D85D2B54D84C2B22
:1016A00006D82D2B46D8232B2AD840F27951A4E016
:1016B0004D3B102BF9D801A252F823F01318000863
:1016C000AB160008AB160008AB160008C5170008DB
:1016D000AB160008AB16000897180008E3170008BF
:1016E000891700088D180008AB160008AB16000813
:1016F000AB160008AB160008AB160008A1180008CE
:10170000243B092BD1D801A252F823F0131800086A
:1017100013180008131800081318000813180008FD
:10172000AB16000803180008AB160008A517000840
:10173000491800083D2B00F082803E2BB5D10020D7
:1017400001A9FFF7B7FD60E0802BAED1574B1B6FAF
:1017500003F00703013B032B4DD8DFE803F04A47B2
:10176000878FB3F5F06F6AD021D8B3F5B06F48D04A
:101770000FD8B3F5607F00F0858096D3B3F5806F06
:1017800047D0B3F5A06F90D1002001A9FFF73AFC34
:101790003BE0B3F5D06F57D0B3F5E06FCFD0B3F5E2
:1017A000C06F82D1002001A9FFF766FC2DE0B3F5E0
:1017B000206F70D00BD8B3F5086F4AD0B3F5106F17
:1017C0007FF473AF002001A9FFF742FD1DE0B3F5E0
:1017D000406F5BD0B3F5486F62D0B3F5286F7FF4EC
:1017E00064AF002001A9FFF7DBFC0EE005230193A5
:1017F0000BE00223FBE740F2C6412D4804F0DAFB80
:1018000003E0002001A9FFF7CDFB019805B05DF8CA
:1018100004FB002001A9FFF753FBF6E74FF0E0239C
:1018200002901B695B0705D5FFF714F90D2303939D
:10183000039BDCE703A902A8FFF71EFCF8E70020E2
:1018400001A9FFF75BFDE0E7002001A9FFF7CEFC4F
:10185000DBE7164BD3F8003103F00303022B07D06C
:10186000032B09D0012B0BD1FFF70AF90323BEE7A5
:10187000FFF762F90923BAE704F094FB0823B6E7FF
:101880000123B4E701A9FFF7F1FABEE7002001A99F
:10189000FFF750FBB9E7002001A9FFF711FCB4E7FF
:1018A000002001A9FFF744FCAFE700BF0080005013
:1018B000F06A00084FF48012034B5A664FF48032EE
:1018C000024B9A62704700BF009000500050005ACF
:1018D00038B5036804460F2B04D940F66D317C48B7
:1018E00004F068FB63680F2B04D94FF43761784824
:1018F00004F060FBA3680F2B04D940F673317448E1
:1019000004F058FB237B0F2B04D940F67631704846
:1019100004F050FB637B0F2B04D940F679316C48FF
:1019200004F048FBA37B3F2B04D940F67C31684888
:1019300004F040FBE37B3F2B04D940F67F31644841
:1019400004F038FB2369032B04D940F68231604848
:1019500004F030FB6369032B04D940F685315C4801
:1019600004F028FBE369032B04D940F6883158487A
:1019700004F020FB8020FFF787FE032800F083801F
:101980004FF48012534B4FF0A0615A6645F60E0299
:10199000514BC3F88020514A91624FF4803102F5D7
:1019A000805291629A6DD203FCD4996D11F08041FE
:1019B000FBD1D4E90002120542EA0062E07B024357
:1019C000207B42EA0042607B42EA0032A07B42EA8E
:1019D00080121A619869D4E90452120642EA8562BB
:1019E00000F000400243A07EE57E0243207E42EAF2
:1019F0000042607E42EA00229A611A6AE06922F09F
:101A00000F0242EA8502364D00283DD11A6294F851
:101A10002420996A94F82000D200294042EA40121A
:101A20000A4394F8211042EA011242F480329A6289
:101A30002C49294A936D31EA0303FBD14FF08071A1
:101A4000264881621369A56823F4700343EA0553AD
:101A500013614FF00043836194F822300BB9224B9D
:101A6000996294F823303BB94FF480321E4B9A624E
:101A7000194A936D5B00FCD494F825301BB1164BCA
:101A80001A4AC3F8802038BD024342F008020228F7
:101A90001A6208D119614FF40852996114484FF441
:101AA0007F4104F096FA0C4994F822308A6A94F83F
:101AB00020001B062A4043EA4013134394F82420D5
:101AC00043EAC20394F8232043EA02438B62D3E73C
:101AD000F06A0008009000500040005A0050005A80
:101AE000C7FFFEFE030001000060005AF1A7FFFFE0
:101AF0003440005A014B93F900007047E910002070
:101B0000436810B5072B044604D940F6B3512A4860
:101B100004F050FAA368032B04D940F6B5512648C7
:101B200004F048FA2378032B04D940F6B751224831
:101B300004F040FA94F90130002B04DA40F6B95170
:101B40001D4804F037FA4FF400011C4A63785166CF
:101B50004FF4D151022002F5B832516218494F2B8F
:101B600048604FF0010028BF4F2301F580514860C5
:101B70001169C903FCD4217843EA01235361D4E9F4
:101B800001131B0143EA0123617B0B43217B43EAE1
:101B900041039360E37BA17B1B0143EA4113617C1A
:101BA0000B43217C43EA41035360A37C13B16FF4E0
:101BB000D153536210BD00BFF06A0008009000507E
:101BC00000100250014B1880704700BF9210002097
:101BD000014B1880704700BF90100020B0F5207FA7
:101BE00038B577D00ED8B0F5007F61D003D890B368
:101BF000B0F5C07F2FD040F21231BDE838403D48EB
:101C000004F0D8B9B0F5607FF5D13B4A4C1ED2F84C
:101C1000FC5015F080751EBFD2F8FC3023F08073A5
:101C2000C2F8FC30032C04D940F2F221314804F010
:101C3000C1F9324AD2F8803023F0300343EA04136A
:101C4000C2F8803035B12C4AD2F8FC3043F08073B2
:101C5000C2F8FC3038BD4C1E012C0AD9102903D81B
:101C6000274BCB40DB0704D440F2C721214804F0C6
:101C7000A1F904F0BDF904F0C9F94FF48031214B0A
:101C80001E4A1967136F23F4704343EA0433136742
:101C9000FEF7E0FE0446FFF7DDF8C0F10201204642
:101CA00004F0AEF900F040F8BDE83840FFF7DCBCC6
:101CB0004C1E1F2C04D940F206310E4804F07AF96C
:101CC0000E4AD2F8903023F0F85343EA0463C2F886
:101CD0009030BFE74C1E012C04D94FF443710548E6
:101CE00004F068F9054A136F23F4806343EA842300
:101CF0001367AFE7F06A000800ED00E000800050D5
:101D0000100101000090005008B50121022000F0F0
:101D1000C1FB04F06DF904F079F94FF48032014B06
:101D20001A6708BD0090005008B54FF4C070FFF767
:101D300099FBBDE808400449884294BF0121022173
:101D40004FF42070FFF74ABF80F0FA02B0F5807FB1
:101D5000F8B50C4600F089816FD85D2861D84C2811
:101D600006D82D2846D823282AD840F64211B6E1B5
:101D70004D381028F9D801A353F820F0232000088B
:101D80006B1D00086B1D00086B1D0008EB1E000892
:101D90006B1D00086B1D0008472300082D1F00085D
:101DA000671E0008F32200086B1D00086B1D000869
:101DB0006B1D00086B1D00086B1D000887230008C1
:101DC00024380928D1D801A353F820F02320000893
:101DD00023200008232000082320000823200008D7
:101DE0006B1D0008F11F00086B1D0008AD1E0008E8
:101DF000532100083D2800F08C813E28B5D1013CDC
:101E00000B2C00F29782DFE814F09A0295029502FB
:101E1000950295029502950295029C02890289021B
:101E200093028028A1D18B1E062B00F2D680DFE81A
:101E300003F0D1C2D4DCD4D49200B0F5F06F00F03E
:101E4000688145D8B0F5B06F00F0D28023D8B0F5E6
:101E5000607F00F0E68188D3B0F5806F00F0E1800C
:101E6000B0F5A06F81D1013C112C00F23982DFE87E
:101E700014F03C02370237023702370237023E02C3
:101E80003702350233023302370237023702370294
:101E9000370237022902B0F5D06F00F05A81B0F551
:101EA000E06FACD0B0F5C06F7FF45FAF013C0B2C9E
:101EB00000F22681DFE814F0290124012401240125
:101EC00024012401240124012B01180118012201FD
:101ED000B0F5206F00F037821CD8B0F5086F00F025
:101EE0008181B0F5106F7FF440AF013C0E2C00F201
:101EF0006281DFE814F0650160016001600160014A
:101F00006001600160017501520152015C016001D4
:101F100060015E01B0F5406F00F0EB81B0F5486FF5
:101F200000F03182B0F5286F7FF41FAF112C00F064
:101F30004A82152C00F049824FF41161A14804F047
:101F400039F80022A049D1F8703223F0030313437B
:101F5000C1F870322EE0002504264FF480370121AD
:101F6000022000F097FA04F043F804F04FF8974B82
:101F7000954A1F67136F23F0070333431367FEF778
:101F800069FD0646FEF766FFC0F10201304604F027
:101F900037F80121002000F0D1FAFFF7C5FEFFF766
:101FA00063FB3DB9032C05D1894B8A4A9F62936D2F
:101FB0005800FCD4F8BD4FF48012844B0E465A668C
:101FC0004FF48032834B9D6A03F58053C5F300655F
:101FD0009A62C2E700250126BFE7002540F2316181
:101FE000784803F0E7FF2E46B7E700250226B4E75E
:101FF000072C12D0102C12D0022C05D040F27A619E
:10200000704803F0D7FF00246F4AD2F8803123F0E4
:1020100003032343C2F88031CCE70324F4E701240F
:10202000F2E7013C062C17D8DFE804F01B101D1462
:1020300004120E0001236449D1F8202122F0070286
:102040001343C1F82031B5E70423F4E70323F2E793
:102050000523F0E70623EEE740F2B961594803F0A3
:10206000A9FF0023E7E70223E5E7A1F10904082C13
:1020700033D8DFE804F0050532051C3232320500A2
:102080004FF48032504B5449586E03F580535A66D2
:102090004B6A43F001034B62C1035CBF4F4B5A666E
:1020A0004FF0E022136923F00403136182E74FF439
:1020B0008032454B4849586E03F580535A664B6A47
:1020C00023F001034B62C3035CBF444B5A664FF0DD
:1020D000E022136943F00403E7E740F2E161BDE861
:1020E000F840384803F066BF01223749D1F8403143
:1020F00023F003031343C1F840315BE70322F4E705
:1021000040F201712F4803F055FF0022EDE7022253
:10211000EBE7013C0B2C13D8DFE804F01712121286
:10212000121212121906061001222749D1F8603145
:1021300023F003031343C1F860313BE70322F4E7C4
:1021400040F223711F4803F035FF0022EDE7022221
:10215000EBE7013C0E2C17D8DFE804F01B1616162F
:10216000161616161D080812161614000122164916
:10217000D1F8003223F007031343C1F8003219E706
:102180000322F4E70422F2E74FF4EE610D4803F076
:1021900011FF0022EBE70222E9E701220A49D1F808
:1021A000083223F007031343C1F8083202E7032281
:1021B000F4E70422F2E740F29471024803F0FAFED9
:1021C0000022EBE7F06A0008008000500090005009
:1021D0000060005A0040005A00C0075000A00050A4
:1021E0000222DBE74C1E082C12D8DFE804F016119F
:1021F00005111111110F180001227549D1F8003194
:1022000023F003031343C1F80031D3E60322F4E7BC
:102210004FF4F6616F4803F0CDFE0022EDE7022295
:10222000EBE76D4A6A4BD2F8FC5015F080750AD185
:10223000072929D1D3F8802022F0030242F00202BC
:10224000C3F88020B6E6D2F8FC10072C21F080718C
:10225000C2F8FC100FD1D3F8802022F0030242F024
:102260000202C3F880205C4AD2F8FC3043F080734D
:10227000C2F8FC309EE60E2C0FD1D3F8802022F05D
:10228000030242F00102ECE70E2906D1D3F88020C8
:1022900022F0030242F00102D2E7062C10D040F2F5
:1022A000E1714C4803F086FE0021494AD2F88030A3
:1022B00023F003030B43C2F88030002DD3D179E61D
:1022C0000321F2E701224249D1F8203223F007032B
:1022D0001343C1F820326DE60322F4E70422F2E74B
:1022E00040F63D013B4803F065FE0022EBE7022289
:1022F000E9E7023C052C0AD8384B195D344AD2F87C
:10230000283123F007030B43C2F8283152E640F688
:102310006E01304803F04EFE0021EFE701222C4908
:10232000D1F8403223F003031343C1F8403241E6B1
:102330000322F4E740F6AC01264803F03BFE0022FE
:10234000EDE70222EBE7102C17D012D8022C16D0A2
:10235000072C16D040F6E2011E4803F02BFE0022A7
:102360001B49D1F8603223F007031343C1F86032F0
:1023700020E6112CEED10222F2E70122F0E703223F
:10238000EEE70422ECE7102C17D012D8022C16D05E
:10239000072C16D040F6FA010E4803F00BFE00227F
:1023A0000B49D1F8943223F007031343C1F8943258
:1023B00000E6112CEED10222F2E70122F0E703221F
:1023C000EEE70422ECE70122BCE50222BAE500BFF9
:1023D00000800050F06A000800ED00E0246B000867
:1023E000024A536B0342FCD1704700BF00400950C2
:1023F000044A4178536F23F4407343EA012353673F
:10240000704700BF004000500C4A10B513690446E5
:1024100043F00403136102F06FF803F021FE084B50
:10242000084AC3F8202430BF03F01BFE02F09EF8D8
:102430001CB9BDE81040FEF70DBB10BD00ED00E07B
:1024400000E003500000FF0F0A4A10B5136904466C
:1024500043F004031361084B084AC3F8202402F038
:102460004BF830BF02F082F81CB9BDE81040FEF70F
:10247000F1BA10BD00ED00E000E003500000FF0FD6
:10248000034A0179D36E23F030030B43D3667047C0
:1024900000400050F8B50446244BD3F88420D00601
:1024A000FBD4D3F88430C3F381139C423CD0FEF7B5
:1024B000B7FA012C05460BD11D4B984204D940F2C6
:1024C00092711C4803F076FD0121284603F098FD27
:1024D00003F0B6FD4FF00072174B07465A662046D0
:1024E00003F0C2FD4FF48063104E621E93403367C9
:1024F000736E9A0103D4D6F884309B060AD5384609
:1025000003F0A2FD022C0FD12846BDE8F8400021BF
:1025100003F076BDD6F884309906E9D54FF4F4611E
:10252000044803F047FDE3E7F8BD00BF004000505A
:10253000005A62022A6B00080060005010B50C4679
:1025400008B9FEF76DFA074B21461B783BB1064BE5
:10255000984204D80120BDE81040FFF79BBF02203D
:10256000F9E700BF4B130020005A62020278034BC8
:10257000012100201A70FFF7E1BF00BF4B130020BC
:102580004FF0004238B5244B244C5A664AF6CD33FE
:10259000656C014605F00105236428BB0120FFF7A7
:1025A0001FFF6368DB0715D51D4B586008461D4BA0
:1025B000226BD2070CD4984208D1072415B1174BCF
:1025C000194A1A6403F051FD204638BD0130EFE787
:1025D0009842F2D00024F1E70132236B13F0080394
:1025E00005D08A42F8D1E8E700220E49F5E78A4291
:1025F000E3D020210A4A91620121A2F58052516064
:102600000649084A886A800603D49342D5D001332C
:10261000F8E79342DDE700BF00900050004009500A
:102620000060095040420F003254FFFF4FF000425B
:1026300038B5164B01465A664AF6CD33144C154A46
:10264000656C236443780B205B0043F00103D36384
:10265000FFF7C6FE63688A7823F4F87343EA02132F
:102660006360CA784B7943EA0223A3600A798B79C5
:1026700043EA022323610878FFF782FFEB0744BF98
:10268000054B236403F0F1FC012038BD009000509D
:1026900000400950004000503254FFFF0F2870B531
:1026A000044605D940F62D61124803F083FC0F243F
:1026B0004FF00042104B11495D6E03F580535A668E
:1026C0004AF6CD334E6C80200B64FFF789FE0B6A0F
:1026D00023F00F0323430B62F30744BF084B0B6443
:1026E000002DA2BF4FF00042064B5A6603F0BDFC1E
:1026F00070BD00BF2A6B00080080005000400950E8
:102700003254FFFF00A00050032838B504460D46A0
:1027100005D8094B33F81030CB40DB0704D440F226
:102720002D41064803F046FC302301225C43044B54
:10273000AA401A5138BD00BF946B0008B26A000865
:1027400040D00350032838B504460D4605D8094B40
:1027500033F81030CB40DB0704D440F2FE3106489A
:1027600003F028FC302301225C43044BAA401A5199
:1027700038BD00BF946B0008B26A000840E0035007
:1027800003282DE9F04104460D461746984605D822
:102790001D4B33F81030CB40DB0704D44FF4B0713D
:1027A0001A4803F007FC37B129462046B8F1000F5C
:1027B00020D0FFF7A9FF0F21072D04EB440688BFA7
:1027C000A5F108034FEA0616114895BFAB009B0020
:1027D00004360C3607FA03F29940304403F046FC05
:1027E0007FB929462046B8F1000F06D0BDE8F04178
:1027F000FFF78ABFFFF7A6FFDDE7BDE8F041FFF76F
:10280000A1BFBDE8F08100BF946B00085E6B0008BB
:1028100030C00350F8B506460F461546002A6AD068
:1028200003F00304836823F44073836003F008FC1F
:10283000B26882EA042303F440735340B36003F0A8
:1028400003FC37B9B6F1B64F0DD12E20FEF70AFEC4
:102850000746B3689A0717D5012C1BD0022C27D046
:1028600064B9264B17E0264B9E4201D12F20EDE79D
:1028700040F22F11234803F09DFBB3684FF4B2716F
:10288000204803F097FB08E0012C13D0022CE7D17D
:102890001D4B00E01D4B9F42F0D91D4B1B5D6B4350
:1028A0000AD140F27511BDE8F840164803F082BB2A
:1028B000184BF0E7184BEEE7A3EBC504013C3C4492
:1028C000B4FBF3F4013C0CD540F27B110D4803F04E
:1028D00071FB4FF4BE710B4803F06CFBB368B4613D
:1028E000F8BDB4F5007FF4D2B3689B07F7D5002C90
:1028F00008BF0124F3E740F21511D4E780841E00DD
:10290000008006509C6B0008002D3101404B4C00AC
:10291000D06B0008809FD50040548900B0F1B64FBD
:1029200038B504460D4607D0084B984204D040F213
:102930009511074803F03EFB043425B104F580549B
:102940000123236038BD04F50054F9E700800650E8
:102950009C6B0008B0F1B64F38B504460D4607D061
:10296000124B984204D04FF4D571114803F022FB6A
:102970000023104A236404F50053DA636A7804F1F3
:1029800008037AB903F5805302221A602046D5E97C
:1029900001122B7BFFF73EFF20462978BDE8384027
:1029A000FFF7BCBF03F50053EEE700BF0080065001
:1029B0009C6B0008FFFF1F00B0F1B64F70B50AD046
:1029C000824B98421DD0824840F2012103F0F2FA76
:1029D0006FF0030070BD7F4B9968C26B12F4C06F3B
:1029E00015D091050FD5FD225A7009221A700022C8
:1029F000026493F90110012900D15A7093F9010082
:102A0000E8E7754BE8E75605EFD5FE22ECE71C78C2
:102A1000082C00F2D680DFE814F009001F00450002
:102A2000530070007E009C00A700CB004C880A88F1
:102A3000E5060AD5120A02F0060242F0F002012170
:102A400019704263C1600120C4E702F0FE02A107D1
:102A500048BF42F00102F2E7160608D5802100F5D2
:102A60000052D1634FF608721A80022318E055060F
:102A7000E9D5402400F50052D4634A88D40604D531
:102A800002221A700B784363DDE796076AD50722A6
:102A90001A701B7901EBC3031B89012BD3D10823C7
:102AA000C360D0E71506D9D45406CCD5402400F530
:102AB0000052D4634A88920754D503221A708CE7D7
:102AC0004C880A88E60643BF120A02F0060242F06A
:102AD000F00202F0FE02650709D51C7942F00102FE
:102AE00001EBC4010989012904BF0821C160042147
:102AF00019700123C3604263A5E71406AED45206E1
:102B0000A1D5402400F50052D4634A88560729D540
:102B100007221A7097E71A795D8801EBC2042689AB
:102B2000AE420FD800240132D2B21A715C804C88B8
:102B30006507C2D4E40702D4012A7FF64EAF08220B
:102B40001A7092E76268691C5980525D42630622DE
:102B5000DFE7160682D455067FF575AF402400F5F1
:102B60000052D4630522A9E794067FF56CAF2026B6
:102B70001A7900F5005401EBC2010A89456AE6633F
:102B80005C88A24281BF4968661C5E800D555988E9
:102B90008A42D4D90424012AC46004D0013A914263
:102BA00001D10822C2601A78092A3FF420AF4AE70F
:102BB000D2057FF548AF4FF4807100F50052D16324
:102BC00013E74FF609321A8011E700BF0080065064
:102BD0009C6B00082C11002038110020B0F1B64F7A
:102BE00038B504460D4607D121B940F26A3125486F
:102BF00003F0E0F9244B13E0244B98420DD040F24F
:102C00006931204803F0D6F925B940F26A311D48F0
:102C100003F0D0F96FF0030038BD00292AD01C4B17
:102C20002269D00744BF2022E2606A88910702D55A
:102C300029890029EED0520702D52A8A002AE9D034
:102C40004FF480721A6000229D601A71C023E36005
:102C50006369DB0514D4202204F50053DA630D4ABE
:102C60002046DA63236C43F4FC632364BDE83840F8
:102C7000FFF7A2BE40F26A31024803F09BF9CEE7AB
:102C8000636AE5E79C6B00082C1100200080065069
:102C900038110020FFFF1F004369DA01FCD4012333
:102CA00000F50050024A436053689B07FCD470470C
:102CB00000400059344B70B5984204460D46164604
:102CC00004D040F21721314803F074F92046FFF791
:102CD000E3FF2B786A7803F0070343EAC203EA783C
:102CE00043EA0223AA78120102F070021343C4F8E7
:102CF00080306B79E26A1B0122F0170203F01003A7
:102D000013432A7902F007021343E3621E4B324653
:102D10009C4225D0012104F5805359601A4B0022B2
:102D20009C422AD0AB79A26153BB70BD12F8023C21
:102D300012F8041C5B0443EA012312F8051C0B4340
:102D400012F8031C090401F480310B4300F128013F
:102D500044F821300130102802F10502E6D1D9E70C
:102D60000020F8E703EB8300305C10B101FA03F0B8
:102D700002430133102BF5D1D4E713460436F9E7AB
:102D80000823E360D1E700BF00400059D46B00087E
:102D9000144B10B598420C4604D040F26F311248E3
:102DA00003F008F974B92A20FEF75CFB0446B0B1C1
:102DB0000E4B984206D90B4B9B68C3F30273013349
:102DC000B0FBF3F40A4B04F5742404F23F24B4FB83
:102DD000F3F4601E7F2828BF7F20C0B210BD0124FD
:102DE000F0E700BF00400059D46B0008005A6202AF
:102DF00040420F0038B5154B0D469842144604D09A
:102E000040F2AA31124803F0D5F835B940F2AB319F
:102E10000F4803F0CFF8B4B1FFDE0E4B9D4228BF40
:102E20001D461CB92A20FEF71DFB04462C44013C1C
:102E3000B4FBF5F0AC4228BF00F1FF30032828BFF7
:102E40000320C0B238BD2546ECE700BF0040005962
:102E5000D46B0008005A6202F8B51F46194B0E46A3
:102E60009842144604D04FF47971174803F0A2F841
:102E700026B940F2E531144803F09CF8FFB1134D38
:102E8000134B012F08BF1D46B54228BF35461CB95C
:102E90002A20FEF7E7FA04469DF8183040F2FF308A
:102EA0000133B4FBF3F46B1E1C44B4FBF5F3AC42EA
:102EB00028BF03F1FF33984228BF1846F8BD054DDF
:102EC000E2E700BF00400059D46B0008404B4C00C3
:102ED000002D31018096980013B5044601A800F03A
:102EE0005FFB042C04D8064B33F8140002B010BD6D
:102EF000044840F2914103F05DF80020F6E700BF7E
:102F00000A6C0008D46B00082DE9F04F2DED048BFE
:102F10000646DFF840C38DB006AF0C461546BCE848
:102F20000F000FC79CE80300BE4B87E803009E42DA
:102F300003D0F121BC4803F03DF8BC4F00223946D4
:102F40003046FFF757FF94F80580804538BF80462C
:102F50003046FFF7A1FE20795FFA88F850B92A20A1
:102F6000FEF780FAB842014628BFB0FBF8F13046C0
:102F7000FFF70EFFE3784FEA08721B0102F0E04210
:102F800003F0300313430004227800F4FE000343EF
:102F90000AB143F0020362780AB143F00403A27855
:102FA0000AB143F00803B360E3882289336163897F
:102FB00043EA024333629B4B9E4200F01F8201238F
:102FC00006F5805673600DB0BDEC048BBDE8F08F44
:102FD0009749C5E0D1F88041012B4FEA14442CD920
:102FE000022B00F0748140F2F1118F4802F0E2FFF1
:102FF0009DE0D1F88441012BA4B2F1D8002B40F020
:103000000881D1F88C11091449001CE0D1F88441E1
:10301000012B4FEA1444E3D8002B40F0FD80D1F897
:103020008C11091401EB41010DE0D1F88041012B15
:10303000A4B2D5D8DFED7F7A09E0002B40F0E6801E
:10304000D1F88C11091407EE901AF8EEE77A2204F1
:103050000BF1B24202F58042926C24F4C041C2F3FB
:10306000820C4FF001020CF1010E02FA0EF209EE91
:10307000102A4FEA8141B8EEC99AF6EE008A6E4AEC
:1030800048BF41F00041BCF1000F40F0E580002B4B
:1030900040F0C580D2F88C311BB207EE103AB8EE82
:1030A000C77A37EE878A002840F0F98005A8039197
:1030B00000F076FADFED617A68EE277A0399DFEDAA
:1030C000606A86EE897ADFED5F6A27EE267AF1EE96
:1030D000006AB1F1004F07EEA67A0BD0DFED5A7A05
:1030E00006EE104A77EE276ABAEEE86A56EE267ABE
:1030F000B0EE677AB5EEC07AF1EE10FACBBFB1EE62
:10310000477A78EEC78A37EE687AFDEEE87AC8BF6C
:10311000FDEEC77A17EE903AB3F5003FC0F2CE80CD
:103120006FEA51416FEA41413E4A3B01D1503F01B4
:1031300007F1B247C9F3090307F580477B600AF13D
:10314000010A1435BAF1020F3FF439AF2B78AF689A
:10315000002B3FF43DAF3D493D4A012B18BF1146BE
:10316000304C00222046CDF800800393FFF774FE18
:1031700004EB0A14A16C039B21F0435121F41D11AF
:1031800021F443511FFA87F921F03F0103F00307AF
:103190000F43697881454FEA810101F01C0147EA3C
:1031A0000107A97838BF81464901C9B20F43E978C0
:1031B0002879090301F4E0413943070407F4E027C3
:1031C00039432F7C4FEA0A1B7F0507F46007394318
:1031D0006F793F0707F040573943A164A46C164943
:1031E000C4F30234013C0AF10507042C3FF61DAF7D
:1031F0000FF2040C5CF824F02B3000082B30000890
:10320000D52F0008F32F00080D300008D1F89411D5
:1032100018E7D1F89411F6E6D1F8941101E7D2F845
:10322000943139E700400059D46B0008005A62021B
:1032300080969800000000000080E00F3D3B843F36
:10324000000080430000204400000049002D3101AF
:10325000404B4C00146C0008ABB9D2F890311BB253
:1032600007EE103AB8EEC77A77EE677A69EE286A09
:10327000644B87EEA67AD3F888311BB207EE903AFA
:10328000F8EEE77A0DE7D2F898311BB207EE103A64
:10329000B8EEC77A37EE677A77EE877AE6E7D5ED4C
:1032A000037ADFED596AF8EE677A87EEA67AF7EED1
:1032B000046AC6EE877A67EE887A00E713F5003F66
:1032C000AABFC3F3110341F4003119432CE7FFF700
:1032D00003FE07EE900A9FED4C7AF8EE677A0BF149
:1032E000B24303F580439B6C0CAAC3F3421302EB79
:1032F000830387EE875A13ED067AFCEEC77A17EE42
:10330000903AF7EE006A5C2B1CBF77EE267A87EEC8
:10331000276A07EE904ADFED3D5AF8EE677A08BF5C
:103320009FED3B6A67EEA57A67EE867A9FED396A74
:1033300067EE867AF5EEC07AB6EE006AF1EE10FA24
:103340004CBF77EEC67A77EE867A0BF1B24202F581
:103350008042136DFDEEE77A0023136517EE903A75
:1033600017EE900A13F4004F136DDFED2B4A18BFD0
:1033700043F000431365294B116D03EA80430B436F
:103380001365204B9FED264AD3F88811D3F8883176
:10339000116D1BB207EE903AF8EEE77A77EEA47A59
:1033A000C4EE074A37EE267AC4EE876AF7EE044A7F
:1033B00084EE857A67EE277AB1EE007A47EE876A67
:1033C00007EE104ADFED177AB8EEC77A76EEA76AF5
:1033D00065EEC75A46EEA57AF5EEC07AF1EE10FA20
:1033E0004CBF77EEC67A77EE867AFDEEE77A17EE77
:1033F000903AC3F311030B43136598E64FF0000AAC
:10340000A0E600BF0080E00F00007A440000003812
:10341000E71B753F00000047000000000000FC7F34
:103420000000804800000049242808B51AD8202848
:103430000BD812281ED011D828B101281CD0B621D3
:103440000F4802F0B7FD002007E02238022815D807
:10345000DFE800F0020C0E00022008BD1428EED1B7
:103460000820FAE73228EAD10620F6E70420F4E73C
:103470000520F2E70720F0E70320EEE70120ECE764
:103480002C6C0008142810B50C4631D005D8012842
:103490001ED0122825D0204610BD242810D8202860
:1034A000F9D9042C0FD801A353F824F0973400085D
:1034B00097340008973400089734000897340008C0
:1034C0003228EED0E7E7F6210F4802F073FDE2E77D
:1034D0000129E0D00229DED00029DCD040F207111A
:1034E000F2E702290BD003290BD04FF48B71EBE7E5
:1034F000022904D0032904D040F22511E4E7002476
:10350000C9E70124C7E700BF2C6C000870B5054669
:10351000C2F3062602F0070479B90F2804D94FF444
:10352000FC710F4802F046FD44EA062444F44024AE
:1035300006350C4B43F8254070BD032804D940F2F2
:10354000FD11074802F036FD21463046FFF79AFF8D
:1035500004463046FFF768FF163544EA0024E8E7E2
:103560002C6C000800800350B2F5805F70B50546F2
:103570000E4614460DD34FF40B71084802F01AFDA5
:1035800024F0030202F1A04202F5603226B9156070
:1035900001E0002AF4D170BD2D02F8E72C6C000880
:1035A0004FF48032064B5A6603F5E6239B69C3F35A
:1035B0008512827003F03F021B0B4270037070474C
:1035C0000090005070B506460C46154622B940F2F0
:1035D0008E210C4802F0EEFC24B94FF42070FDF768
:1035E00041FF04466D00013CB4FBF5F4064B250297
:1035F00013EA042304D040F2B321024802F0DAFCBB
:10360000F56170BD606C0008070080FF124B10B5BB
:103610009842044604D040F24241104802F0CAFCED
:10362000012104F58053596040F6AA6341F2050276
:10363000636100230A48A360E365E26004F5005279
:103640002361E361E36490640348A365844204BF9B
:1036500023656365516010BD00C00550606C0008B3
:10366000FFFF010038B5294B044698420D4604D0AF
:1036700040F26931264802F09DFC2046FFF7C6FF64
:10368000012204F580535A602B8AA26843F001039B
:103690001343AA7B43EA8223A360A3682A7D43EAFB
:1036A0004273A360AB7C5BB1184B9C4202BFEA7CC7
:1036B000A3F51033C3F8C821E36D43F08003E3653D
:1036C0002B7B2046D5E9011243F48053E360FFF7DA
:1036D00079FF6B7B0BB1102363616B7D1BB1A3681A
:1036E00043F48033A360AB7D1BB1A36843F4004374
:1036F000A360EB7D2A7E1B07120503F0E04302F472
:10370000E0021343A3652B78636138BD00C0055008
:10371000606C0008034B5A68D20702D5DA69002AA8
:10372000F9D1704700800A50054B9A689107FCD484
:103730005A689207F9D4DA69002AF6D1704700BFB7
:1037400000800A5008B5FFF7E5FF0222014B1A611D
:1037500008BD00BF00800A5008B5FFF7E5FF012251
:10376000024B03F580514A601A6108BD00800A507F
:1037700008B5044B5968012903D1FFF7E3FF024B59
:10378000596008BD00800A5000A00A5010B5064CD0
:10379000FFF7CAFF6368012B03D1FFF7E9FFFFF7CB
:1037A000C3FF0378E36010BD00800A50A8B94A68DF
:1037B0000B78B2B94A7843EA42038A6812B11278A8
:1037C00043EA82138A7843EA8203CA6812B1127804
:1037D00043EA4223054A936470477F21044802F07C
:1037E000E9BB127843EAC203E4E700BF00800A5055
:1037F000966C000810B9044B596470474FF48971F6
:10380000024802F0D7BB00BF00900A50966C000837
:1038100010B9044B596470474FF4A771024802F085
:10382000C9BB00BF00A00A50966C000810B9044B39
:10383000196470474FF4C571024802F0BBBB00BF6A
:1038400000A00A50966C000808B510B9044B186C1B
:1038500008BD044840F2C51102F0ACFB0020F7E7B8
:1038600000800A50966C000808B520B949B10129BA
:103870000AD0002008BD4FF41D71054802F09AFBE4
:10388000F7E7044BD86CF5E7024B186DF2E700BF81
:10389000966C000800800A5018B939B1012908D087
:1038A000704740F21231044802F084BB034BDA64E3
:1038B0007047024B1A657047966C000800800A50EA
:1038C00008B510B9044B586D08BD044840F2B53135
:1038D00002F070FB0020F7E700800A50966C0008A9
:1038E00007B5094B18689A889B7900906846ADF82F
:1038F00004208DF80630FEF799FE0C20FEF7CEFE70
:10390000002003B05DF804FBDA6C000813B5002456
:10391000064A6846536F43F00103536700948DF8DD
:103920000440FEF7ADFD204602B010BD004000503F
:1039300030B58BB06C46174D0FCD0FC40FCD0FC4F3
:1039400095E8030084E80300134BD3F84C211203DD
:103950001CD5A3F5FE431C884FF6FF739C4208BF9D
:103960008C248DF81940FEF7C5F8204480F3080038
:103970008DF818000948FDF789F86846FDF7A8FF9B
:103980003220FEF725F900200BB030BDD3F85041AE
:10399000E4B2E6E7E46C00080080E00FC0175302D1
:1039A00030B5094D87B001AC0FCD0FC42B6801A80D
:1039B00023603F238DF80530FEF7A2F83220FEF792
:1039C00001F9002007B030BD0C6D00086FF0040352
:1039D000502110B50A480B4C13F0800F03F101027F
:1039E00007D123444C2A83F800131346F4D1002056
:1039F00010BD03F00F03043B034419761346EBE7B5
:103A000000ED00E000E100E038B500F069FF044699
:103A1000F0B901F06DF901F031F84FF4167343433A
:103A20000C4A03F5742303F23F23B3FBF2F30A219C
:103A3000094A0A4813600A4D0268013911F0FF0172
:103A400045F8043BF9D11A4403EBC3031344036064
:103A5000204638BD40420F00781100204811002058
:103A60004C110020012208B5034B1A7002F044FCEF
:103A7000024B186008BD00BF4C1300204411002009
:103A800010B500F0FBFF044602F091FA844207D91A
:103A900002F03EFC20B10122024B1860024B1A706A
:103AA00010BD00BF441100204C130020F8B5204D7C
:103AB0002B780BB302F020FC1E4B1F4E1B681F4CD3
:103AC000C01A012838BF0120306000F0D7FF4FF442
:103AD0001673584300F5742000F23F20B0FBF4F455
:103AE0003368A34203D9C721154802F063FA31684D
:103AF000A14202D900232B70F8BD124C124E23783C
:103B0000124F56F8232046F82310501A0A213A681B
:103B10000133121A3A600932B2FBF1F20C48DBB2FF
:103B20000260B3FBF1F201FB12332370E2E700BF46
:103B30004C130020441100207411002040420F005B
:103B4000206D00084D1300204C110020481100206A
:103B500078110020014B1868704700BF78110020D1
:103B600020234FF48012042110B50F4C0F4884F825
:103B70002C330F4B5A660F4B03F5005250675167B9
:103B8000106711674FF48052C4F8842162609A185C
:103B9000506751679A6A22F000729A629A6A42F4F8
:103BA00080529A6210BD00BF00E100E0010000A059
:103BB000009000500040005A044B9A6D12F0050F1F
:103BC00002D10028F9D17047012070470040005A07
:103BD000154B10B51C6F14F004020FD003F5005301
:103BE0001A6708229A62FFF74BFF00F0A9FB00F06A
:103BF00089FB012001F02AF802F08CFBE30706D5CF
:103C000001220A4B1A67FFF751FF00F07BFB14F00B
:103C100000521CBF054B1A67002CBEBF4FF000427C
:103C2000024B1A6710BD00BF0040005A0060005AE6
:103C300010B5044602F004FA024B1C6002F004FACC
:103C4000002010BD7C11002010B502F0F9F9034BE3
:103C50001C6802F0F9F9204610BD00BF7C1100205D
:103C600010B5002400F048F80348044B846043601A
:103C7000FFF7DEFF204610BD80110020813C0008C8
:103C800013B5064C23780093054B1B8802F0A1FA6C
:103C900010B923780133237002B010BD4E130020F9
:103CA0009410002010B50020144602F020FA0228DB
:103CB00004D018B1C321024802F07CF9204610BD9F
:103CC0006C6D0008034B02221868002380681946B7
:103CD00001F04EBB4010002008B518B1DF210548A7
:103CE00002F068F94FF06042D2F8803E1B02FBD42C
:103CF00008BD00BFBF6D000808B5074B1A6842B980
:103D0000012208201A6002F059F90449044800F021
:103D100093F9002008BD00BF941100202C10002052
:103D20008C110020054B1A782AB95B78002B0CBF48
:103D30000320022070470120704700BF5913002064
:103D40000329F8B505460E4607D8174B5C5C032DD2
:103D500019D8DFE805F0090F12154FF45171134817
:103D600002F028F90024F2E744F00204104B1F6827
:103D70007FB9F8BD44F00804F8E744F02004F5E703
:103D800044F08004F2E740F25931084802F012F999
:103D9000ECE77B681A68144203D0314628465B681A
:103DA00098473F68E4E700BF5B6E00080D6E0008AF
:103DB000C411002038B5104D2B78ABB10F4C2378CF
:103DC0001BB100F005FC00232370002000F028FC4C
:103DD0000B4C50B100F02EFC0023012120782B70F9
:103DE000FFF7AEFF0123237038BD0122054B1A7087
:103DF0002278054B1A70F7E7541300205213002065
:103E00005B130020551300205613002010B502F05C
:103E100017F9064B04461B781BB1BDE8104002F0B1
:103E200013B9FFF7C7FF2046F7E700BF5113002083
:103E300010B5154C2378FF2B14D1E0B14FF47671F7
:103E4000124802F0B7F82378D3B901232370104B3E
:103E50001B78012B11D90F4B1B7873B9BDE81040AB
:103E6000FFF7A8BF53B90028EFD140F2DA31074875
:103E700002F0A0F82378013B237010BD0028FAD08F
:103E80000133DBB2E2E700BF591300200D6E0008DA
:103E90005B1300205513002070B502F0D1F8134ECB
:103EA00005463378ABB900F01BFD044620B1284627
:103EB00002F0CAF8204670BD00F000FF0C4802F086
:103EC0007AF800F0CBFF0B4B1C6000F0D7FD0A4BDB
:103ED000186000F069FA02F0C4F9084B0024186079
:103EE00001232846337002F0AFF8E3E75C130020AB
:103EF000C411002098110020C01100209C11002046
:103F00002DE9F843441EE3B2012B0E4604D940F2DA
:103F10009B11354802F04EF8344D2B5DFF2B4AD1F2
:103F2000002E50D04FF4CF712F4802F043F82B5D94
:103F3000002B4CD02E4F013339782B55012944D911
:103F4000FFF7F0FE0128044646D802F079F8DFF8C2
:103F5000AC80054698F8003013B3264E33781BB971
:103F600001223270244A1370DFF8949099F80030DF
:103F700023B100F02DFB002389F80030284602F021
:103F800063F8012000F04CFB02F05AF83378054644
:103F90001BB100F04FFB00233370002388F8003082
:103FA000284602F051F83878A0420ED02146FFF79B
:103FB000C7FE3C7009E063B94EB94FF4D0710A48AE
:103FC00001F0F8FF2B5D013B2B55BDE8F8832B5D1D
:103FD000B0E7002EF7D0ADE70329E4D10228E2D103
:103FE00002F043F9DFE700BF0D6E0008591300200F
:103FF0005B130020511300205513002054130020A0
:104000005213002038B502F01BF8094B05461B7807
:10401000012B04D802F018F80024204638BD054BC7
:104020001C6800F067FB0444284602F00DF8F4E732
:104030005B1300209811002038B54160044601F060
:10404000FFFF054621460448FCF77CFD2846BDE8F5
:10405000384001F0F9BF00BFC4110020054B1B68B8
:104060005843054B00F5742000F23F20B0FBF3F0FD
:10407000704700BFC011002040420F002DE9F04FF3
:1040800085B0EFF3108772B6AFF3008001F0BBFE8E
:1040900000287CD0854EDFF83482337823B10020AD
:1040A000FFF7C6FE00233370FFF73CFE012811D056
:1040B00009D90238C0B2012870D940F2C131404656
:1040C00001F078FF06E0337823B10020FFF7B0FE5F
:1040D00000233370FFF726FE01280546744CDFF8F5
:1040E000009200F289802078854240F0C3802078D9
:1040F00000F0E4FA99F8003013B16E4B1B7823708E
:10410000AFF3008007B962B6EFF3108772B66A4B5F
:104110001A7852B100221A70664B20781B789842A8
:1041200003D101212170FFF70BFE644800F012FC5F
:1041300001F073FE05460028AFD1614BDFF8948192
:10414000187098F80030ABB189F80000DFF88C9156
:1041500099F800301BB100F03BFA89F800500020BC
:1041600000F05EFA002800F0988000F063FA002367
:1041700088F80030337823B10020FFF759FE002380
:10418000337000212078FFF7DBFD00232370AFF3AD
:10419000008007B962B605B0BDE8F08F002003A922
:1041A00000F028FC002895D1464B039A1B689A42E0
:1041B00004D80120FFF73CFE01238AE7424B1C682C
:1041C00000F098FA241804D540F2AA313F4801F0D3
:1041D000F1FE039B9C42ECD200F09CFA830043F07A
:1041E00002039BB2019300230399394A0093091BF0
:1041F000324802F03EF86DE7364BDFF8C4A093F882
:1042000000B0BBF1000F25D100F060F920788542A5
:1042100030D19AF800307BB92E4D2B78002B7FF4EB
:1042200066AF2D4B1B7823B900F0CCF901222B4B44
:104230001A7001232B705AE7022DEDD18AF800B0D5
:1042400015E02378022B25D100238AF80030AFF344
:1042500000801FE0207885420CD19AF80030002BB6
:104260003FF445AF022DD7D100238AF80030AFF3D9
:104270000080D1E70023DFF848A08AF8003099F8E1
:10428000003013B92946FFF75BFD9AF8003025701E
:10429000002BD6D1012DBFD829E7012000F00EFA5E
:1042A00007B962B6EFF3108772B658E753130020D0
:1042B0005B130020561300204F130020A011002094
:1042C000571300209C110020981100200D6E00084B
:1042D0000D3E0008541300205813002052130020F4
:1042E0005513002010B501F0ABFE0022044B1C78E2
:1042F0001A7001F0A9FE00F09DFC2043C0B210BD71
:104300005013002010B5094B1B786BB1084C237873
:1043100053B100F08FF90023064A23701370012374
:10432000054A1370054A137010BD00BF5B130020CF
:104330005513002054130020501300204F13002069
:10434000034B1B7813B10122024B1A70704700BF58
:104350005B1300205513002073B5114E04463378CB
:1043600083420FD04FF400730E4DADF8043058B1B6
:1043700001A8FEF73DF84020FFF770FE2B68181AE1
:104380002860347002B070BD8DF8050001A8FEF7FA
:104390002FF84020FFF762FE2B681844F0E700BFBB
:1043A000EA100020C811002073B5002401A88DF880
:1043B0000440FEF7DBF82046FFF7CEFF394A3A49C2
:1043C000136F3A4803F007030B60D2F80011384C22
:1043D00001F0030101604FF480103649032B486659
:1043E0004FF40030486601F59831896901F0020008
:1043F000C1F34001217040D0D2F8203103F007030F
:10440000991E4B424B41D2F828112B4D01F0070168
:10441000022908BF43F0010328490B70002838D057
:104420003BB9D2F8003103F003035A1E5342534103
:104430000B701C4BD3F8003103F00303022B1ED08A
:10444000032B1FD0012B20D1FCF71AFB024600B32F
:104450001B4B1C4EDC6800231946C4F30B040134CB
:1044600004EB84040138E4FB060100F03BFDFFF798
:10447000F5FD2B6803442B600BE00123C3E7FCF739
:104480005BFBE3E701F08EFDE0E7F3210E4801F06E
:1044900091FD1F20FFF7E2FD2B6803442B6002B063
:1044A00070BD00BF00800050CC110020D011002052
:1044B0005F13002000900050C811002060130020FE
:1044C00000C0015040420F005F6E0008074A0849D3
:1044D000D2F8203103F007030B60D2F82831054AE7
:1044E00003F00703136001F0BDBD00BF0080005062
:1044F000D8110020D411002008B5164B1A7822B329
:1045000000221A70144B1A6F22F0070242F00102C7
:104510001A67D3F8202122F0070242F00302C3F801
:104520002021D3F8282122F0070242F00302C3F829
:1045300028210A4B1B7833B10122094B5A60094AE2
:1045400053689B07FCD4FCF785FA0122064B5A6797
:1045500008BD00BF5E130020008000505F130020E4
:1045600000E0015000C001500060005A0122114BD0
:1045700010B55A67104B114C1B78A3B1022001F003
:10458000D8FE80B100F066FA68B1A36DD90302D5F8
:10459000E36D9A0703D4094B9B6DDB0704D54FF4F9
:1045A0008032044B9A6210BD0122054B1A70FFF74E
:1045B00059FAF4E70050005A601300200040005AF6
:1045C0005D1300200122014B1A7070475E1300201A
:1045D0000F4B10B51B7883B10E4C2378A3B90E4B4B
:1045E0009A6DD10302D5DA6D920702D49B6DDB0779
:1045F00004D54FF48032094B9A6210BDFFF732FAAE
:104600004FF48032054B9A6200232370F5E700BF18
:10461000601300205D1300200040005A0050005A33
:10462000034B1B780BB1FFF7C7BA0120704700BFDF
:104630006013002008B501F016FD174B1B7833B14D
:104640000122164B5A60164A9369DB07FCD5154BBD
:1046500015491A6F096822F007020A431A671349BD
:10466000D3F82021096822F007020A43C3F8202169
:104670000F49D3F82821096822F007020A43C3F83A
:1046800028210C4B1B781BB14FF480320A4B9A62E5
:10469000BDE80840FCF7DEB95F13002000D00150F0
:1046A00000C0015000800050CC110020D811002023
:1046B000D4110020601300200060005A02280AD0A4
:1046C00003280BD001280CD1084A136923F00403F6
:1046D000136130BF70470020FDF796BE0020FDF744
:1046E000B3BE40F24B21024801F064BC00ED00E093
:1046F0005F6E000808B5054B187818B1FFF72AFA65
:1047000000EBD000024B1B68184408BD601300206A
:10471000C8110020014B1878704700BF60130020BB
:1047200038B500F0FDFA0025084B094C1A682368DB
:10473000C31A2AB123B15169994203D3C91A5161ED
:10474000206038BD55615B1A9268F2E7E4110020E1
:10475000E0110020C38870B504460D463BB9FFF751
:1047600051FC8542064602D201F070FD35460E49E5
:1047700065610B688BB90C60A3600DE0AD1A9A6897
:10478000184665616AB113465A69AA42F6D930B132
:104790008460521BA3605A6170BD0020F4E70C6076
:1047A000F7E79C60A260F7E7E411002038B5134DED
:1047B0002B685B6993B1124A022014681C4401F013
:1047C000AFFD204600F0E0FA00230E492A680B7086
:1047D000D088800709D501230B7038BD022001F075
:1047E0009FFD022000F01EFBEEE79268002AF4D045
:1047F00050690344012BEBD9EFE700BFE41100201F
:10480000E011002062130020F8B515469DF81C2029
:10481000BDF820700271069A0446026000220E461E
:10482000C0E903358260C780ADB900F079FA304441
:10483000A0615EB13546062F1FD1194A2846936AFA
:1048400043F00803936200F073FA02E0E3686661E4
:104850007BB90020F8BD00F063FA2844A061002E67
:10486000E8D1E3686661002BE5D0204621689847CF
:10487000E1E7204621689847EBE701F0E1FB0646B7
:10488000FFF74EFF29462046FFF764FF054B1B68E4
:10489000A34201D1FFF78AFF304601F0D5FBD8E7EC
:1048A0000040005AE411002000220C490B687BB143
:1048B00083420AD183687AB1936083681BB15A69D5
:1048C00041690A445A61002070471A469B68EEE726
:1048D0000028EFD0022070470B60EEE7E4110020C3
:1048E00070B501F0B4FB144E05463478FCB9134B97
:1048F0001C60134B1C60134B1C8000F0ADF90120B1
:1049000001F00EFD01F040FD0F4B0246186020B98A
:10491000284601F0A2FB232070BD234640F2E73178
:104920000A4800F0DFFA0A4B18600123337028466A
:1049300001F093FB0020EFE763130020E411002057
:10494000E011002044130020E811002018FCFFFFB4
:10495000DC110020C38870B5062B044601D100F09D
:1049600069FA01F06DFB134E0546FFF7D9FE336877
:104970002046A34208D0FFF797FF0446B0B128466F
:1049800001F062FB204670BDFFF78EFF0446002851
:10499000F5D133683BB9022000F02EFA284601F029
:1049A00053FB0024EEE7FFF701FFF7E73368002B26
:1049B000F4D1F0E7E411002038B50C460546A8B163
:1049C000A1B100230B7001F042FB0121084B1B68D1
:1049D00033B901F042FB002038BD9D4204D1217063
:1049E0002278002AF9D0F4E79B68F1E72220F3E768
:1049F000E4110020F8B506460F4601F028FB00251B
:104A00000446124B1B6823B9204601F026FB1B20ED
:104A100011E05A691544DA88B2420DD100F080F9EC
:104A20000B4E3368C01AA8420AD3002320463B60CD
:104A300001F013FB0020F8BDFF2EEFD09B68E2E7EA
:104A400000F06EF933682B441B1AEFE7E4110020E5
:104A5000E011002008B5074B187848B101F04CFC74
:104A6000054B1B689B69C01A02288CBF00200120DF
:104A700008BD00BF62130020E4110020014B18683C
:104A8000704700BFE811002038B50021044640F20D
:104A9000E730054B4FF47A721D680023E5FB0401F3
:104AA00000F020FA38BD00BFE8110020012300B556
:104AB0008DB08DF80F30FFF7E7FF00230146CDE9F9
:104AC0000033074A0DF10F0304A801F0F1FB18B9F8
:104AD0009DF80F30002BFBD10DB05DF804FB00BF3B
:104AE0006D620008C2072DE9F04704460BD54D4A18
:104AF000138801339BB21380FFF712FE4A4B1B68E9
:104B00000BB1FFF753FEA30740F18A8001F09FFA33
:104B10004FF0000905464E46FFF702FEC846424FD9
:104B20003C680CB163698BB10022404B012E1A70B6
:104B300003D119F0020F18BF1E70002C6CD0FFF7C4
:104B400035FE2846BDE8F04701F087BA23465A698A
:104B50003AB91A792179914288BF1C469B68002B8B
:104B6000F5D1284601F079FA2569DDB100F0D8F8D1
:104B7000A269A0EB02094FEAE9734D4578EB030304
:104B800011DA23691344A361E368B4F8069001368F
:104B900013B120462168984701F059FA0546FFF7FE
:104BA000BFFDBDE7A94601F052FA82462046FFF755
:104BB0007BFE504601F051FA2369002BE4D0B5EB9F
:104BC00009054FEAE97363EB4303002B04DA40F273
:104BD0002B51174801F0EEF9A38B33B1E28B13444C
:104BE0009BB2B3F57A7F0FD2E38301F030FA8146AE
:104BF00029462046FFF7AEFDA369226948461344C3
:104C0000A36101F02AFABFE7A3F57A73E383A369EE
:104C1000013D013BA361E8E7022000F0EDF890E7D9
:104C2000BDE8F08744130020E41100206113002048
:104C3000B46E000810B501F00AFA034B1C7801F0BD
:104C40000CFA204610BD00BF61130020014B187004
:104C5000704700BF6113002010B50121002486B009
:104C60003E20ADF80810CDE903448DF804408DF8DE
:104C70000A400594FCF7CEFB01A8FEF787FD20460D
:104C800002A98DF80840FEF791FD20460F21FEF79E
:104C9000BFFD0F212046FEF7C9FDFEF75DFDFEF7C3
:104CA00039FD0822034B9C61034BC3F888219A60AD
:104CB00006B010BD00800A5000E100E008B50121F7
:104CC0003B20FCF7A7FB40F6015200210120FEF734
:104CD0001DFC4FF4967200210120FEF745FC034AAB
:104CE000936C43F48073936408BD00BF00800A5046
:104CF00008B501213B20FCF78DFB40F60162002145
:104D00000220FEF703FC4FF4927200210220FEF70E
:104D10002BFC024B9A6C9A6408BD00BF00800A50BD
:104D200008B5FEF7F7FC014B986908BD00800A50F2
:104D300038B5044601F084F90546FEF7EBFC104B4C
:104D4000022C9A694FF001018CBF12190332B2F1A3
:104D5000FF3F38BF013A0020FEF79EFD284601F0D4
:104D600073F908490B7853B1054B9A6C42F0020273
:104D70009A649A6C42F004029A6400230B7038BD66
:104D800000800A50EB100020F8B5044601F058F9F5
:104D90000746FEF7BFFC164B9D6901F0BDFA0646BB
:104DA0000020FEF751FD830704D4731B032B01D8A9
:104DB000AE420FD10021631B022B98BFEC1C0846AA
:104DC000B4F1FF3F2CBF2246621EFEF765FD0220B4
:104DD00001F0A6FA384601F037F9064A137833B1E4
:104DE00003498B6C43F001038B6400231370F8BDFF
:104DF00000800A50EC100020830700F0010109D563
:104E00000122064B41F002011A70054A936C23F00F
:104E1000010393640020FEF7FBBC00BFEC100020F0
:104E200000800A50830742BF0222014B1A64704778
:104E300000900A5007490B7853B9074B9A6C22F03F
:104E400002029A649A6C22F004029A6401230B70A5
:104E5000704700BFEB10002000800A500A4B10B5CD
:104E6000D3F8403203F00303013B012B0BD801F0D0
:104E7000E7F8044601210220FFF742F82046BDE88A
:104E8000104001F0E1B810BD0080005010B504469C
:104E9000FBF7E0FD4FF47A729042B0FBF2F105D2DD
:104EA0003621BDE810400C4801F084B80B4BB3FB31
:104EB000F1F30B49884201D93C21F2E702FB04F0EF
:104EC000B0FBF3F0022806D9BDE810400323B0FB85
:104ED000F3F0FBF74DB910BDFC6E000840420F0027
:104EE000E7CD9A3B53B94AB9002908BF00281CBF37
:104EF0004FF0FF314FF0FF3000F082B9ADF1080CF8
:104F00006DE904CE00F006F8DDF804E0DDE90223E7
:104F100004B070472DE9F04F099D0C46002B4DD190
:104F20008A420F4684469646B2FA82F360D94BB164
:104F300002FA03FEC3F120029F4000FA03FC20FAAC
:104F400002F217434FEA1E461FFA8EF44FEA1C4244
:104F5000B7FBF6F106FB117701FB04F042EA0742CA
:104F6000904208D91EEB020201F1FF3702D29042B3
:104F700000F231813946121A1FFA8CFCB2FBF6F0AE
:104F800006FB102200FB04F44CEA024C644508D9ED
:104F90001EEB0C0C00F1FF3202D2644500F21E81C0
:104FA000104640EA0140ACEB040C002125B12CFA7C
:104FB00003F30022C5E90032BDE8F08F8B4205D92A
:104FC0000DB1C5E9000100210846F5E7B3FA83F108
:104FD00000294DD1A342C0F0F380904280F0F080D0
:104FE000064623460846002DE6D0C5E90063E3E700
:104FF000002B40F0A3808A1A4FEA1E471FFA8EF654
:105000000121B2FBF7F407FB14204FEA1C4242EAED
:10501000004206FB04F090420FD91EEB020204F19D
:10502000FF382CBF4FF001094FF00009904203D91F
:10503000B9F1000F00F0CC804446121A1FFA8CFC24
:10504000B2FBF7F007FB102200FB06F64CEA024C1D
:10505000664508D91EEB0C0C00F1FF3202D2664502
:1050600000F2B3801046ACEB060C40EA04409DE72A
:10507000C1F120068B4004FA01FE22FA06F720FA5D
:1050800006FCF4408A401F434EEA0C0300FA01FE7E
:105090004FEA17484FEA13491FFA87FCB4FBF8F0B0
:1050A00008FB104449EA044400FB0CF9A1450ED961
:1050B0003C1900F1FF3A2CBF4FF0010B4FF0000BF1
:1050C000A14503D9BBF1000F00F08B805046A4EB43
:1050D00009041FFA83F9B4FBF8F308FB134403FB3C
:1050E0000CFC49EA0444A44506D93C1903F1FF38F5
:1050F00001D2A4457BD8434643EA0040A4EB0C040C
:10510000A0FB02984445CC46434602D306D1CE4587
:1051100004D20138B9EB020C68EB0703002D6CD008
:10512000BEEB0C0264EB030422FA01F304FA06F668
:10513000CC4000211E43C5E900643DE702FA03FEAE
:10514000C3F1200104FA03F200FA03FCCC404FEA59
:105150001E4720FA01F11FFA8EF6B4FBF7F00A435E
:1051600007FB1044110C41EA044100FB06F48C4299
:105170000ED91EEB010100F1FF382CBF4FF00109E1
:105180004FF000098C4202D9B9F1000F2CD04046F3
:10519000091B92B2B1FBF7F407FB141142EA01427A
:1051A00004FB06F1914207D91EEB020204F1FF381D
:1051B00001D291421ED84446521A44EA004120E7E7
:1051C000861A64EB030301200DE7F44402384AE732
:1051D000023C724431E702397244CCE6F4440238AE
:1051E000DFE602383C4472E702387144D0E7023B04
:1051F0003C4481E7023C7244DEE72946DCE600BF1E
:10520000704700BF08B5064B044613B10021AFF349
:105210000080044B1B6803B19847204600F0C1FF93
:105220000000000024130020002310B50446836012
:10523000818119464366C28108228361C0E9003337
:10524000C0E904335C3001F030F90D4B2462636235
:105250000C4BA3620C4BE3620C4B23630C4B9C4244
:1052600006D003F16802944202D0D0339C4205D1AB
:1052700004F15800BDE8104001F01FB910BD00BF97
:1052800025640008476400087F640008A3640008E0
:10529000EC110020024A0349034801F0A5B800BF01
:1052A00034100020FD6600084410002041680C4BBB
:1052B000994210B5044601D001F020FAA168094BCB
:1052C000994202D0204601F019FAE168064B994252
:1052D00004D02046BDE8104001F010BA10BD00BF58
:1052E000EC11002054120020BC12002010B50B4B12
:1052F00004210B4C0B4A20461A600022FFF794FF52
:1053000004F1680001220921FFF78EFF04F1D000AB
:1053100002221221BDE81040FFF786BF24130020AF
:10532000EC11002095520008014801F0C7B800BFF9
:1053300065130020014801F0C2B800BF65130020CA
:1053400010B50446FFF7F0FF236A1BB1BDE810401B
:10535000FFF7F0BF044B2362044B1B68002BF5D111
:10536000FFF7C4FFF2E700BFAD520008241300208E
:105370002DE9F7431D46574B04460E461F689046DD
:1053800027B13B6A13B93846FFF7DAFFB8F1020FCD
:1053900006D0B8F1010F00F29980002DC0F296807E
:1053A000636ED90705D4A3899A0502D4A06D01F0D4
:1053B00085F82146384601F0A1F9616B41B104F14D
:1053C0004403994202D0384600F0FAF800236363A0
:1053D0000023A3616360A3891B0603D521693846B6
:1053E00000F0EEF8A389B8F1020F23F44A6323F02A
:1053F0000303A38160D001AB6A462146384601F021
:10540000A5F9A3891843A0812DBB009D284600F073
:1054100021F90646002851D1DDF80090A9453FD179
:105420004FF0FF35B4F90C3043F00202A2810022A4
:10543000A26004F147022260226101226261626E71
:10544000D60704D4980502D4A06D01F038F8284698
:1054500003B0BDE8F083002ED8D03B6A13B93846BC
:10546000FFF76EFFB8F1010F266002BFA38943F07A
:105470000103A381B4F90C3013F00802C4E90465F8
:105480001ED0D90745BF00226D42A560A26048BF6B
:10549000A561626ED20701D49B0513D50025D6E71E
:1054A000484600F0D7F806460028B9D0A3894D46F3
:1054B00043F08003A381D0E70025B3E7A946F5E7D1
:1054C000A260E6E7A06D00F0FAFFE7E74FF0FF35D6
:1054D000BDE700BF401000200B46034902460868A4
:1054E000816800F065B900BF4010002038B5002386
:1054F000054D044608462B6000F051FE431C02D1C6
:105500002B6803B1236038BD2813002038B504464A
:10551000064D0846114600222A601A4600F049FE50
:10552000431C02D12B6803B1236038BD281300202F
:1055300038B50446064D0846114600222A601A4630
:1055400000F039FE431C02D12B6803B1236038BD43
:105550002813002038B50446064D0846114600229F
:105560002A601A46FEF79EFB431C02D12B6803B14A
:10557000236038BD2813002070B50D4D00260D4C5A
:10558000641BA410A64209D10B4D00260B4C01F060
:1055900097F9641BA410A64205D170BD55F8043BD1
:1055A00001369847EEE755F8043B01369847F2E795
:1055B000F0100020F0100020F0100020F410002067
:1055C00038B50546002941D051F8043C0C1F002B8A
:1055D000B8BFE41800F0E0F81D4A136833B96360FF
:1055E00014602846BDE8384000F0DCB8A34208D972
:1055F000206821188B4201BF19685B680918216077
:10560000EDE71A465B680BB1A342FAD9116850184E
:10561000A0420BD120680144501811608342E0D1B0
:1056200018685B68084453601060DAE702D90C23FD
:105630002B60D6E7206821188B4202BF19685B688F
:105640000918636008BF21605460CAE738BD00BF15
:1056500030130020024B0146186800F025B800BF47
:105660004010002070B50F4E0C460546316811B948
:1056700000F05AFB30602146284600F055FB431CE1
:1056800003D14FF0FF34204670BDC41C24F0030446
:10569000A042F8D0211A284600F046FB0130F2D192
:1056A000EFE700BF2C1300202DE9F041CD1C06468A
:1056B00025F0030508350C2D38BF0C25002D01DB26
:1056C000A94204D90C2333600020BDE8F081314F9A
:1056D00000F062F83B681C4644BB29463046FFF7A1
:1056E000C1FF431C044650D13C682146002941D1EA
:1056F000002C44D02368304604EB030800F014FB70
:1057000080453CD1216830466D1A2946FFF7AAFF33
:10571000013034D023682B4423603B68002B36D003
:105720005A68A24229D100225A600EE02268521B18
:105730001DD40B2A16D96119A342256018BF5960E0
:10574000636808BF396062514B60304600F02AF848
:1057500004F10B00231D20F00700C21AB5D01B1A5C
:10576000A350B2E7A3426268DED13A60EDE7234678
:105770006468B1E70C464968B8E71346CEE70C23E6
:105780003046336000F00EF89EE70560DDE75B60B1
:10579000FFDE00BF30130020014800F08FBE00BFC5
:1057A00064130020014800F08ABE00BF641300208B
:1057B0002DE9F04F0D469DB014469846064618B1A7
:1057C000036A0BB9FFF7BCFD6B6ED90705D4AB8933
:1057D0009A0502D4A86D00F071FEAB891B0701D5B4
:1057E0002B699BB92946304600F026FA70B16B6EE2
:1057F000DC0704D54FF0FF301DB0BDE8F08FAB895A
:105800009805F7D4A86D00F05AFEF3E70023CDF811
:105810000C804FF00109DFF8B481099320238DF843
:10582000293030238DF82A3023469A4613F8012B6D
:105830000AB1252AF9D1BAEB040B0BD05B462246FC
:105840002946304600F053FE013000F0A780099A47
:105850005A4409929AF80030002B00F09F800023F0
:105860004FF0FF320AF1010A049307938DF8533089
:105870001A93CDE9052354460522544814F8011B18
:1058800001F003F8049AD8B9D10644BF20238DF85B
:105890005330130744BF2B238DF853309AF8003050
:1058A0002A2B15D0079A544600204FF00A0C2146A7
:1058B00011F8013B303B092B4BD9B0B1079214E0F2
:1058C000A0EB0803A24609FA03F313430493D2E7BB
:1058D000039B191D1B68002B0391BBBF5B4242F069
:1058E000020207930793B8BF049223782E2B0AD1A4
:1058F00063782A2B32D1039B02341A1D1B6843EABA
:10590000E37303920593DFF8D4A003222178504675
:1059100000F0BBFF38B1A0EB0A004022049B013429
:1059200082401343049314F8011B062228488DF883
:10593000281000F0AAFF00283FD0264B1BBB039B7A
:10594000073323F0070308330393099B3B44099370
:105950006AE70CFB02320C460120A8E70023013461
:105960004FF00A0C19460593204610F8012B303AE7
:10597000092A03D9002BC6D00591C4E70CFB0121ED
:1059800004460123F0E703AB2A4604A930460093FE
:10599000114BAFF300800746781CD6D16B6ED90748
:1059A00005D4AB899A0502D4A86D00F088FDAB89B7
:1059B0005B063FF51FAF09981EE703AB2A4604A913
:1059C00030460093044B00F00BF8E4E73C6F00080E
:1059D000466F000800000000EF640008426F0008F6
:1059E0002DE9FF470F7E914680460C46782F9A4658
:1059F0000C9E01F1430207D8622F0AD8002F00F055
:105A0000DD80582F00F0C38004F1420684F8427014
:105A10003AE0A7F16303152BF6D801A151F823F062
:105A2000795A00088D5A0008095A0008095A0008D6
:105A3000095A0008095A00088D5A0008095A000836
:105A4000095A0008095A0008095A0008A35B00080F
:105A50001B5B00085B5B0008095A0008095A000834
:105A6000C55B0008095A00081B5B0008095A0008BA
:105A7000095A0008635B000833681A1D1B6832600E
:105A800004F1420684F842300123A8E0316823681B
:105A9000081D30601E0601D50D6803E05D06FBD5CC
:105AA000B1F90050002D616878DA2D200029A1603D
:105AB00084F843002DDA6D425D480A231646B5FB93
:105AC000F3F103FB1157C75D06F8017D2F460D4624
:105AD000BB42F4D9082B0BD12368DF0708D5236913
